{
  "address": "0x9acc462363497F3D3B0d379ABB08002c03AF0641",
  "abi": [
    {
      "inputs": [
        {
          "internalType": "address",
          "name": "user",
          "type": "address"
        }
      ],
      "name": "ReserveHelperAlreadyInitialized",
      "type": "error"
    },
    {
      "inputs": [
        {
          "internalType": "address",
          "name": "user",
          "type": "address"
        }
      ],
      "name": "ReserveHelperUninitialized",
      "type": "error"
    },
    {
      "anonymous": false,
      "inputs": [
        {
          "indexed": true,
          "internalType": "address",
          "name": "user",
          "type": "address"
        },
        {
          "indexed": false,
          "internalType": "contract ReserveHelper",
          "name": "reserveHelper",
          "type": "address"
        }
      ],
      "name": "CreateReserveHelper",
      "type": "event"
    },
    {
      "anonymous": false,
      "inputs": [
        {
          "indexed": true,
          "internalType": "address",
          "name": "user",
          "type": "address"
        },
        {
          "indexed": false,
          "internalType": "contract IStrykeHandlerV2",
          "name": "handler",
          "type": "address"
        },
        {
          "components": [
            {
              "internalType": "address",
              "name": "pool",
              "type": "address"
            },
            {
              "internalType": "address",
              "name": "hook",
              "type": "address"
            },
            {
              "internalType": "int24",
              "name": "tickLower",
              "type": "int24"
            },
            {
              "internalType": "int24",
              "name": "tickUpper",
              "type": "int24"
            },
            {
              "internalType": "uint128",
              "name": "liquidity",
              "type": "uint128"
            }
          ],
          "indexed": false,
          "internalType": "struct IStrykeHandlerV2.ReserveLiquidity",
          "name": "reservedPosition",
          "type": "tuple"
        }
      ],
      "name": "ReserveLiquidity",
      "type": "event"
    },
    {
      "anonymous": false,
      "inputs": [
        {
          "indexed": true,
          "internalType": "address",
          "name": "user",
          "type": "address"
        },
        {
          "indexed": false,
          "internalType": "contract IStrykeHandlerV2",
          "name": "handler",
          "type": "address"
        },
        {
          "components": [
            {
              "internalType": "address",
              "name": "pool",
              "type": "address"
            },
            {
              "internalType": "address",
              "name": "hook",
              "type": "address"
            },
            {
              "internalType": "int24",
              "name": "tickLower",
              "type": "int24"
            },
            {
              "internalType": "int24",
              "name": "tickUpper",
              "type": "int24"
            },
            {
              "internalType": "uint128",
              "name": "liquidity",
              "type": "uint128"
            }
          ],
          "indexed": false,
          "internalType": "struct IStrykeHandlerV2.ReserveLiquidity",
          "name": "withdrawnPosition",
          "type": "tuple"
        }
      ],
      "name": "WithdrawReserveLiquidity",
      "type": "event"
    },
    {
      "inputs": [
        {
          "internalType": "contract IStrykeHandlerV2",
          "name": "handler",
          "type": "address"
        },
        {
          "components": [
            {
              "internalType": "address",
              "name": "pool",
              "type": "address"
            },
            {
              "internalType": "address",
              "name": "hook",
              "type": "address"
            },
            {
              "internalType": "int24",
              "name": "tickLower",
              "type": "int24"
            },
            {
              "internalType": "int24",
              "name": "tickUpper",
              "type": "int24"
            },
            {
              "internalType": "uint128",
              "name": "shares",
              "type": "uint128"
            }
          ],
          "internalType": "struct IStrykeHandlerV2.ReserveShare[]",
          "name": "reserveLiquidityParams",
          "type": "tuple[]"
        }
      ],
      "name": "batchReserveLiquidity",
      "outputs": [
        {
          "components": [
            {
              "internalType": "address",
              "name": "pool",
              "type": "address"
            },
            {
              "internalType": "address",
              "name": "hook",
              "type": "address"
            },
            {
              "internalType": "int24",
              "name": "tickLower",
              "type": "int24"
            },
            {
              "internalType": "int24",
              "name": "tickUpper",
              "type": "int24"
            },
            {
              "internalType": "uint128",
              "name": "liquidity",
              "type": "uint128"
            }
          ],
          "internalType": "struct IStrykeHandlerV2.ReserveLiquidity[]",
          "name": "reservedLiquidities",
          "type": "tuple[]"
        }
      ],
      "stateMutability": "nonpayable",
      "type": "function"
    },
    {
      "inputs": [
        {
          "internalType": "contract IStrykeHandlerV2",
          "name": "handler",
          "type": "address"
        },
        {
          "internalType": "uint256[]",
          "name": "tokenIds",
          "type": "uint256[]"
        }
      ],
      "name": "batchWithdrawReserveLiquidity",
      "outputs": [],
      "stateMutability": "nonpayable",
      "type": "function"
    },
    {
      "inputs": [],
      "name": "createMyReserveHelper",
      "outputs": [
        {
          "internalType": "contract ReserveHelper",
          "name": "reserveHelper",
          "type": "address"
        }
      ],
      "stateMutability": "nonpayable",
      "type": "function"
    },
    {
      "inputs": [
        {
          "internalType": "address",
          "name": "user",
          "type": "address"
        }
      ],
      "name": "reserveHelpers",
      "outputs": [
        {
          "internalType": "contract ReserveHelper",
          "name": "",
          "type": "address"
        }
      ],
      "stateMutability": "view",
      "type": "function"
    }
  ],
  "transactionHash": "0x437f7d3ea2765a162e0e6e8e974fede529f6b162a1bdadc15bd4a8dc9f6cdd5f",
  "args": [],
  "numDeployments": 1,
  "solcInputHash": "f2a4009c636b3158430a68a2de14f960",
  "bytecode": "0x608060405234801561001057600080fd5b5061274f806100206000396000f3fe608060405234801561001057600080fd5b506004361061004c5760003560e01c80631bc1ec641461005157806329e12842146100765780636cc7234b1461008b57806385760833146100b4575b600080fd5b6100596100d4565b6040516001600160a01b0390911681526020015b60405180910390f35b6100896100843660046106b5565b6101b1565b005b61005961009936600461073d565b6000602081905290815260409020546001600160a01b031681565b6100c76100c2366004610761565b6102fb565b60405161006d9190610821565b336000908152602081905260408120546001600160a01b031615610112576040516374feeac360e11b81523360048201526024015b60405180910390fd5b3360405161011f90610690565b6001600160a01b039091168152602001604051809103906000f08015801561014b573d6000803e3d6000fd5b50336000818152602081815260409182902080546001600160a01b0319166001600160a01b038616908117909155915191825292935090917f94acd17edd16bee266a1ddf083b81f285b33316fc8faacbcbce1b4824b2fd10c910160405180910390a290565b336000908152602081905260409020546001600160a01b0316806101ea5760405163b1793aeb60e01b8152336004820152602401610109565b60005b828110156102f4576000826001600160a01b031663baaebb48878787868181106102195761021961086f565b6040516001600160e01b031960e087901b1681526001600160a01b039094166004850152602002919091013560248301525060440160a0604051808303816000875af115801561026d573d6000803e3d6000fd5b505050506040513d601f19601f820116820180604052508101906102919190610943565b60808101519091506001600160801b0316156102eb57336001600160a01b03167f26119053da617c189209efc7a013e3f363c0b20ecd5e8b5346c4001250907f6387836040516102e29291906109bd565b60405180910390a25b506001016101ed565b5050505050565b336000908152602081905260409020546060906001600160a01b0316806103375760405163b1793aeb60e01b8152336004820152602401610109565b8267ffffffffffffffff81111561035057610350610885565b6040519080825280602002602001820160405280156103a957816020015b6040805160a08101825260008082526020808301829052928201819052606082018190526080820152825260001990920191018161036e5790505b50915060005b838110156106875760008585838181106103cb576103cb61086f565b905060a002018036038101906103e191906109da565b90506000610454888360000151846020015185604001518660600151604080516001600160a01b0396871660208083019190915295871681830152939095166060840152600291820b6080840152900b60a0808301919091528351808303909101815260c0909101909252815191012090565b60808301516040516328daa11760e01b81526001600160801b039091166004820152602481018290529091506000906001600160a01b038a16906328daa11790604401602060405180830381865afa1580156104b4573d6000803e3d6000fd5b505050506040513d601f19601f820116820180604052508101906104d89190610a48565b604051636ac3bc6b60e11b8152600481018490529091506001600160a01b038a169063d58778d6906024016101a060405180830381865afa158015610521573d6000803e3d6000fd5b505050506040513d601f19601f820116820180604052508101906105459190610a90565b600001516001600160801b0316816001600160801b03161161056b57826080015161057c565b6001836080015161057c9190610b80565b6001600160801b0316608084018190521561067c5760405163bc5b9f3b60e01b81526001600160a01b0386169063bc5b9f3b906105bf908c9087906004016109bd565b60a0604051808303816000875af11580156105de573d6000803e3d6000fd5b505050506040513d601f19601f820116820180604052508101906106029190610943565b8685815181106106145761061461086f565b6020026020010181905250336001600160a01b03167fb60c9436df9d237be035519aae955dcae0daae2633e33b1af103f07feb1306938a88878151811061065d5761065d61086f565b60200260200101516040516106739291906109bd565b60405180910390a25b5050506001016103af565b50509392505050565b611b6480610bb683390190565b6001600160a01b03811681146106b257600080fd5b50565b6000806000604084860312156106ca57600080fd5b83356106d58161069d565b9250602084013567ffffffffffffffff808211156106f257600080fd5b818601915086601f83011261070657600080fd5b81358181111561071557600080fd5b8760208260051b850101111561072a57600080fd5b6020830194508093505050509250925092565b60006020828403121561074f57600080fd5b813561075a8161069d565b9392505050565b60008060006040848603121561077657600080fd5b83356107818161069d565b9250602084013567ffffffffffffffff8082111561079e57600080fd5b818601915086601f8301126107b257600080fd5b8135818111156107c157600080fd5b87602060a08302850101111561072a57600080fd5b60018060a01b0380825116835280602083015116602084015250604081015160020b6040830152606081015160020b60608301526001600160801b0360808201511660808301525050565b6020808252825182820181905260009190848201906040850190845b81811015610863576108508385516107d6565b9284019260a0929092019160010161083d565b50909695505050505050565b634e487b7160e01b600052603260045260246000fd5b634e487b7160e01b600052604160045260246000fd5b60405160a0810167ffffffffffffffff811182821017156108cc57634e487b7160e01b600052604160045260246000fd5b60405290565b6040516101a0810167ffffffffffffffff811182821017156108cc57634e487b7160e01b600052604160045260246000fd5b805161090f8161069d565b919050565b8060020b81146106b257600080fd5b6001600160801b03811681146106b257600080fd5b805161090f81610923565b600060a0828403121561095557600080fd5b61095d61089b565b82516109688161069d565b815260208301516109788161069d565b6020820152604083015161098b81610914565b6040820152606083015161099e81610914565b606082015260808301516109b181610923565b60808201529392505050565b6001600160a01b038316815260c0810161075a60208301846107d6565b600060a082840312156109ec57600080fd5b6109f461089b565b82356109ff8161069d565b81526020830135610a0f8161069d565b60208201526040830135610a2281610914565b60408201526060830135610a3581610914565b606082015260808301356109b181610923565b600060208284031215610a5a57600080fd5b815161075a81610923565b805167ffffffffffffffff8116811461090f57600080fd5b805162ffffff8116811461090f57600080fd5b60006101a08284031215610aa357600080fd5b610aab6108d2565b610ab483610938565b8152610ac260208401610938565b6020820152610ad360408401610938565b60408201526060830151606082015260808301516080820152610af860a08401610938565b60a0820152610b0960c08401610938565b60c0820152610b1a60e08401610a65565b60e0820152610100610b2d818501610938565b90820152610120610b3f848201610904565b90820152610140610b51848201610904565b90820152610160610b63848201610a7d565b90820152610180610b75848201610938565b908201529392505050565b6001600160801b03828116828216039080821115610bae57634e487b7160e01b600052601160045260246000fd5b509291505056fe60c060405234801561001057600080fd5b50604051611b64380380611b6483398101604081905261002f91610044565b6001600160a01b03166080523360a052610074565b60006020828403121561005657600080fd5b81516001600160a01b038116811461006d57600080fd5b9392505050565b60805160a051611ab06100b4600039600081816101280152818161022d015261087e01526000818160870152818161071e0152610b510152611ab06000f3fe608060405234801561001057600080fd5b506004361061007d5760003560e01c8063bc5b9f3b1161005b578063bc5b9f3b146100fb578063c22703fe1461010e578063ec55688914610123578063f020c90f1461014a57600080fd5b80634f8632ba146100825780636bb463f6146100c6578063baaebb48146100db575b600080fd5b6100a97f000000000000000000000000000000000000000000000000000000000000000081565b6040516001600160a01b0390911681526020015b60405180910390f35b6100ce6101e6565b6040516100bd9190611498565b6100ee6100e93660046114f4565b6101f7565b6040516100bd919061156b565b6100ee6101093660046115f3565b610848565b610116610c66565b6040516100bd91906116be565b6100a97f000000000000000000000000000000000000000000000000000000000000000081565b6101a3610158366004611700565b6000602081905290815260409020805460018201546002928301546001600160a01b039283169392821692600160a01b8304810b92600160b81b9004900b906001600160801b031685565b604080516001600160a01b039687168152959094166020860152600292830b93850193909352900b60608301526001600160801b0316608082015260a0016100bd565b60606101f26001610d96565b905090565b6040805160a081018252600080825260208201819052918101829052606081018290526080810191909152336001600160a01b037f0000000000000000000000000000000000000000000000000000000000000000161461026b576040516308e3edd160e41b815260040160405180910390fd5b60008060008481526020019081526020016000206040518060a00160405290816000820160009054906101000a90046001600160a01b03166001600160a01b03166001600160a01b031681526020016001820160009054906101000a90046001600160a01b03166001600160a01b03166001600160a01b031681526020016001820160149054906101000a900460020b60020b60020b81526020016001820160179054906101000a900460020b60020b60020b81526020016002820160009054906101000a90046001600160801b03166001600160801b03166001600160801b031681525050905060008060008581526020019081526020016000206040518060a00160405290816000820160009054906101000a90046001600160a01b03166001600160a01b03166001600160a01b031681526020016001820160009054906101000a90046001600160a01b03166001600160a01b03166001600160a01b031681526020016001820160149054906101000a900460020b60020b60020b81526020016001820160179054906101000a900460020b60020b60020b81526020016002820160009054906101000a90046001600160801b03166001600160801b03166001600160801b031681525050905083610459868460000151856020015186604001518760600151610daa565b146104875760405163497887ed60e11b81526001600160a01b03861660048201526024015b60405180910390fd5b6104918583610e01565b6001600160801b0316608083018190526000036104dc5750506040805160a0810182526000808252602082018190529181018290526060810182905260808101919091529050610842565b8160800151816080018181516104f2919061172f565b6001600160801b03908116909152608083015116600003905061051c5761051a600185610fef565b505b600084815260208181526040808320845181546001600160a01b0319166001600160a01b03918216178255858401516001830180548886015160608a01519385166001600160b81b031990921691909117600160a01b62ffffff928316021762ffffff60b81b1916600160b81b91909316029190911790556080860151600290920180546001600160801b0319166001600160801b039093169290921790915585518251630dfe168160e01b815292519697508796911692630dfe168192600480820193918290030181865afa1580156105fa573d6000803e3d6000fd5b505050506040513d601f19601f8201168201806040525081019061061e919061175a565b9050600083600001516001600160a01b031663d21220a76040518163ffffffff1660e01b8152600401602060405180830381865afa158015610664573d6000803e3d6000fd5b505050506040513d601f19601f82011682018060405250810190610688919061175a565b9050866001600160a01b031663efb7dbb8856040516020016106aa919061156b565b6040516020818303038152906040526040518263ffffffff1660e01b81526004016106d591906117c7565b600060405180830381600087803b1580156106ef57600080fd5b505af1158015610703573d6000803e3d6000fd5b50506040516370a0823160e01b8152306004820152600092507f0000000000000000000000000000000000000000000000000000000000000000915082906001600160a01b038616906370a0823190602401602060405180830381865afa158015610772573d6000803e3d6000fd5b505050506040513d601f19601f8201168201806040525081019061079691906117da565b92508211156107b3576107b36001600160a01b0385168284610ffb565b6040516370a0823160e01b81523060048201526000906001600160a01b038516906370a0823190602401602060405180830381865afa1580156107fa573d6000803e3d6000fd5b505050506040513d601f19601f8201168201806040525081019061081e91906117da565b925082111561083b5761083b6001600160a01b0384168284610ffb565b5050505050505b92915050565b6040805160a081018252600080825260208201819052918101829052606081018290526080810191909152336001600160a01b037f000000000000000000000000000000000000000000000000000000000000000016146108bc576040516308e3edd160e41b815260040160405180910390fd5b60006108db848460000151856020015186604001518760600151610daa565b905060006040518060a0016040528085600001516001600160a01b0316815260200185602001516001600160a01b03168152602001856040015160020b8152602001856060015160020b8152602001866001600160a01b03166328daa1178760800151866040518363ffffffff1660e01b81526004016109709291906001600160801b03929092168252602082015260400190565b602060405180830381865afa15801561098d573d6000803e3d6000fd5b505050506040513d601f19601f820116820180604052508101906109b191906117fe565b6001600160801b03908116909152600084815260208181526040808320815160a08101835281546001600160a01b039081168252600183015490811694820194909452600160a01b8404600290810b93820193909352600160b81b909304820b606084015201549092166080830181905292935090919003610a4157610a38600184611052565b50819050610a64565b816080015181608001818151610a57919061181b565b6001600160801b03169052505b60008381526020818152604091829020835181546001600160a01b0319166001600160a01b0391821617825584830151600183018054878701516060808a01519486166001600160b81b031990931692909217600160a01b62ffffff928316021762ffffff60b81b1916600160b81b9190941602929092179055608080870151600294850180546001600160801b0319166001600160801b03928316179055865160a0810188528c51851681528c8701518516968101969096528b870151850b868801528b83015190940b91850191909152868101518316848201528901519351637f4c824d60e11b81527f0000000000000000000000000000000000000000000000000000000000000000821660048201523060248201526044810188905293909116606484015290955087169063fe99049a90608401600060405180830381600087803b158015610bb657600080fd5b505af1158015610bca573d6000803e3d6000fd5b50505050856001600160a01b0316636b69e34286604051602001610bee919061156b565b6040516020818303038152906040526040518263ffffffff1660e01b8152600401610c1991906117c7565b6020604051808303816000875af1158015610c38573d6000803e3d6000fd5b505050506040513d601f19601f82011682018060405250810190610c5c91906117fe565b5050505092915050565b6060610c72600161105e565b67ffffffffffffffff811115610c8a57610c8a611579565b604051908082528060200260200182016040528015610ce357816020015b6040805160a081018252600080825260208083018290529282018190526060820181905260808201528252600019909201910181610ca85790505b50905060005b8151811015610d9257600080610d00600184611068565b81526020808201929092526040908101600020815160a08101835281546001600160a01b039081168252600183015490811694820194909452600160a01b8404600290810b93820193909352600160b81b909304820b606084015201546001600160801b031660808201528251839083908110610d7f57610d7f61183b565b6020908102919091010152600101610ce9565b5090565b60606000610da383611074565b9392505050565b604080516001600160a01b0396871660208083019190915295871681830152939095166060840152600291820b6080840152900b60a0808301919091528351808303909101815260c0909101909252815191012090565b600080610e21848460000151856020015186604001518760600151610daa565b604051630b77880d60e31b8152600481018290523060248201529091506000906001600160a01b03861690635bbc4068906044016040805180830381865afa158015610e71573d6000803e3d6000fd5b505050506040513d601f19601f82011682018060405250810190610e959190611869565b604051636ac3bc6b60e11b8152600481018490529091506000906001600160a01b0387169063d58778d6906024016101a060405180830381865afa158015610ee1573d6000803e3d6000fd5b505050506040513d601f19601f82011682018060405250810190610f0591906118e7565b905042866001600160a01b0316631e0250ed6040518163ffffffff1660e01b8152600401602060405180830381865afa158015610f46573d6000803e3d6000fd5b505050506040513d601f19601f82011682018060405250810190610f6a91906119d7565b8360200151610f7991906119f2565b67ffffffffffffffff161115610f955760009350505050610842565b6040810151610180820151825160009291610faf9161181b565b610fb9919061172f565b905085608001516001600160801b0316816001600160801b031610610fe2578560800151610fe4565b805b979650505050505050565b6000610da383836110d0565b604080516001600160a01b038416602482015260448082018490528251808303909101815260649091019091526020810180516001600160e01b031663a9059cbb60e01b17905261104d9084906111ca565b505050565b6000610da3838361129f565b6000610842825490565b6000610da383836112ee565b6060816000018054806020026020016040519081016040528092919081815260200182805480156110c457602002820191906000526020600020905b8154815260200190600101908083116110b0575b50505050509050919050565b600081815260018301602052604081205480156111b95760006110f4600183611a13565b855490915060009061110890600190611a13565b905081811461116d5760008660000182815481106111285761112861183b565b906000526020600020015490508087600001848154811061114b5761114b61183b565b6000918252602080832090910192909255918252600188019052604090208390555b855486908061117e5761117e611a26565b600190038181906000526020600020016000905590558560010160008681526020019081526020016000206000905560019350505050610842565b6000915050610842565b5092915050565b600061121f826040518060400160405280602081526020017f5361666545524332303a206c6f772d6c6576656c2063616c6c206661696c6564815250856001600160a01b03166113189092919063ffffffff16565b90508051600014806112405750808060200190518101906112409190611a3c565b61104d5760405162461bcd60e51b815260206004820152602a60248201527f5361666545524332303a204552433230206f7065726174696f6e20646964206e6044820152691bdd081cdd58d8d9595960b21b606482015260840161047e565b60008181526001830160205260408120546112e657508154600181810184556000848152602080822090930184905584548482528286019093526040902091909155610842565b506000610842565b60008260000182815481106113055761130561183b565b9060005260206000200154905092915050565b6060611327848460008561132f565b949350505050565b6060824710156113905760405162461bcd60e51b815260206004820152602660248201527f416464726573733a20696e73756666696369656e742062616c616e636520666f6044820152651c8818d85b1b60d21b606482015260840161047e565b600080866001600160a01b031685876040516113ac9190611a5e565b60006040518083038185875af1925050503d80600081146113e9576040519150601f19603f3d011682016040523d82523d6000602084013e6113ee565b606091505b5091509150610fe48783838760608315611469578251600003611462576001600160a01b0385163b6114625760405162461bcd60e51b815260206004820152601d60248201527f416464726573733a2063616c6c20746f206e6f6e2d636f6e7472616374000000604482015260640161047e565b5081611327565b611327838381511561147e5781518083602001fd5b8060405162461bcd60e51b815260040161047e91906117c7565b6020808252825182820181905260009190848201906040850190845b818110156114d0578351835292840192918401916001016114b4565b50909695505050505050565b6001600160a01b03811681146114f157600080fd5b50565b6000806040838503121561150757600080fd5b8235611512816114dc565b946020939093013593505050565b60018060a01b0380825116835280602083015116602084015250604081015160020b6040830152606081015160020b60608301526001600160801b0360808201511660808301525050565b60a081016108428284611520565b634e487b7160e01b600052604160045260246000fd5b6040516101a0810167ffffffffffffffff811182821017156115c157634e487b7160e01b600052604160045260246000fd5b60405290565b8035600281900b81146115d957600080fd5b919050565b6001600160801b03811681146114f157600080fd5b60008082840360c081121561160757600080fd5b8335611612816114dc565b925060a0601f198201121561162657600080fd5b5060405160a0810181811067ffffffffffffffff8211171561165857634e487b7160e01b600052604160045260246000fd5b6040526020840135611669816114dc565b81526040840135611679816114dc565b602082015261168a606085016115c7565b604082015261169b608085016115c7565b606082015260a08401356116ae816115de565b6080820152919491935090915050565b6020808252825182820181905260009190848201906040850190845b818110156114d0576116ed838551611520565b9284019260a092909201916001016116da565b60006020828403121561171257600080fd5b5035919050565b634e487b7160e01b600052601160045260246000fd5b6001600160801b038281168282160390808211156111c3576111c3611719565b80516115d9816114dc565b60006020828403121561176c57600080fd5b8151610da3816114dc565b60005b8381101561179257818101518382015260200161177a565b50506000910152565b600081518084526117b3816020860160208601611777565b601f01601f19169290920160200192915050565b602081526000610da3602083018461179b565b6000602082840312156117ec57600080fd5b5051919050565b80516115d9816115de565b60006020828403121561181057600080fd5b8151610da3816115de565b6001600160801b038181168382160190808211156111c3576111c3611719565b634e487b7160e01b600052603260045260246000fd5b805167ffffffffffffffff811681146115d957600080fd5b60006040828403121561187b57600080fd5b6040516040810181811067ffffffffffffffff821117156118ac57634e487b7160e01b600052604160045260246000fd5b60405282516118ba816115de565b81526118c860208401611851565b60208201529392505050565b805162ffffff811681146115d957600080fd5b60006101a082840312156118fa57600080fd5b61190261158f565b61190b836117f3565b8152611919602084016117f3565b602082015261192a604084016117f3565b6040820152606083015160608201526080830151608082015261194f60a084016117f3565b60a082015261196060c084016117f3565b60c082015261197160e08401611851565b60e08201526101006119848185016117f3565b9082015261012061199684820161174f565b908201526101406119a884820161174f565b908201526101606119ba8482016118d4565b908201526101806119cc8482016117f3565b908201529392505050565b6000602082840312156119e957600080fd5b610da382611851565b67ffffffffffffffff8181168382160190808211156111c3576111c3611719565b8181038181111561084257610842611719565b634e487b7160e01b600052603160045260246000fd5b600060208284031215611a4e57600080fd5b81518015158114610da357600080fd5b60008251611a70818460208701611777565b919091019291505056fea2646970667358221220028e29f2c62d2edc964b8f0139a5142326d99899264fc166226b9eae4106ace764736f6c63430008130033a2646970667358221220f52db525044e615bc3480f67912b8cc09541669a4a9144ec41851a620e16ee9e64736f6c63430008130033",
  "devdoc": {
    "author": "Orange Finance",
    "details": "Stryke Handler has reserveCooldown for each user and position id, therefore, to avoid reserve conflict, we have to create a new ReserveHelper for each user.",
    "kind": "dev",
    "methods": {
      "batchReserveLiquidity(address,(address,address,int24,int24,uint128)[])": {
        "details": "Batch reserves liquidity for the given handler and user.to use this function: 1. Create a new reserve helper for the given handler and user. 2. Set the initialized helper as the operator for the handler using `setOperator` function.",
        "params": {
          "handler": "The handler to batch reserve liquidity for.",
          "reserveLiquidityParams": "The parameters for the reserve liquidity."
        },
        "returns": {
          "reservedLiquidities": "The reserved liquidities."
        }
      },
      "batchWithdrawReserveLiquidity(address,uint256[])": {
        "details": "Withdraws the reserved liquidity for the given handler and user. user specifies tokenIds, then helper will withdraw the liquidity for each position.each withdrawable liquidity amount is stored in the helper storage. you can only pass the tokenIds that are stored in the helper storage.tokenIds can be obtained by calling `getReservedTokenIds` function of the helper.",
        "params": {
          "handler": "The handler to withdraw the reserved liquidity for.",
          "tokenIds": "The token ids of the positions to withdraw the reserved liquidity for."
        }
      },
      "createMyReserveHelper()": {
        "details": "Creates a new reserve helper for the given user.",
        "returns": {
          "reserveHelper": "The new reserve helper."
        }
      }
    },
    "title": "ReserveProxy",
    "version": 1
  },
  "userdoc": {
    "kind": "user",
    "methods": {},
    "notice": "Routes the reserve liquidity requests to the correct ReserveHelper.",
    "version": 1
  },
  "storageLayout": {
    "storage": [
      {
        "astId": 10027,
        "contract": "contracts/periphery/reserve-liquidity/ReserveProxy.sol:ReserveProxy",
        "label": "reserveHelpers",
        "offset": 0,
        "slot": "0",
        "type": "t_mapping(t_address,t_contract(ReserveHelper)10007)"
      }
    ],
    "types": {
      "t_address": {
        "encoding": "inplace",
        "label": "address",
        "numberOfBytes": "20"
      },
      "t_contract(ReserveHelper)10007": {
        "encoding": "inplace",
        "label": "contract ReserveHelper",
        "numberOfBytes": "20"
      },
      "t_mapping(t_address,t_contract(ReserveHelper)10007)": {
        "encoding": "mapping",
        "key": "t_address",
        "label": "mapping(address => contract ReserveHelper)",
        "numberOfBytes": "32",
        "value": "t_contract(ReserveHelper)10007"
      }
    }
  }
}