{
  "address": "0xC9c2E288a4eB2733Bc1c0a71f1341cF77D3B5F0c",
  "abi": [
    {
      "inputs": [],
      "name": "T",
      "type": "error"
    },
    {
      "inputs": [
        {
          "internalType": "contract IOrangeStrykeLPAutomatorV2_1",
          "name": "automator",
          "type": "address"
        },
        {
          "internalType": "uint256",
          "name": "shares",
          "type": "uint256"
        }
      ],
      "name": "convertSharesToPairAssets",
      "outputs": [
        {
          "internalType": "uint256",
          "name": "assets",
          "type": "uint256"
        },
        {
          "internalType": "uint256",
          "name": "counterAssets",
          "type": "uint256"
        }
      ],
      "stateMutability": "view",
      "type": "function"
    },
    {
      "inputs": [
        {
          "internalType": "contract IOrangeStrykeLPAutomatorV2_1",
          "name": "automator",
          "type": "address"
        }
      ],
      "name": "freeAssets",
      "outputs": [
        {
          "internalType": "uint256",
          "name": "",
          "type": "uint256"
        }
      ],
      "stateMutability": "view",
      "type": "function"
    },
    {
      "inputs": [
        {
          "internalType": "contract IOrangeStrykeLPAutomatorV2_1",
          "name": "automator",
          "type": "address"
        }
      ],
      "name": "freePoolPositionInToken01",
      "outputs": [
        {
          "internalType": "uint256",
          "name": "sumAmount0",
          "type": "uint256"
        },
        {
          "internalType": "uint256",
          "name": "sumAmount1",
          "type": "uint256"
        }
      ],
      "stateMutability": "view",
      "type": "function"
    },
    {
      "inputs": [
        {
          "internalType": "contract IOrangeStrykeLPAutomatorV2_1",
          "name": "automator",
          "type": "address"
        }
      ],
      "name": "getAutomatorPositions",
      "outputs": [
        {
          "internalType": "uint256",
          "name": "balanceDepositAsset",
          "type": "uint256"
        },
        {
          "internalType": "uint256",
          "name": "balanceCounterAsset",
          "type": "uint256"
        },
        {
          "components": [
            {
              "internalType": "int24",
              "name": "tick",
              "type": "int24"
            },
            {
              "internalType": "uint128",
              "name": "liquidity",
              "type": "uint128"
            }
          ],
          "internalType": "struct IOrangeStrykeLPAutomatorV2_1.RebalanceTick[]",
          "name": "rebalanceTicks",
          "type": "tuple[]"
        }
      ],
      "stateMutability": "view",
      "type": "function"
    },
    {
      "inputs": [
        {
          "internalType": "contract IOrangeStrykeLPAutomatorV2_1",
          "name": "automator",
          "type": "address"
        },
        {
          "internalType": "int24",
          "name": "tick",
          "type": "int24"
        }
      ],
      "name": "getTickAllLiquidity",
      "outputs": [
        {
          "internalType": "uint128",
          "name": "",
          "type": "uint128"
        }
      ],
      "stateMutability": "view",
      "type": "function"
    },
    {
      "inputs": [
        {
          "internalType": "contract IOrangeStrykeLPAutomatorV2_1",
          "name": "automator",
          "type": "address"
        },
        {
          "internalType": "int24",
          "name": "tick",
          "type": "int24"
        }
      ],
      "name": "getTickFreeLiquidity",
      "outputs": [
        {
          "internalType": "uint128",
          "name": "freeLiquidity",
          "type": "uint128"
        }
      ],
      "stateMutability": "view",
      "type": "function"
    }
  ],
  "transactionHash": "0x0234b1a8fc041cd41cb63a459461621e88ad37048328691f29eef4ed23881b55",
  "args": [],
  "numDeployments": 1,
  "solcInputHash": "ebc6d9c78415a33e45406163804fd34f",
  "bytecode": "0x608060405234801561001057600080fd5b50612a1d806100206000396000f3fe608060405234801561001057600080fd5b50600436106100625760003560e01c80632494da9214610067578063365211961461009757806344086bd7146100aa5780637829596a146100d2578063b234c430146100f4578063c3c6ace314610115575b600080fd5b61007a610075366004612488565b610128565b6040516001600160801b0390911681526020015b60405180910390f35b61007a6100a5366004612488565b61047e565b6100bd6100b83660046124c1565b6106f2565b6040805192835260208301919091520161008e565b6100e56100e03660046124c1565b610b98565b60405161008e939291906124de565b6101076101023660046124c1565b610d57565b60405190815260200161008e565b6100bd61012336600461254a565b611249565b600080836001600160a01b031663c80916d46040518163ffffffff1660e01b8152600401602060405180830381865afa158015610169573d6000803e3d6000fd5b505050506040513d601f19601f8201168201806040525081019061018d9190612576565b90506000846001600160a01b031663903c8dd36040518163ffffffff1660e01b8152600401602060405180830381865afa1580156101cf573d6000803e3d6000fd5b505050506040513d601f19601f820116820180604052508101906101f39190612576565b6001600160a01b03166316f0115b6040518163ffffffff1660e01b8152600401602060405180830381865afa158015610230573d6000803e3d6000fd5b505050506040513d601f19601f820116820180604052508101906102549190612576565b90506000856001600160a01b031663c05e21566040518163ffffffff1660e01b8152600401602060405180830381865afa158015610296573d6000803e3d6000fd5b505050506040513d601f19601f820116820180604052508101906102ba9190612576565b90506000866001600160a01b0316637164cf9b6040518163ffffffff1660e01b8152600401602060405180830381865afa1580156102fc573d6000803e3d6000fd5b505050506040513d601f19601f8201168201806040525081019061032091906125a3565b905060006001600160a01b03851662fdd58e8961035687878c61034389826125d6565b6001600160a01b038d16939291906115db565b6040516001600160e01b031960e085901b1681526001600160a01b0390921660048301526024820152604401602060405180830381865afa15801561039f573d6000803e3d6000fd5b505050506040513d601f19601f820116820180604052508101906103c391906125fb565b9050806000036103db57600095505050505050610478565b846001600160a01b03166328daa1176103f383611632565b61040387878c61034389826125d6565b6040516001600160e01b031960e085901b1681526001600160801b0390921660048301526024820152604401602060405180830381865afa15801561044c573d6000803e3d6000fd5b505050506040513d601f19601f82011682018060405250810190610470919061262b565b955050505050505b92915050565b600080836001600160a01b031663c80916d46040518163ffffffff1660e01b8152600401602060405180830381865afa1580156104bf573d6000803e3d6000fd5b505050506040513d601f19601f820116820180604052508101906104e39190612576565b90506000846001600160a01b031663903c8dd36040518163ffffffff1660e01b8152600401602060405180830381865afa158015610525573d6000803e3d6000fd5b505050506040513d601f19601f820116820180604052508101906105499190612576565b6001600160a01b03166316f0115b6040518163ffffffff1660e01b8152600401602060405180830381865afa158015610586573d6000803e3d6000fd5b505050506040513d601f19601f820116820180604052508101906105aa9190612576565b90506000856001600160a01b031663c05e21566040518163ffffffff1660e01b8152600401602060405180830381865afa1580156105ec573d6000803e3d6000fd5b505050506040513d601f19601f820116820180604052508101906106109190612576565b90506000866001600160a01b0316637164cf9b6040518163ffffffff1660e01b8152600401602060405180830381865afa158015610652573d6000803e3d6000fd5b505050506040513d601f19601f8201168201806040525081019061067691906125a3565b90506106e26040518060c00160405280866001600160a01b03168152602001856001600160a01b03168152602001846001600160a01b031681526020018860020b815260200183896106c891906125d6565b60020b8152602001896001600160a01b03168152506116a3565b50919a9950505050505050505050565b6000806000836001600160a01b031663c80916d46040518163ffffffff1660e01b8152600401602060405180830381865afa158015610735573d6000803e3d6000fd5b505050506040513d601f19601f820116820180604052508101906107599190612576565b9050806001600160a01b0316635c975abb6040518163ffffffff1660e01b8152600401602060405180830381865afa158015610799573d6000803e3d6000fd5b505050506040513d601f19601f820116820180604052508101906107bd9190612656565b156107ce5750600093849350915050565b6000846001600160a01b031663903c8dd36040518163ffffffff1660e01b8152600401602060405180830381865afa15801561080e573d6000803e3d6000fd5b505050506040513d601f19601f820116820180604052508101906108329190612576565b90506000856001600160a01b031663c05e21566040518163ffffffff1660e01b8152600401602060405180830381865afa158015610874573d6000803e3d6000fd5b505050506040513d601f19601f820116820180604052508101906108989190612576565b90506000866001600160a01b031663346ac01f6040518163ffffffff1660e01b8152600401600060405180830381865afa1580156108da573d6000803e3d6000fd5b505050506040513d6000823e601f3d908101601f1916820160405261090291908101906126e2565b90506000876001600160a01b0316637164cf9b6040518163ffffffff1660e01b8152600401602060405180830381865afa158015610944573d6000803e3d6000fd5b505050506040513d601f19601f8201168201806040525081019061096891906125a3565b8251909150610975612404565b6000866001600160a01b0316633850c7bd6040518163ffffffff1660e01b815260040160e060405180830381865afa1580156109b5573d6000803e3d6000fd5b505050506040513d601f19601f820116820180604052508101906109d9919061279a565b505050505050905060005b83811015610b8a578581815181106109fe576109fe61282d565b60209081029190910181015160020b908401819052610a1e9086906125d6565b836040019060020b908160020b81525050610af76040518060c001604052808b6001600160a01b031681526020018a6001600160a01b03166316f0115b6040518163ffffffff1660e01b8152600401602060405180830381865afa158015610a8a573d6000803e3d6000fd5b505050506040513d601f19601f82011682018060405250810190610aae9190612576565b6001600160a01b03168152602001896001600160a01b03168152602001856020015160020b8152602001856040015160020b81526020018e6001600160a01b03168152506116a3565b60c088015260a0870152506001600160801b03168452506020830151610b3c908390610b259060020b611944565b610b35866040015160020b611944565b8651611c67565b60808501526060840181905260a0840151610b5691612843565b610b60908c612843565b9a508260c001518360800151610b769190612843565b610b80908b612843565b99506001016109e4565b505050505050505050915091565b6000806060610ba684611d03565b90506000846001600160a01b03166338d52e0f6040518163ffffffff1660e01b8152600401602060405180830381865afa158015610be8573d6000803e3d6000fd5b505050506040513d601f19601f82011682018060405250810190610c0c9190612576565b90506000856001600160a01b031663eba08b2a6040518163ffffffff1660e01b8152600401602060405180830381865afa158015610c4e573d6000803e3d6000fd5b505050506040513d601f19601f82011682018060405250810190610c729190612576565b6040516370a0823160e01b81526001600160a01b038881166004830152919250908316906370a0823190602401602060405180830381865afa158015610cbc573d6000803e3d6000fd5b505050506040513d601f19601f82011682018060405250810190610ce091906125fb565b6040516370a0823160e01b81526001600160a01b0388811660048301528316906370a0823190602401602060405180830381865afa158015610d26573d6000803e3d6000fd5b505050506040513d601f19601f82011682018060405250810190610d4a91906125fb565b9450945050509193909250565b6000806000610d65846106f2565b915091506000846001600160a01b03166338d52e0f6040518163ffffffff1660e01b8152600401602060405180830381865afa158015610da9573d6000803e3d6000fd5b505050506040513d601f19601f82011682018060405250810190610dcd9190612576565b90506000856001600160a01b031663eba08b2a6040518163ffffffff1660e01b8152600401602060405180830381865afa158015610e0f573d6000803e3d6000fd5b505050506040513d601f19601f82011682018060405250810190610e339190612576565b6040516370a0823160e01b81526001600160a01b0388811660048301529192506000918291908416906370a0823190602401602060405180830381865afa158015610e82573d6000803e3d6000fd5b505050506040513d601f19601f82011682018060405250810190610ea691906125fb565b6040516370a0823160e01b81526001600160a01b038a811660048301528616906370a0823190602401602060405180830381865afa158015610eec573d6000803e3d6000fd5b505050506040513d601f19601f82011682018060405250810190610f1091906125fb565b91509150876001600160a01b031663903c8dd36040518163ffffffff1660e01b8152600401602060405180830381865afa158015610f52573d6000803e3d6000fd5b505050506040513d601f19601f82011682018060405250810190610f769190612576565b6001600160a01b0316630dfe16816040518163ffffffff1660e01b8152600401602060405180830381865afa158015610fb3573d6000803e3d6000fd5b505050506040513d601f19601f82011682018060405250810190610fd79190612576565b6001600160a01b0316846001600160a01b03160361100c57610ff98583612843565b91506110058682612843565b9050611025565b6110168683612843565b91506110228582612843565b90505b876001600160a01b031663c6bbd5a76040518163ffffffff1660e01b8152600401602060405180830381865afa158015611063573d6000803e3d6000fd5b505050506040513d601f19601f820116820180604052508101906110879190612576565b6001600160a01b031663b524aa2a6040518060a00160405280866001600160a01b03168152602001876001600160a01b031681526020018581526020018b6001600160a01b031663863776e56040518163ffffffff1660e01b8152600401602060405180830381865afa158015611102573d6000803e3d6000fd5b505050506040513d601f19601f820116820180604052508101906111269190612576565b6001600160a01b031681526020018b6001600160a01b0316634f3f6c926040518163ffffffff1660e01b8152600401602060405180830381865afa158015611172573d6000803e3d6000fd5b505050506040513d601f19601f820116820180604052508101906111969190612576565b6001600160a01b03908116909152604080516001600160e01b031960e086901b16815283518316600482015260208401518316602482015290830151604482015260608301518216606482015260809092015116608482015260a401602060405180830381865afa15801561120f573d6000803e3d6000fd5b505050506040513d601f19601f8201168201806040525081019061123391906125fb565b61123d9082612843565b98975050505050505050565b600080600080856001600160a01b031663903c8dd36040518163ffffffff1660e01b8152600401602060405180830381865afa15801561128d573d6000803e3d6000fd5b505050506040513d601f19601f820116820180604052508101906112b19190612576565b6001600160a01b0316630dfe16816040518163ffffffff1660e01b8152600401602060405180830381865afa1580156112ee573d6000803e3d6000fd5b505050506040513d601f19601f820116820180604052508101906113129190612576565b866001600160a01b031663903c8dd36040518163ffffffff1660e01b8152600401602060405180830381865afa158015611350573d6000803e3d6000fd5b505050506040513d601f19601f820116820180604052508101906113749190612576565b6001600160a01b031663d21220a76040518163ffffffff1660e01b8152600401602060405180830381865afa1580156113b1573d6000803e3d6000fd5b505050506040513d601f19601f820116820180604052508101906113d59190612576565b915091506000806113e5886106f2565b6040516370a0823160e01b81526001600160a01b038b811660048301529294509092506000918291908716906370a0823190602401602060405180830381865afa158015611437573d6000803e3d6000fd5b505050506040513d601f19601f8201168201806040525081019061145b91906125fb565b6040516370a0823160e01b81526001600160a01b038c811660048301528716906370a0823190602401602060405180830381865afa1580156114a1573d6000803e3d6000fd5b505050506040513d601f19601f820116820180604052508101906114c591906125fb565b909250905061153f6114d78386612843565b8a8c6001600160a01b03166318160ddd6040518163ffffffff1660e01b8152600401602060405180830381865afa158015611516573d6000803e3d6000fd5b505050506040513d601f19601f8201168201806040525081019061153a91906125fb565b612191565b975061154e6114d78285612843565b9650896001600160a01b03166338d52e0f6040518163ffffffff1660e01b8152600401602060405180830381865afa15801561158e573d6000803e3d6000fd5b505050506040513d601f19601f820116820180604052508101906115b29190612576565b6001600160a01b0316856001600160a01b0316036115ce579596955b5050505050509250929050565b604080516001600160a01b0396871660208083019190915295871681830152939095166060840152600291820b6080840152900b60a0808301919091528351808303909101815260c0909101909252815191012090565b60006001600160801b0382111561169f5760405162461bcd60e51b815260206004820152602760248201527f53616665436173743a2076616c756520646f65736e27742066697420696e20316044820152663238206269747360c81b606482015260840160405180910390fd5b5090565b6000806000806000806116cd8760000151886020015189604001518a606001518b608001516115db565b875160a0890151604051627eeac760e11b81526001600160a01b0391821660048201526024810184905292935060009291169062fdd58e90604401602060405180830381865afa158015611725573d6000803e3d6000fd5b505050506040513d601f19601f8201168201806040525081019061174991906125fb565b90508060000361176c57600080600080600096509650965096509650505061193b565b8751604051636ac3bc6b60e11b8152600481018490526000916001600160a01b03169063d58778d6906024016101a060405180830381865afa1580156117b6573d6000803e3d6000fd5b505050506040513d601f19601f820116820180604052508101906117da9190612881565b89516040516328daa11760e01b81526001600160801b0385166004820152602481018690529192506001600160a01b0316906328daa11790604401602060405180830381865afa158015611832573d6000803e3d6000fd5b505050506040513d601f19601f82011682018060405250810190611856919061262b565b9750600081604001516001600160801b031682600001516001600160801b031610611891576040820151825161188c9190612971565b611894565b60005b905081600001516001600160801b0316896001600160801b03161180156118c457506000816001600160801b0316115b156118d7576118d4600182612971565b90505b806001600160801b0316896001600160801b0316116118f7576000611901565b611901818a612971565b965061190d878a612971565b97506119318a606001518b6080015184600001518b8660a001518760c00151612244565b9096509450505050505b91939590929450565b60008060008360020b1261195b578260020b611963565b8260020b6000035b9050620d89e8811115611989576040516315e4079d60e11b815260040160405180910390fd5b6000816001166000036119a057600160801b6119b2565b6ffffcb933bd6fad37aa2d162d1a5940015b70ffffffffffffffffffffffffffffffffff16905060028216156119e6576ffff97272373d413259a46990580e213a0260801c5b6004821615611a05576ffff2e50f5f656932ef12357cf3c7fdcc0260801c5b6008821615611a24576fffe5caca7e10e4e61c3624eaa0941cd00260801c5b6010821615611a43576fffcb9843d60f6159c9db58835c9266440260801c5b6020821615611a62576fff973b41fa98c081472e6896dfb254c00260801c5b6040821615611a81576fff2ea16466c96a3843ec78b326b528610260801c5b6080821615611aa0576ffe5dee046a99a2a811c461f1969c30530260801c5b610100821615611ac0576ffcbe86c7900a88aedcffc83b479aa3a40260801c5b610200821615611ae0576ff987a7253ac413176f2b074cf7815e540260801c5b610400821615611b00576ff3392b0822b70005940c7a398e4b70f30260801c5b610800821615611b20576fe7159475a2c29b7443b29c7fa6e889d90260801c5b611000821615611b40576fd097f3bdfd2022b8845ad8f792aa58250260801c5b612000821615611b60576fa9f746462d870fdf8a65dc1f90e061e50260801c5b614000821615611b80576f70d869a156d2a1b890bb3df62baf32f70260801c5b618000821615611ba0576f31be135f97d08fd981231505542fcfa60260801c5b62010000821615611bc1576f09aa508b5b7a84e1c677de54f3e99bc90260801c5b62020000821615611be1576e5d6af8dedb81196699c329225ee6040260801c5b62040000821615611c00576d2216e584f5fa1ea926041bedfe980260801c5b62080000821615611c1d576b048a170391f7dc42444e8fa20260801c5b60008460020b1315611c3e578060001981611c3a57611c3a612998565b0490505b640100000000810615611c52576001611c55565b60005b60ff16602082901c0192505050919050565b600080836001600160a01b0316856001600160a01b03161115611c88579293925b846001600160a01b0316866001600160a01b031611611cb357611cac85858561234a565b9150611cfa565b836001600160a01b0316866001600160a01b03161015611cec57611cd886858561234a565b9150611ce58587856123b9565b9050611cfa565b611cf78585856123b9565b90505b94509492505050565b60606000826001600160a01b031663903c8dd36040518163ffffffff1660e01b8152600401602060405180830381865afa158015611d45573d6000803e3d6000fd5b505050506040513d601f19601f82011682018060405250810190611d699190612576565b6001600160a01b03166316f0115b6040518163ffffffff1660e01b8152600401602060405180830381865afa158015611da6573d6000803e3d6000fd5b505050506040513d601f19601f82011682018060405250810190611dca9190612576565b90506000836001600160a01b031663c80916d46040518163ffffffff1660e01b8152600401602060405180830381865afa158015611e0c573d6000803e3d6000fd5b505050506040513d601f19601f82011682018060405250810190611e309190612576565b90506000846001600160a01b031663c05e21566040518163ffffffff1660e01b8152600401602060405180830381865afa158015611e72573d6000803e3d6000fd5b505050506040513d601f19601f82011682018060405250810190611e969190612576565b90506000856001600160a01b0316637164cf9b6040518163ffffffff1660e01b8152600401602060405180830381865afa158015611ed8573d6000803e3d6000fd5b505050506040513d601f19601f82011682018060405250810190611efc91906125a3565b90506000866001600160a01b031663346ac01f6040518163ffffffff1660e01b8152600401600060405180830381865afa158015611f3e573d6000803e3d6000fd5b505050506040513d6000823e601f3d908101601f19168201604052611f6691908101906126e2565b80519091506000611f75612404565b8267ffffffffffffffff811115611f8e57611f8e612671565b604051908082528060200260200182016040528015611fd357816020015b6040805180820190915260008082526020820152815260200190600190039081611fac5790505b50985060005b8381101561218357848181518110611ff357611ff361282d565b60209081029190910181015160020b9083018190526120139087906125d6565b60020b60408301819052602083015161203b916001600160a01b038b16918c918b91906115db565b604051627eeac760e11b81526001600160a01b038d8116600483015260248201839052919450908916906328daa117906120bf90839062fdd58e90604401602060405180830381865afa158015612096573d6000803e3d6000fd5b505050506040513d601f19601f820116820180604052508101906120ba91906125fb565b611632565b6040516001600160e01b031960e084901b1681526001600160801b03909116600482015260248101869052604401602060405180830381865afa15801561210a573d6000803e3d6000fd5b505050506040513d601f19601f8201168201806040525081019061212e919061262b565b6001600160801b0390811683526040805180820190915260208085015160020b82528451909216918101919091528a518b90839081106121705761217061282d565b6020908102919091010152600101611fd9565b505050505050505050919050565b60008080600019858709858702925082811083820303915050806000036121ca57600084116121bf57600080fd5b50829004905061223d565b8084116121d657600080fd5b6000848688096000868103871696879004966002600389028118808a02820302808a02820302808a02820302808a02820302808a02820302808a02909103029181900381900460010186841190950394909402919094039290920491909117919091029150505b9392505050565b600080600061226a6122588a60020b611944565b6122648a60020b611944565b8961234a565b9050600061228f61227d8b60020b611944565b6122898b60020b611944565b8a6123b9565b905060006122b46122a28c60020b611944565b6122ae8c60020b611944565b8a61234a565b905060006122d96122c78d60020b611944565b6122d38d60020b611944565b8b6123b9565b9050831561230b57836122f5836001600160801b038b166129ae565b6122ff91906129c5565b6001600160801b031695505b821561233b5782612325826001600160801b038a166129ae565b61232f91906129c5565b6001600160801b031694505b50505050965096945050505050565b6000826001600160a01b0316846001600160a01b0316111561236a579192915b836001600160a01b03166123a3606060ff16846001600160801b0316901b8686036001600160a01b0316866001600160a01b0316612191565b816123b0576123b0612998565b04949350505050565b6000826001600160a01b0316846001600160a01b031611156123d9579192915b6123fc826001600160801b03168585036001600160a01b0316600160601b612191565b949350505050565b60405180610100016040528060006001600160801b03168152602001600060020b8152602001600060020b81526020016000815260200160008152602001600081526020016000815260200160006001600160a01b031681525090565b6001600160a01b038116811461247657600080fd5b50565b8060020b811461247657600080fd5b6000806040838503121561249b57600080fd5b82356124a681612461565b915060208301356124b681612479565b809150509250929050565b6000602082840312156124d357600080fd5b813561223d81612461565b600060608201858352602085818501526040606081860152828651808552608087019150838801945060005b8181101561253b578551805160020b84528501516001600160801b031685840152948401949183019160010161250a565b50909998505050505050505050565b6000806040838503121561255d57600080fd5b823561256881612461565b946020939093013593505050565b60006020828403121561258857600080fd5b815161223d81612461565b805161259e81612461565b919050565b6000602082840312156125b557600080fd5b815161223d81612479565b634e487b7160e01b600052601160045260246000fd5b600281810b9083900b01627fffff8113627fffff1982121715610478576104786125c0565b60006020828403121561260d57600080fd5b5051919050565b80516001600160801b038116811461259e57600080fd5b60006020828403121561263d57600080fd5b61223d82612614565b8051801515811461259e57600080fd5b60006020828403121561266857600080fd5b61223d82612646565b634e487b7160e01b600052604160045260246000fd5b6040516101a0810167ffffffffffffffff811182821017156126ab576126ab612671565b60405290565b604051601f8201601f1916810167ffffffffffffffff811182821017156126da576126da612671565b604052919050565b600060208083850312156126f557600080fd5b825167ffffffffffffffff8082111561270d57600080fd5b818501915085601f83011261272157600080fd5b81518181111561273357612733612671565b8060051b91506127448483016126b1565b818152918301840191848101908884111561275e57600080fd5b938501935b8385101561123d578451925061277883612479565b8282529385019390850190612763565b805161ffff8116811461259e57600080fd5b600080600080600080600060e0888a0312156127b557600080fd5b87516127c081612461565b60208901519097506127d181612479565b95506127df60408901612788565b94506127ed60608901612788565b93506127fb60808901612788565b925060a088015160ff8116811461281157600080fd5b915061281f60c08901612646565b905092959891949750929550565b634e487b7160e01b600052603260045260246000fd5b80820180821115610478576104786125c0565b805167ffffffffffffffff8116811461259e57600080fd5b805162ffffff8116811461259e57600080fd5b60006101a0828403121561289457600080fd5b61289c612687565b6128a583612614565b81526128b360208401612614565b60208201526128c460408401612614565b604082015260608301516060820152608083015160808201526128e960a08401612614565b60a08201526128fa60c08401612614565b60c082015261290b60e08401612856565b60e082015261010061291e818501612614565b90820152610120612930848201612593565b90820152610140612942848201612593565b9082015261016061295484820161286e565b90820152610180612966848201612614565b908201529392505050565b6001600160801b03828116828216039080821115612991576129916125c0565b5092915050565b634e487b7160e01b600052601260045260246000fd5b8082028115828204841417610478576104786125c0565b6000826129e257634e487b7160e01b600052601260045260246000fd5b50049056fea264697066735822122050be5687fd276ef81e940c857c26fdeff4bdfbef0b2cd861bd3591335565958264736f6c63430008130033",
  "devdoc": {
    "kind": "dev",
    "methods": {
      "freeAssets(address)": {
        "details": "Calculates the total free assets in Dopex pools and returns the sum. Free assets are the assets that can be redeemed from the pools. This function iterates through the active ticks in the pool and calculates the liquidity that can be redeemed for each tick. It then converts the liquidity to token amounts using the current sqrt ratio and tick values. The sum of token amounts is calculated and merged with the total assets in the automator. Finally, the quote value is obtained using the current tick and the base value, and returned as the result.",
        "returns": {
          "_0": "The total free assets in Dopex pools."
        }
      },
      "freePoolPositionInToken01(address)": {
        "details": "Retrieves the total free liquidity in token0 and token1 in the pool.",
        "params": {
          "automator": "The automator contract."
        },
        "returns": {
          "sumAmount0": "The total free liquidity in token0.",
          "sumAmount1": "The total free liquidity in token1."
        }
      },
      "getAutomatorPositions(address)": {
        "details": "Retrieves the positions of the automator.",
        "returns": {
          "balanceCounterAsset": "The balance of the counter asset.",
          "balanceDepositAsset": "The balance of the deposit asset.",
          "rebalanceTicks": "An array of structs representing the active ticks and its liquidity."
        }
      },
      "getTickAllLiquidity(address,int24)": {
        "details": "Retrieves the total liquidity of a given tick range.",
        "params": {
          "tick": "The tick value representing the range."
        },
        "returns": {
          "_0": "The total liquidity of the tick range."
        }
      },
      "getTickFreeLiquidity(address,int24)": {
        "details": "Retrieves the amount of free liquidity for a given tick.",
        "params": {
          "tick": "The tick value for which to retrieve the free liquidity."
        },
        "returns": {
          "freeLiquidity": "The amount of free liquidity for the specified tick."
        }
      }
    },
    "version": 1
  },
  "userdoc": {
    "kind": "user",
    "methods": {},
    "version": 1
  },
  "storageLayout": {
    "storage": [],
    "types": null
  }
}