{
  "address": "0x3476204501b8CD23a95E1cFD4844918c27CA9a47",
  "abi": [
    {
      "inputs": [],
      "name": "T",
      "type": "error"
    },
    {
      "inputs": [
        {
          "internalType": "contract IOrangeStrykeLPAutomatorState",
          "name": "automator",
          "type": "address"
        },
        {
          "internalType": "uint256",
          "name": "shares",
          "type": "uint256"
        }
      ],
      "name": "convertSharesToPairAssets",
      "outputs": [
        {
          "internalType": "uint256",
          "name": "assets",
          "type": "uint256"
        },
        {
          "internalType": "uint256",
          "name": "counterAssets",
          "type": "uint256"
        }
      ],
      "stateMutability": "view",
      "type": "function"
    },
    {
      "inputs": [
        {
          "internalType": "contract IOrangeStrykeLPAutomatorState",
          "name": "automator",
          "type": "address"
        }
      ],
      "name": "freeAssets",
      "outputs": [
        {
          "internalType": "uint256",
          "name": "",
          "type": "uint256"
        }
      ],
      "stateMutability": "view",
      "type": "function"
    },
    {
      "inputs": [
        {
          "internalType": "contract IOrangeStrykeLPAutomatorState",
          "name": "automator",
          "type": "address"
        }
      ],
      "name": "freePoolPositionInToken01",
      "outputs": [
        {
          "internalType": "uint256",
          "name": "sumAmount0",
          "type": "uint256"
        },
        {
          "internalType": "uint256",
          "name": "sumAmount1",
          "type": "uint256"
        }
      ],
      "stateMutability": "view",
      "type": "function"
    },
    {
      "inputs": [
        {
          "internalType": "contract IOrangeStrykeLPAutomatorState",
          "name": "automator",
          "type": "address"
        }
      ],
      "name": "getAutomatorPositions",
      "outputs": [
        {
          "internalType": "uint256",
          "name": "balanceDepositAsset",
          "type": "uint256"
        },
        {
          "internalType": "uint256",
          "name": "balanceCounterAsset",
          "type": "uint256"
        },
        {
          "components": [
            {
              "internalType": "int24",
              "name": "tick",
              "type": "int24"
            },
            {
              "internalType": "uint128",
              "name": "liquidity",
              "type": "uint128"
            }
          ],
          "internalType": "struct IOrangeStrykeLPAutomatorState.RebalanceTickInfo[]",
          "name": "rebalanceTicks",
          "type": "tuple[]"
        }
      ],
      "stateMutability": "view",
      "type": "function"
    },
    {
      "inputs": [
        {
          "internalType": "contract IOrangeStrykeLPAutomatorState",
          "name": "automator",
          "type": "address"
        },
        {
          "internalType": "int24",
          "name": "tick",
          "type": "int24"
        }
      ],
      "name": "getTickAllLiquidity",
      "outputs": [
        {
          "internalType": "uint128",
          "name": "",
          "type": "uint128"
        }
      ],
      "stateMutability": "view",
      "type": "function"
    },
    {
      "inputs": [
        {
          "internalType": "contract IOrangeStrykeLPAutomatorState",
          "name": "automator",
          "type": "address"
        },
        {
          "internalType": "int24",
          "name": "tick",
          "type": "int24"
        }
      ],
      "name": "getTickFreeLiquidity",
      "outputs": [
        {
          "internalType": "uint128",
          "name": "freeLiquidity",
          "type": "uint128"
        }
      ],
      "stateMutability": "view",
      "type": "function"
    }
  ],
  "transactionHash": "0xe262803563a5ec73628673dc6f625e2d33a0ecba0e9137ef7966a79c02e26363",
  "args": [],
  "numDeployments": 1,
  "solcInputHash": "018b9005395a336481360228fbaf8669",
  "bytecode": "0x608060405234801561001057600080fd5b506126fc806100206000396000f3fe608060405234801561001057600080fd5b50600436106100625760003560e01c80632494da9214610067578063365211961461009757806344086bd7146100aa5780637829596a146100d2578063b234c430146100f4578063c3c6ace314610115575b600080fd5b61007a6100753660046121a0565b610128565b6040516001600160801b0390911681526020015b60405180910390f35b61007a6100a53660046121a0565b61041d565b6100bd6100b83660046121d9565b6105fe565b6040805192835260208301919091520161008e565b6100e56100e03660046121d9565b610a0a565b60405161008e939291906121f6565b6101076101023660046121d9565b610bc9565b60405190815260200161008e565b6100bd610123366004612262565b6110bb565b600080836001600160a01b031663c80916d46040518163ffffffff1660e01b8152600401602060405180830381865afa158015610169573d6000803e3d6000fd5b505050506040513d601f19601f8201168201806040525081019061018d919061228e565b90506000846001600160a01b03166316f0115b6040518163ffffffff1660e01b8152600401602060405180830381865afa1580156101cf573d6000803e3d6000fd5b505050506040513d601f19601f820116820180604052508101906101f3919061228e565b90506000856001600160a01b031663c05e21566040518163ffffffff1660e01b8152600401602060405180830381865afa158015610235573d6000803e3d6000fd5b505050506040513d601f19601f82011682018060405250810190610259919061228e565b90506000866001600160a01b0316637164cf9b6040518163ffffffff1660e01b8152600401602060405180830381865afa15801561029b573d6000803e3d6000fd5b505050506040513d601f19601f820116820180604052508101906102bf91906122bb565b905060006001600160a01b03851662fdd58e896102f587878c6102e289826122ee565b6001600160a01b038d169392919061144d565b6040516001600160e01b031960e085901b1681526001600160a01b0390921660048301526024820152604401602060405180830381865afa15801561033e573d6000803e3d6000fd5b505050506040513d601f19601f820116820180604052508101906103629190612313565b90508060000361037a57600095505050505050610417565b846001600160a01b03166328daa117610392836114a4565b6103a287878c6102e289826122ee565b6040516001600160e01b031960e085901b1681526001600160801b0390921660048301526024820152604401602060405180830381865afa1580156103eb573d6000803e3d6000fd5b505050506040513d601f19601f8201168201806040525081019061040f9190612343565b955050505050505b92915050565b600080836001600160a01b031663c80916d46040518163ffffffff1660e01b8152600401602060405180830381865afa15801561045e573d6000803e3d6000fd5b505050506040513d601f19601f82011682018060405250810190610482919061228e565b90506000846001600160a01b03166316f0115b6040518163ffffffff1660e01b8152600401602060405180830381865afa1580156104c4573d6000803e3d6000fd5b505050506040513d601f19601f820116820180604052508101906104e8919061228e565b90506000856001600160a01b031663c05e21566040518163ffffffff1660e01b8152600401602060405180830381865afa15801561052a573d6000803e3d6000fd5b505050506040513d601f19601f8201168201806040525081019061054e919061228e565b90506000866001600160a01b0316637164cf9b6040518163ffffffff1660e01b8152600401602060405180830381865afa158015610590573d6000803e3d6000fd5b505050506040513d601f19601f820116820180604052508101906105b491906122bb565b90506105ee876105dd85858a6105ca87826122ee565b6001600160a01b038b169392919061144d565b6001600160a01b0387169190611515565b50919a9950505050505050505050565b6000806000836001600160a01b031663c80916d46040518163ffffffff1660e01b8152600401602060405180830381865afa158015610641573d6000803e3d6000fd5b505050506040513d601f19601f82011682018060405250810190610665919061228e565b9050806001600160a01b0316635c975abb6040518163ffffffff1660e01b8152600401602060405180830381865afa1580156106a5573d6000803e3d6000fd5b505050506040513d601f19601f820116820180604052508101906106c9919061236e565b156106da5750600093849350915050565b6000846001600160a01b03166316f0115b6040518163ffffffff1660e01b8152600401602060405180830381865afa15801561071a573d6000803e3d6000fd5b505050506040513d601f19601f8201168201806040525081019061073e919061228e565b90506000856001600160a01b031663c05e21566040518163ffffffff1660e01b8152600401602060405180830381865afa158015610780573d6000803e3d6000fd5b505050506040513d601f19601f820116820180604052508101906107a4919061228e565b90506000866001600160a01b031663346ac01f6040518163ffffffff1660e01b8152600401600060405180830381865afa1580156107e6573d6000803e3d6000fd5b505050506040513d6000823e601f3d908101601f1916820160405261080e91908101906123fa565b90506000876001600160a01b0316637164cf9b6040518163ffffffff1660e01b8152600401602060405180830381865afa158015610850573d6000803e3d6000fd5b505050506040513d601f19601f8201168201806040525081019061087491906122bb565b825190915061088161211c565b6000866001600160a01b0316633850c7bd6040518163ffffffff1660e01b815260040160e060405180830381865afa1580156108c1573d6000803e3d6000fd5b505050506040513d601f19601f820116820180604052508101906108e591906124b2565b505050505050905060005b838110156109fc5785818151811061090a5761090a612545565b60209081029190910181015160020b90840181905261092a9086906122ee565b60020b604084018190526020840151610969918e91610958916001600160a01b038e16918d918d919061144d565b6001600160a01b038c169190611515565b60c088015260a0870152506001600160801b031684525060208301516109ae9083906109979060020b6117c3565b6109a7866040015160020b6117c3565b8651611ae6565b60808501526060840181905260a08401516109c89161255b565b6109d2908c61255b565b9a508260c0015183608001516109e8919061255b565b6109f2908b61255b565b99506001016108f0565b505050505050505050915091565b6000806060610a1884611b82565b90506000846001600160a01b03166338d52e0f6040518163ffffffff1660e01b8152600401602060405180830381865afa158015610a5a573d6000803e3d6000fd5b505050506040513d601f19601f82011682018060405250810190610a7e919061228e565b90506000856001600160a01b031663eba08b2a6040518163ffffffff1660e01b8152600401602060405180830381865afa158015610ac0573d6000803e3d6000fd5b505050506040513d601f19601f82011682018060405250810190610ae4919061228e565b6040516370a0823160e01b81526001600160a01b038881166004830152919250908316906370a0823190602401602060405180830381865afa158015610b2e573d6000803e3d6000fd5b505050506040513d601f19601f82011682018060405250810190610b529190612313565b6040516370a0823160e01b81526001600160a01b0388811660048301528316906370a0823190602401602060405180830381865afa158015610b98573d6000803e3d6000fd5b505050506040513d601f19601f82011682018060405250810190610bbc9190612313565b9450945050509193909250565b6000806000610bd7846105fe565b915091506000846001600160a01b03166338d52e0f6040518163ffffffff1660e01b8152600401602060405180830381865afa158015610c1b573d6000803e3d6000fd5b505050506040513d601f19601f82011682018060405250810190610c3f919061228e565b90506000856001600160a01b031663eba08b2a6040518163ffffffff1660e01b8152600401602060405180830381865afa158015610c81573d6000803e3d6000fd5b505050506040513d601f19601f82011682018060405250810190610ca5919061228e565b6040516370a0823160e01b81526001600160a01b0388811660048301529192506000918291908416906370a0823190602401602060405180830381865afa158015610cf4573d6000803e3d6000fd5b505050506040513d601f19601f82011682018060405250810190610d189190612313565b6040516370a0823160e01b81526001600160a01b038a811660048301528616906370a0823190602401602060405180830381865afa158015610d5e573d6000803e3d6000fd5b505050506040513d601f19601f82011682018060405250810190610d829190612313565b91509150876001600160a01b03166316f0115b6040518163ffffffff1660e01b8152600401602060405180830381865afa158015610dc4573d6000803e3d6000fd5b505050506040513d601f19601f82011682018060405250810190610de8919061228e565b6001600160a01b0316630dfe16816040518163ffffffff1660e01b8152600401602060405180830381865afa158015610e25573d6000803e3d6000fd5b505050506040513d601f19601f82011682018060405250810190610e49919061228e565b6001600160a01b0316846001600160a01b031603610e7e57610e6b858361255b565b9150610e77868261255b565b9050610e97565b610e88868361255b565b9150610e94858261255b565b90505b876001600160a01b031663c6bbd5a76040518163ffffffff1660e01b8152600401602060405180830381865afa158015610ed5573d6000803e3d6000fd5b505050506040513d601f19601f82011682018060405250810190610ef9919061228e565b6001600160a01b031663b524aa2a6040518060a00160405280866001600160a01b03168152602001876001600160a01b031681526020018581526020018b6001600160a01b031663863776e56040518163ffffffff1660e01b8152600401602060405180830381865afa158015610f74573d6000803e3d6000fd5b505050506040513d601f19601f82011682018060405250810190610f98919061228e565b6001600160a01b031681526020018b6001600160a01b0316634f3f6c926040518163ffffffff1660e01b8152600401602060405180830381865afa158015610fe4573d6000803e3d6000fd5b505050506040513d601f19601f82011682018060405250810190611008919061228e565b6001600160a01b03908116909152604080516001600160e01b031960e086901b16815283518316600482015260208401518316602482015290830151604482015260608301518216606482015260809092015116608482015260a401602060405180830381865afa158015611081573d6000803e3d6000fd5b505050506040513d601f19601f820116820180604052508101906110a59190612313565b6110af908261255b565b98975050505050505050565b600080600080856001600160a01b03166316f0115b6040518163ffffffff1660e01b8152600401602060405180830381865afa1580156110ff573d6000803e3d6000fd5b505050506040513d601f19601f82011682018060405250810190611123919061228e565b6001600160a01b0316630dfe16816040518163ffffffff1660e01b8152600401602060405180830381865afa158015611160573d6000803e3d6000fd5b505050506040513d601f19601f82011682018060405250810190611184919061228e565b866001600160a01b03166316f0115b6040518163ffffffff1660e01b8152600401602060405180830381865afa1580156111c2573d6000803e3d6000fd5b505050506040513d601f19601f820116820180604052508101906111e6919061228e565b6001600160a01b031663d21220a76040518163ffffffff1660e01b8152600401602060405180830381865afa158015611223573d6000803e3d6000fd5b505050506040513d601f19601f82011682018060405250810190611247919061228e565b91509150600080611257886105fe565b6040516370a0823160e01b81526001600160a01b038b811660048301529294509092506000918291908716906370a0823190602401602060405180830381865afa1580156112a9573d6000803e3d6000fd5b505050506040513d601f19601f820116820180604052508101906112cd9190612313565b6040516370a0823160e01b81526001600160a01b038c811660048301528716906370a0823190602401602060405180830381865afa158015611313573d6000803e3d6000fd5b505050506040513d601f19601f820116820180604052508101906113379190612313565b90925090506113b1611349838661255b565b8a8c6001600160a01b03166318160ddd6040518163ffffffff1660e01b8152600401602060405180830381865afa158015611388573d6000803e3d6000fd5b505050506040513d601f19601f820116820180604052508101906113ac9190612313565b611faf565b97506113c0611349828561255b565b9650896001600160a01b03166338d52e0f6040518163ffffffff1660e01b8152600401602060405180830381865afa158015611400573d6000803e3d6000fd5b505050506040513d601f19601f82011682018060405250810190611424919061228e565b6001600160a01b0316856001600160a01b031603611440579596955b5050505050509250929050565b604080516001600160a01b0396871660208083019190915295871681830152939095166060840152600291820b6080840152900b60a0808301919091528351808303909101815260c0909101909252815191012090565b60006001600160801b038211156115115760405162461bcd60e51b815260206004820152602760248201527f53616665436173743a2076616c756520646f65736e27742066697420696e20316044820152663238206269747360c81b606482015260840160405180910390fd5b5090565b604051627eeac760e11b81526001600160a01b03838116600483015260248201839052600091829182918291829182918a169062fdd58e90604401602060405180830381865afa15801561156d573d6000803e3d6000fd5b505050506040513d601f19601f820116820180604052508101906115919190612313565b9050806000036115b357600080600080600095509550955095509550506117b8565b604051636ac3bc6b60e11b8152600481018890526000906001600160a01b038b169063d58778d6906024016101a060405180830381865afa1580156115fc573d6000803e3d6000fd5b505050506040513d601f19601f820116820180604052508101906116209190612599565b6040516328daa11760e01b81526001600160801b0384166004820152602481018a90529091506001600160a01b038b16906328daa11790604401602060405180830381865afa158015611677573d6000803e3d6000fd5b505050506040513d601f19601f8201168201806040525081019061169b9190612343565b9650600081604001516001600160801b031682600001516001600160801b0316106116d657604082015182516116d19190612689565b6116d9565b60005b905081600001516001600160801b0316886001600160801b031611801561170957506000816001600160801b0316115b1561171c57611719600182612689565b90505b806001600160801b0316886001600160801b03161161173c576000611746565b6117468189612689565b95506117528689612689565b96506117828260a001516001600160801b0316886001600160801b031684600001516001600160801b0316611faf565b94506117b28260c001516001600160801b0316886001600160801b031684600001516001600160801b0316611faf565b93505050505b939792965093509350565b60008060008360020b126117da578260020b6117e2565b8260020b6000035b9050620d89e8811115611808576040516315e4079d60e11b815260040160405180910390fd5b60008160011660000361181f57600160801b611831565b6ffffcb933bd6fad37aa2d162d1a5940015b70ffffffffffffffffffffffffffffffffff1690506002821615611865576ffff97272373d413259a46990580e213a0260801c5b6004821615611884576ffff2e50f5f656932ef12357cf3c7fdcc0260801c5b60088216156118a3576fffe5caca7e10e4e61c3624eaa0941cd00260801c5b60108216156118c2576fffcb9843d60f6159c9db58835c9266440260801c5b60208216156118e1576fff973b41fa98c081472e6896dfb254c00260801c5b6040821615611900576fff2ea16466c96a3843ec78b326b528610260801c5b608082161561191f576ffe5dee046a99a2a811c461f1969c30530260801c5b61010082161561193f576ffcbe86c7900a88aedcffc83b479aa3a40260801c5b61020082161561195f576ff987a7253ac413176f2b074cf7815e540260801c5b61040082161561197f576ff3392b0822b70005940c7a398e4b70f30260801c5b61080082161561199f576fe7159475a2c29b7443b29c7fa6e889d90260801c5b6110008216156119bf576fd097f3bdfd2022b8845ad8f792aa58250260801c5b6120008216156119df576fa9f746462d870fdf8a65dc1f90e061e50260801c5b6140008216156119ff576f70d869a156d2a1b890bb3df62baf32f70260801c5b618000821615611a1f576f31be135f97d08fd981231505542fcfa60260801c5b62010000821615611a40576f09aa508b5b7a84e1c677de54f3e99bc90260801c5b62020000821615611a60576e5d6af8dedb81196699c329225ee6040260801c5b62040000821615611a7f576d2216e584f5fa1ea926041bedfe980260801c5b62080000821615611a9c576b048a170391f7dc42444e8fa20260801c5b60008460020b1315611abd578060001981611ab957611ab96126b0565b0490505b640100000000810615611ad1576001611ad4565b60005b60ff16602082901c0192505050919050565b600080836001600160a01b0316856001600160a01b03161115611b07579293925b846001600160a01b0316866001600160a01b031611611b3257611b2b858585612062565b9150611b79565b836001600160a01b0316866001600160a01b03161015611b6b57611b57868585612062565b9150611b648587856120d1565b9050611b79565b611b768585856120d1565b90505b94509492505050565b60606000826001600160a01b03166316f0115b6040518163ffffffff1660e01b8152600401602060405180830381865afa158015611bc4573d6000803e3d6000fd5b505050506040513d601f19601f82011682018060405250810190611be8919061228e565b90506000836001600160a01b031663c80916d46040518163ffffffff1660e01b8152600401602060405180830381865afa158015611c2a573d6000803e3d6000fd5b505050506040513d601f19601f82011682018060405250810190611c4e919061228e565b90506000846001600160a01b031663c05e21566040518163ffffffff1660e01b8152600401602060405180830381865afa158015611c90573d6000803e3d6000fd5b505050506040513d601f19601f82011682018060405250810190611cb4919061228e565b90506000856001600160a01b0316637164cf9b6040518163ffffffff1660e01b8152600401602060405180830381865afa158015611cf6573d6000803e3d6000fd5b505050506040513d601f19601f82011682018060405250810190611d1a91906122bb565b90506000866001600160a01b031663346ac01f6040518163ffffffff1660e01b8152600401600060405180830381865afa158015611d5c573d6000803e3d6000fd5b505050506040513d6000823e601f3d908101601f19168201604052611d8491908101906123fa565b80519091506000611d9361211c565b8267ffffffffffffffff811115611dac57611dac612389565b604051908082528060200260200182016040528015611df157816020015b6040805180820190915260008082526020820152815260200190600190039081611dca5790505b50985060005b83811015611fa157848181518110611e1157611e11612545565b60209081029190910181015160020b908301819052611e319087906122ee565b60020b604083018190526020830151611e59916001600160a01b038b16918c918b919061144d565b604051627eeac760e11b81526001600160a01b038d8116600483015260248201839052919450908916906328daa11790611edd90839062fdd58e90604401602060405180830381865afa158015611eb4573d6000803e3d6000fd5b505050506040513d601f19601f82011682018060405250810190611ed89190612313565b6114a4565b6040516001600160e01b031960e084901b1681526001600160801b03909116600482015260248101869052604401602060405180830381865afa158015611f28573d6000803e3d6000fd5b505050506040513d601f19601f82011682018060405250810190611f4c9190612343565b6001600160801b0390811683526040805180820190915260208085015160020b82528451909216918101919091528a518b9083908110611f8e57611f8e612545565b6020908102919091010152600101611df7565b505050505050505050919050565b6000808060001985870985870292508281108382030391505080600003611fe85760008411611fdd57600080fd5b50829004905061205b565b808411611ff457600080fd5b6000848688096000868103871696879004966002600389028118808a02820302808a02820302808a02820302808a02820302808a02820302808a02909103029181900381900460010186841190950394909402919094039290920491909117919091029150505b9392505050565b6000826001600160a01b0316846001600160a01b03161115612082579192915b836001600160a01b03166120bb606060ff16846001600160801b0316901b8686036001600160a01b0316866001600160a01b0316611faf565b816120c8576120c86126b0565b04949350505050565b6000826001600160a01b0316846001600160a01b031611156120f1579192915b612114826001600160801b03168585036001600160a01b0316600160601b611faf565b949350505050565b60405180610100016040528060006001600160801b03168152602001600060020b8152602001600060020b81526020016000815260200160008152602001600081526020016000815260200160006001600160a01b031681525090565b6001600160a01b038116811461218e57600080fd5b50565b8060020b811461218e57600080fd5b600080604083850312156121b357600080fd5b82356121be81612179565b915060208301356121ce81612191565b809150509250929050565b6000602082840312156121eb57600080fd5b813561205b81612179565b600060608201858352602085818501526040606081860152828651808552608087019150838801945060005b81811015612253578551805160020b84528501516001600160801b0316858401529484019491830191600101612222565b50909998505050505050505050565b6000806040838503121561227557600080fd5b823561228081612179565b946020939093013593505050565b6000602082840312156122a057600080fd5b815161205b81612179565b80516122b681612179565b919050565b6000602082840312156122cd57600080fd5b815161205b81612191565b634e487b7160e01b600052601160045260246000fd5b600281810b9083900b01627fffff8113627fffff1982121715610417576104176122d8565b60006020828403121561232557600080fd5b5051919050565b80516001600160801b03811681146122b657600080fd5b60006020828403121561235557600080fd5b61205b8261232c565b805180151581146122b657600080fd5b60006020828403121561238057600080fd5b61205b8261235e565b634e487b7160e01b600052604160045260246000fd5b6040516101a0810167ffffffffffffffff811182821017156123c3576123c3612389565b60405290565b604051601f8201601f1916810167ffffffffffffffff811182821017156123f2576123f2612389565b604052919050565b6000602080838503121561240d57600080fd5b825167ffffffffffffffff8082111561242557600080fd5b818501915085601f83011261243957600080fd5b81518181111561244b5761244b612389565b8060051b915061245c8483016123c9565b818152918301840191848101908884111561247657600080fd5b938501935b838510156110af578451925061249083612191565b828252938501939085019061247b565b805161ffff811681146122b657600080fd5b600080600080600080600060e0888a0312156124cd57600080fd5b87516124d881612179565b60208901519097506124e981612191565b95506124f7604089016124a0565b9450612505606089016124a0565b9350612513608089016124a0565b925060a088015160ff8116811461252957600080fd5b915061253760c0890161235e565b905092959891949750929550565b634e487b7160e01b600052603260045260246000fd5b80820180821115610417576104176122d8565b805167ffffffffffffffff811681146122b657600080fd5b805162ffffff811681146122b657600080fd5b60006101a082840312156125ac57600080fd5b6125b461239f565b6125bd8361232c565b81526125cb6020840161232c565b60208201526125dc6040840161232c565b6040820152606083015160608201526080830151608082015261260160a0840161232c565b60a082015261261260c0840161232c565b60c082015261262360e0840161256e565b60e082015261010061263681850161232c565b908201526101206126488482016122ab565b9082015261014061265a8482016122ab565b9082015261016061266c848201612586565b9082015261018061267e84820161232c565b908201529392505050565b6001600160801b038281168282160390808211156126a9576126a96122d8565b5092915050565b634e487b7160e01b600052601260045260246000fdfea2646970667358221220fd1c360a401abc7e9c859118378143f17513eee46b91ddeb037b42b7f9ec280d64736f6c63430008130033",
  "devdoc": {
    "kind": "dev",
    "methods": {
      "freeAssets(address)": {
        "details": "Calculates the total free assets in Dopex pools and returns the sum. Free assets are the assets that can be redeemed from the pools. This function iterates through the active ticks in the pool and calculates the liquidity that can be redeemed for each tick. It then converts the liquidity to token amounts using the current sqrt ratio and tick values. The sum of token amounts is calculated and merged with the total assets in the automator. Finally, the quote value is obtained using the current tick and the base value, and returned as the result.",
        "returns": {
          "_0": "The total free assets in Dopex pools."
        }
      },
      "freePoolPositionInToken01(address)": {
        "details": "Retrieves the total free liquidity in token0 and token1 in the pool.",
        "params": {
          "automator": "The automator contract."
        },
        "returns": {
          "sumAmount0": "The total free liquidity in token0.",
          "sumAmount1": "The total free liquidity in token1."
        }
      },
      "getAutomatorPositions(address)": {
        "details": "Retrieves the positions of the automator.",
        "returns": {
          "balanceCounterAsset": "The balance of the counter asset.",
          "balanceDepositAsset": "The balance of the deposit asset.",
          "rebalanceTicks": "An array of structs representing the active ticks and its liquidity."
        }
      },
      "getTickAllLiquidity(address,int24)": {
        "details": "Retrieves the total liquidity of a given tick range.",
        "params": {
          "tick": "The tick value representing the range."
        },
        "returns": {
          "_0": "The total liquidity of the tick range."
        }
      },
      "getTickFreeLiquidity(address,int24)": {
        "details": "Retrieves the amount of free liquidity for a given tick.",
        "params": {
          "tick": "The tick value for which to retrieve the free liquidity."
        },
        "returns": {
          "freeLiquidity": "The amount of free liquidity for the specified tick."
        }
      }
    },
    "version": 1
  },
  "userdoc": {
    "kind": "user",
    "methods": {},
    "version": 1
  },
  "storageLayout": {
    "storage": [],
    "types": null
  }
}