{
  "address": "0x6F9DD9b2BE02949cc5Bc55B15816b27066150459",
  "abi": [
    {
      "inputs": [],
      "name": "DstTokenDoesNotMatch",
      "type": "error"
    },
    {
      "inputs": [],
      "name": "InvalidFormat",
      "type": "error"
    },
    {
      "inputs": [],
      "name": "OutOfDelta",
      "type": "error"
    },
    {
      "inputs": [],
      "name": "ReceiverIsNotSender",
      "type": "error"
    },
    {
      "inputs": [],
      "name": "SrcTokenDoesNotMatch",
      "type": "error"
    },
    {
      "inputs": [],
      "name": "Unauthorized",
      "type": "error"
    },
    {
      "inputs": [],
      "name": "UnsupportedSelector",
      "type": "error"
    },
    {
      "anonymous": false,
      "inputs": [
        {
          "indexed": true,
          "internalType": "address",
          "name": "owner",
          "type": "address"
        }
      ],
      "name": "SetOwner",
      "type": "event"
    },
    {
      "anonymous": false,
      "inputs": [
        {
          "indexed": true,
          "internalType": "address",
          "name": "provider",
          "type": "address"
        },
        {
          "indexed": false,
          "internalType": "bool",
          "name": "trusted",
          "type": "bool"
        }
      ],
      "name": "SetTrustedProvider",
      "type": "event"
    },
    {
      "inputs": [],
      "name": "deltaScale",
      "outputs": [
        {
          "internalType": "uint256",
          "name": "",
          "type": "uint256"
        }
      ],
      "stateMutability": "view",
      "type": "function"
    },
    {
      "inputs": [],
      "name": "owner",
      "outputs": [
        {
          "internalType": "address",
          "name": "",
          "type": "address"
        }
      ],
      "stateMutability": "view",
      "type": "function"
    },
    {
      "inputs": [
        {
          "components": [
            {
              "internalType": "address",
              "name": "provider",
              "type": "address"
            },
            {
              "internalType": "bytes",
              "name": "swapCalldata",
              "type": "bytes"
            },
            {
              "internalType": "contract IERC20",
              "name": "expectTokenIn",
              "type": "address"
            },
            {
              "internalType": "contract IERC20",
              "name": "expectTokenOut",
              "type": "address"
            },
            {
              "internalType": "uint256",
              "name": "expectAmountIn",
              "type": "uint256"
            },
            {
              "internalType": "uint256",
              "name": "inputDelta",
              "type": "uint256"
            }
          ],
          "internalType": "struct IOrangeSwapProxy.SwapInputRequest",
          "name": "request",
          "type": "tuple"
        }
      ],
      "name": "safeInputSwap",
      "outputs": [],
      "stateMutability": "nonpayable",
      "type": "function"
    },
    {
      "inputs": [
        {
          "internalType": "address",
          "name": "_owner",
          "type": "address"
        }
      ],
      "name": "setOwner",
      "outputs": [],
      "stateMutability": "nonpayable",
      "type": "function"
    },
    {
      "inputs": [
        {
          "internalType": "address",
          "name": "provider",
          "type": "address"
        },
        {
          "internalType": "bool",
          "name": "trusted",
          "type": "bool"
        }
      ],
      "name": "setTrustedProvider",
      "outputs": [],
      "stateMutability": "nonpayable",
      "type": "function"
    },
    {
      "inputs": [
        {
          "internalType": "address",
          "name": "provider",
          "type": "address"
        }
      ],
      "name": "trustedProviders",
      "outputs": [
        {
          "internalType": "bool",
          "name": "",
          "type": "bool"
        }
      ],
      "stateMutability": "view",
      "type": "function"
    }
  ],
  "transactionHash": "0xa6654da52d1ee80fe526f975c02e8c5d218541e0e2b6d8fd42c8ac3ca7032cb2",
  "args": [],
  "numDeployments": 1,
  "solcInputHash": "205246e306e3f6dd246c994a011a9ec9",
  "bytecode": "0x608060405234801561001057600080fd5b50600080546001600160a01b031916331790556112a0806100326000396000f3fe608060405234801561001057600080fd5b50600436106100625760003560e01c806313af4035146100675780634aa955791461007c5780637a071a751461008f5780638da5cb5b146100c7578063c4c47d9c146100f2578063d26e1dff14610105575b600080fd5b61007a610075366004610b24565b61011c565b005b61007a61008a366004610c30565b61018e565b6100b261009d366004610b24565b60016020526000908152604090205460ff1681565b60405190151581526020015b60405180910390f35b6000546100da906001600160a01b031681565b6040516001600160a01b0390911681526020016100be565b61007a610100366004610d37565b61055d565b61010e61271081565b6040519081526020016100be565b6000546001600160a01b03163314610146576040516282b42960e81b815260040160405180910390fd5b600080546001600160a01b0319166001600160a01b038316908117825560405190917f167d3e9c1016ab80e58802ca9da10ce5c6a0f4debc46a2e7a2cd9e56899a4fb591a250565b80516001600160a01b031660009081526001602052604090205460ff166101c7576040516282b42960e81b815260040160405180910390fd5b6000806101d783602001516105e6565b9150915061025360405180610160016040528060006001600160a01b0316815260200160006001600160a01b031681526020016060815260200160608152602001606081526020016060815260200160006001600160a01b03168152602001600081526020016000815260200160008152602001606081525090565b6001600160e01b0319831663e21fd0e960e01b148061028257506001600160e01b031983166359e50fed60e01b145b156102aa5760008280602001905181019061029d9190611007565b6060015191506102fb9050565b63750fcc0560e01b6001600160e01b03198416016102e257818060200190518101906102d691906110de565b509092506102fb915050565b604051631e8b844160e01b815260040160405180910390fd5b83604001516001600160a01b031681600001516001600160a01b03161461033557604051634b8e040b60e11b815260040160405180910390fd5b83606001516001600160a01b031681602001516001600160a01b03161461036f57604051635ba03f4560e01b815260040160405180910390fd5b60c08101516001600160a01b0316331461039c576040516338d9ffd560e11b815260040160405180910390fd5b60008460a001516127106103b09190611190565b905060006103d88660800151670de0b6b3a76400006103cf91906111a3565b61271084610641565b905060006104008760800151670de0b6b3a76400006103f791906111a3565b84612710610641565b9050818460e00151670de0b6b3a764000061041b91906111a3565b108061043d5750808460e00151670de0b6b3a764000061043b91906111a3565b115b1561045b57604051631ab2cb6d60e01b815260040160405180910390fd5b61048333308660e001518a604001516001600160a01b03166106f4909392919063ffffffff16565b60408781015188519151636eb1769f60e11b81523060048201526001600160a01b03928316602482015291169063dd62ed3e90604401602060405180830381865afa1580156104d6573d6000803e3d6000fd5b505050506040513d601f19601f820116820180604052508101906104fa91906111ba565b6000036105205786516040880151610520916001600160a01b0390911690600019610765565b61055387602001516040518060600160405280602b8152602001611240602b913989516001600160a01b031691906107f4565b5050505050505050565b6000546001600160a01b03163314610587576040516282b42960e81b815260040160405180910390fd5b6001600160a01b038216600081815260016020908152604091829020805460ff191685151590811790915591519182527fd90f67c54326236f064d2a0e52fd812db99aa4b0b9d4b380870420ac155fb26c910160405180910390a25050565b600060606020830151915082516004810390506040519150808252806020018201604052602084015160201b6020830152601c5b8181101561063a578085016024015160208483018101919091520161061a565b5050915091565b600080806000198587098587029250828110838203039150508060000361067a576000841161066f57600080fd5b5082900490506106ed565b80841161068657600080fd5b6000848688096000868103871696879004966002600389028118808a02820302808a02820302808a02820302808a02820302808a02820302808a02909103029181900381900460010186841190950394909402919094039290920491909117919091029150505b9392505050565b6040516001600160a01b038085166024830152831660448201526064810182905261075f9085906323b872dd60e01b906084015b60408051601f198184030181529190526020810180516001600160e01b03166001600160e01b03199093169290921790915261080b565b50505050565b604080516001600160a01b038416602482015260448082018490528251808303909101815260649091019091526020810180516001600160e01b031663095ea7b360e01b1790526107b684826108ea565b61075f576040516001600160a01b0384166024820152600060448201526107ea90859063095ea7b360e01b90606401610728565b61075f848261080b565b60606108038484600085610993565b949350505050565b6000610860826040518060400160405280602081526020017f5361666545524332303a206c6f772d6c6576656c2063616c6c206661696c6564815250856001600160a01b03166107f49092919063ffffffff16565b905080516000148061088157508080602001905181019061088191906111d3565b6108e55760405162461bcd60e51b815260206004820152602a60248201527f5361666545524332303a204552433230206f7065726174696f6e20646964206e6044820152691bdd081cdd58d8d9595960b21b60648201526084015b60405180910390fd5b505050565b6000806000846001600160a01b03168460405161090791906111f0565b6000604051808303816000865af19150503d8060008114610944576040519150601f19603f3d011682016040523d82523d6000602084013e610949565b606091505b509150915081801561097357508051158061097357508080602001905181019061097391906111d3565b801561098857506001600160a01b0385163b15155b925050505b92915050565b6060824710156109f45760405162461bcd60e51b815260206004820152602660248201527f416464726573733a20696e73756666696369656e742062616c616e636520666f6044820152651c8818d85b1b60d21b60648201526084016108dc565b600080866001600160a01b03168587604051610a1091906111f0565b60006040518083038185875af1925050503d8060008114610a4d576040519150601f19603f3d011682016040523d82523d6000602084013e610a52565b606091505b5091509150610a6387838387610a6e565b979650505050505050565b60608315610add578251600003610ad6576001600160a01b0385163b610ad65760405162461bcd60e51b815260206004820152601d60248201527f416464726573733a2063616c6c20746f206e6f6e2d636f6e747261637400000060448201526064016108dc565b5081610803565b6108038383815115610af25781518083602001fd5b8060405162461bcd60e51b81526004016108dc919061120c565b6001600160a01b0381168114610b2157600080fd5b50565b600060208284031215610b3657600080fd5b81356106ed81610b0c565b634e487b7160e01b600052604160045260246000fd5b60405160c0810167ffffffffffffffff81118282101715610b7a57610b7a610b41565b60405290565b604051610160810167ffffffffffffffff81118282101715610b7a57610b7a610b41565b60405160a0810167ffffffffffffffff81118282101715610b7a57610b7a610b41565b604051601f8201601f1916810167ffffffffffffffff81118282101715610bf057610bf0610b41565b604052919050565b600067ffffffffffffffff821115610c1257610c12610b41565b50601f01601f191660200190565b8035610c2b81610b0c565b919050565b60006020808385031215610c4357600080fd5b823567ffffffffffffffff80821115610c5b57600080fd5b9084019060c08287031215610c6f57600080fd5b610c77610b57565b8235610c8281610b0c565b81528284013582811115610c9557600080fd5b83019150601f82018713610ca857600080fd5b8135610cbb610cb682610bf8565b610bc7565b8181528886838601011115610ccf57600080fd5b8186850187830137600086838301015280868401525050610cf260408401610c20565b6040820152610d0360608401610c20565b60608201526080830135608082015260a083013560a08201528094505050505092915050565b8015158114610b2157600080fd5b60008060408385031215610d4a57600080fd5b8235610d5581610b0c565b91506020830135610d6581610d29565b809150509250929050565b8051610c2b81610b0c565b60005b83811015610d96578181015183820152602001610d7e565b50506000910152565b600082601f830112610db057600080fd5b8151610dbe610cb682610bf8565b818152846020838601011115610dd357600080fd5b610803826020830160208701610d7b565b600067ffffffffffffffff821115610dfe57610dfe610b41565b5060051b60200190565b600082601f830112610e1957600080fd5b81516020610e29610cb683610de4565b82815260059290921b84018101918181019086841115610e4857600080fd5b8286015b84811015610e6c578051610e5f81610b0c565b8352918301918301610e4c565b509695505050505050565b600082601f830112610e8857600080fd5b81516020610e98610cb683610de4565b82815260059290921b84018101918181019086841115610eb757600080fd5b8286015b84811015610e6c5780518352918301918301610ebb565b60006101608284031215610ee557600080fd5b610eed610b80565b9050610ef882610d70565b8152610f0660208301610d70565b6020820152604082015167ffffffffffffffff80821115610f2657600080fd5b610f3285838601610e08565b60408401526060840151915080821115610f4b57600080fd5b610f5785838601610e77565b60608401526080840151915080821115610f7057600080fd5b610f7c85838601610e08565b608084015260a0840151915080821115610f9557600080fd5b610fa185838601610e77565b60a0840152610fb260c08501610d70565b60c084015260e08481015190840152610100808501519084015261012080850151908401526101408085015190925081811115610fee57600080fd5b610ffa86828701610d9f565b8385015250505092915050565b60006020828403121561101957600080fd5b815167ffffffffffffffff8082111561103157600080fd5b9083019060a0828603121561104557600080fd5b61104d610ba4565b61105683610d70565b815261106460208401610d70565b602082015260408301518281111561107b57600080fd5b61108787828601610d9f565b60408301525060608301518281111561109f57600080fd5b6110ab87828601610ed2565b6060830152506080830151828111156110c357600080fd5b6110cf87828601610d9f565b60808301525095945050505050565b600080600080608085870312156110f457600080fd5b84516110ff81610b0c565b602086015190945067ffffffffffffffff8082111561111d57600080fd5b61112988838901610ed2565b9450604087015191508082111561113f57600080fd5b61114b88838901610d9f565b9350606087015191508082111561116157600080fd5b5061116e87828801610d9f565b91505092959194509250565b634e487b7160e01b600052601160045260246000fd5b8082018082111561098d5761098d61117a565b808202811582820484141761098d5761098d61117a565b6000602082840312156111cc57600080fd5b5051919050565b6000602082840312156111e557600080fd5b81516106ed81610d29565b60008251611202818460208701610d7b565b9190910192915050565b602081526000825180602084015261122b816040850160208701610d7b565b601f01601f1916919091016040019291505056fe4f72616e67654b796265725377617050726f78793a206c6f772d6c6576656c2063616c6c206661696c6564a2646970667358221220d7dd94329395d9d71ec745809d909124a7c3680de0c2d6a448dba20761d0ddf564736f6c63430008130033",
  "devdoc": {
    "details": "A contract that acts as a proxy for executing swaps on the KyberSwap platform.",
    "kind": "dev",
    "methods": {
      "safeInputSwap((address,bytes,address,address,uint256,uint256))": {
        "details": "Executes a safe input swap on the KyberSwap platform.",
        "params": {
          "request": "The swap request parameters."
        }
      }
    },
    "title": "OrangeKyberswapProxy",
    "version": 1
  },
  "userdoc": {
    "kind": "user",
    "methods": {},
    "version": 1
  },
  "storageLayout": {
    "storage": [
      {
        "astId": 1350,
        "contract": "contracts/dopex-v2-lp-automator/contracts/v2/OrangeKyberswapProxy.sol:OrangeKyberswapProxy",
        "label": "owner",
        "offset": 0,
        "slot": "0",
        "type": "t_address"
      },
      {
        "astId": 1354,
        "contract": "contracts/dopex-v2-lp-automator/contracts/v2/OrangeKyberswapProxy.sol:OrangeKyberswapProxy",
        "label": "trustedProviders",
        "offset": 0,
        "slot": "1",
        "type": "t_mapping(t_address,t_bool)"
      }
    ],
    "types": {
      "t_address": {
        "encoding": "inplace",
        "label": "address",
        "numberOfBytes": "20"
      },
      "t_bool": {
        "encoding": "inplace",
        "label": "bool",
        "numberOfBytes": "1"
      },
      "t_mapping(t_address,t_bool)": {
        "encoding": "mapping",
        "key": "t_address",
        "label": "mapping(address => bool)",
        "numberOfBytes": "32",
        "value": "t_bool"
      }
    }
  }
}