{
  "address": "0x112CA62Cd2A601960341fCe6Cf3F45361b6Ee24c",
  "abi": [
    {
      "inputs": [
        {
          "internalType": "contract IUniswapV3Pool",
          "name": "pool_",
          "type": "address"
        }
      ],
      "stateMutability": "nonpayable",
      "type": "constructor"
    },
    {
      "inputs": [],
      "name": "factory",
      "outputs": [
        {
          "internalType": "address",
          "name": "",
          "type": "address"
        }
      ],
      "stateMutability": "view",
      "type": "function"
    },
    {
      "inputs": [],
      "name": "fee",
      "outputs": [
        {
          "internalType": "uint24",
          "name": "",
          "type": "uint24"
        }
      ],
      "stateMutability": "view",
      "type": "function"
    },
    {
      "inputs": [],
      "name": "feeGrowthGlobal0X128",
      "outputs": [
        {
          "internalType": "uint256",
          "name": "",
          "type": "uint256"
        }
      ],
      "stateMutability": "view",
      "type": "function"
    },
    {
      "inputs": [],
      "name": "feeGrowthGlobal1X128",
      "outputs": [
        {
          "internalType": "uint256",
          "name": "",
          "type": "uint256"
        }
      ],
      "stateMutability": "view",
      "type": "function"
    },
    {
      "inputs": [],
      "name": "liquidity",
      "outputs": [
        {
          "internalType": "uint128",
          "name": "",
          "type": "uint128"
        }
      ],
      "stateMutability": "view",
      "type": "function"
    },
    {
      "inputs": [],
      "name": "maxLiquidityPerTick",
      "outputs": [
        {
          "internalType": "uint128",
          "name": "",
          "type": "uint128"
        }
      ],
      "stateMutability": "view",
      "type": "function"
    },
    {
      "inputs": [
        {
          "internalType": "uint256",
          "name": "index",
          "type": "uint256"
        }
      ],
      "name": "observations",
      "outputs": [
        {
          "internalType": "uint32",
          "name": "blockTimestamp",
          "type": "uint32"
        },
        {
          "internalType": "int56",
          "name": "tickCumulative",
          "type": "int56"
        },
        {
          "internalType": "uint160",
          "name": "secondsPerLiquidityCumulativeX128",
          "type": "uint160"
        },
        {
          "internalType": "bool",
          "name": "initialized",
          "type": "bool"
        }
      ],
      "stateMutability": "view",
      "type": "function"
    },
    {
      "inputs": [
        {
          "internalType": "uint32[]",
          "name": "secondsAgos",
          "type": "uint32[]"
        }
      ],
      "name": "observe",
      "outputs": [
        {
          "internalType": "int56[]",
          "name": "tickCumulatives",
          "type": "int56[]"
        },
        {
          "internalType": "uint160[]",
          "name": "secondsPerLiquidityCumulativeX128s",
          "type": "uint160[]"
        }
      ],
      "stateMutability": "view",
      "type": "function"
    },
    {
      "inputs": [],
      "name": "pool",
      "outputs": [
        {
          "internalType": "address",
          "name": "",
          "type": "address"
        }
      ],
      "stateMutability": "view",
      "type": "function"
    },
    {
      "inputs": [
        {
          "internalType": "bytes32",
          "name": "key",
          "type": "bytes32"
        }
      ],
      "name": "positions",
      "outputs": [
        {
          "internalType": "uint128",
          "name": "_liquidity",
          "type": "uint128"
        },
        {
          "internalType": "uint256",
          "name": "feeGrowthInside0LastX128",
          "type": "uint256"
        },
        {
          "internalType": "uint256",
          "name": "feeGrowthInside1LastX128",
          "type": "uint256"
        },
        {
          "internalType": "uint128",
          "name": "tokensOwed0",
          "type": "uint128"
        },
        {
          "internalType": "uint128",
          "name": "tokensOwed1",
          "type": "uint128"
        }
      ],
      "stateMutability": "view",
      "type": "function"
    },
    {
      "inputs": [],
      "name": "protocolFees",
      "outputs": [
        {
          "internalType": "uint128",
          "name": "_token0",
          "type": "uint128"
        },
        {
          "internalType": "uint128",
          "name": "_token1",
          "type": "uint128"
        }
      ],
      "stateMutability": "view",
      "type": "function"
    },
    {
      "inputs": [],
      "name": "slot0",
      "outputs": [
        {
          "internalType": "uint160",
          "name": "sqrtPriceX96",
          "type": "uint160"
        },
        {
          "internalType": "int24",
          "name": "tick",
          "type": "int24"
        },
        {
          "internalType": "uint16",
          "name": "observationIndex",
          "type": "uint16"
        },
        {
          "internalType": "uint16",
          "name": "observationCardinality",
          "type": "uint16"
        },
        {
          "internalType": "uint16",
          "name": "observationCardinalityNext",
          "type": "uint16"
        },
        {
          "internalType": "uint8",
          "name": "feeProtocol",
          "type": "uint8"
        },
        {
          "internalType": "bool",
          "name": "unlocked",
          "type": "bool"
        }
      ],
      "stateMutability": "view",
      "type": "function"
    },
    {
      "inputs": [
        {
          "internalType": "int24",
          "name": "tickLower",
          "type": "int24"
        },
        {
          "internalType": "int24",
          "name": "tickUpper",
          "type": "int24"
        }
      ],
      "name": "snapshotCumulativesInside",
      "outputs": [
        {
          "internalType": "int56",
          "name": "tickCumulativeInside",
          "type": "int56"
        },
        {
          "internalType": "uint160",
          "name": "secondsPerLiquidityInsideX128",
          "type": "uint160"
        },
        {
          "internalType": "uint32",
          "name": "secondsInside",
          "type": "uint32"
        }
      ],
      "stateMutability": "view",
      "type": "function"
    },
    {
      "inputs": [
        {
          "internalType": "int16",
          "name": "wordPosition",
          "type": "int16"
        }
      ],
      "name": "tickBitmap",
      "outputs": [
        {
          "internalType": "uint256",
          "name": "",
          "type": "uint256"
        }
      ],
      "stateMutability": "view",
      "type": "function"
    },
    {
      "inputs": [],
      "name": "tickSpacing",
      "outputs": [
        {
          "internalType": "int24",
          "name": "",
          "type": "int24"
        }
      ],
      "stateMutability": "view",
      "type": "function"
    },
    {
      "inputs": [
        {
          "internalType": "int24",
          "name": "tick",
          "type": "int24"
        }
      ],
      "name": "ticks",
      "outputs": [
        {
          "internalType": "uint128",
          "name": "liquidityGross",
          "type": "uint128"
        },
        {
          "internalType": "int128",
          "name": "liquidityNet",
          "type": "int128"
        },
        {
          "internalType": "uint256",
          "name": "feeGrowthOutside0X128",
          "type": "uint256"
        },
        {
          "internalType": "uint256",
          "name": "feeGrowthOutside1X128",
          "type": "uint256"
        },
        {
          "internalType": "int56",
          "name": "tickCumulativeOutside",
          "type": "int56"
        },
        {
          "internalType": "uint160",
          "name": "secondsPerLiquidityOutsideX128",
          "type": "uint160"
        },
        {
          "internalType": "uint32",
          "name": "secondsOutside",
          "type": "uint32"
        },
        {
          "internalType": "bool",
          "name": "initialized",
          "type": "bool"
        }
      ],
      "stateMutability": "view",
      "type": "function"
    },
    {
      "inputs": [],
      "name": "token0",
      "outputs": [
        {
          "internalType": "address",
          "name": "",
          "type": "address"
        }
      ],
      "stateMutability": "view",
      "type": "function"
    },
    {
      "inputs": [],
      "name": "token1",
      "outputs": [
        {
          "internalType": "address",
          "name": "",
          "type": "address"
        }
      ],
      "stateMutability": "view",
      "type": "function"
    }
  ],
  "transactionHash": "0x4badb47f99ea367fd43519592cc685f0d15812c12bf3f60a190db9b6614008da",
  "args": [
    "0xe24F62341D84D11078188d83cA3be118193D6389"
  ],
  "numDeployments": 1,
  "solcInputHash": "ebc6d9c78415a33e45406163804fd34f",
  "bytecode": "0x60a060405234801561001057600080fd5b5060405161154038038061154083398101604081905261002f91610040565b6001600160a01b0316608052610070565b60006020828403121561005257600080fd5b81516001600160a01b038116811461006957600080fd5b9392505050565b60805161143e61010260003960008181610142015281816103f20152818161047b015281816105000152818161058f01528181610638015281816106d20152818161075c0152818161081701528181610894015281816108f5015281816109c101528181610a3d01528181610a9d01528181610b2101528181610b8101528181610c050152610c6f015261143e6000f3fe608060405234801561001057600080fd5b50600436106101165760003560e01c806370cf754a116100a2578063d0c93a7c11610071578063d0c93a7c14610338578063d21220a714610353578063ddca3f431461035b578063f305839914610377578063f30dba931461037f57600080fd5b806370cf754a146102c6578063883bdbfd146102ce578063a38807f2146102ef578063c45a01551461033057600080fd5b8063252c09d7116100e9578063252c09d7146101ae5780633850c7bd146101fb5780634614131914610254578063514ea4bf1461026a5780635339c296146102b357600080fd5b80630dfe16811461011b57806316f0115b146101405780631a686502146101665780631ad8b03b14610186575b600080fd5b6101236103ee565b6040516001600160a01b0390911681526020015b60405180910390f35b7f0000000000000000000000000000000000000000000000000000000000000000610123565b61016e610477565b6040516001600160801b039091168152602001610137565b61018e6104fb565b604080516001600160801b03938416815292909116602083015201610137565b6101c16101bc366004610d1f565b610587565b6040805163ffffffff909516855260069390930b60208501526001600160a01b039091169183019190915215156060820152608001610137565b61020361062b565b604080516001600160a01b03909816885260029690960b602088015261ffff94851695870195909552918316606086015291909116608084015260ff1660a0830152151560c082015260e001610137565b61025c6106ce565b604051908152602001610137565b61027d610278366004610d1f565b610752565b604080516001600160801b039687168152602081019590955284019290925283166060830152909116608082015260a001610137565b61025c6102c1366004610d38565b6107fb565b61016e610890565b6102e16102dc366004610d62565b6108f0565b604051610137929190610dd7565b6103026102fd366004610e70565b610991565b6040805160069490940b84526001600160a01b03909216602084015263ffffffff1690820152606001610137565b610123610a39565b610340610a99565b60405160029190910b8152602001610137565b610123610b1d565b610363610b7d565b60405162ffffff9091168152602001610137565b61025c610c01565b61039261038d366004610ea9565b610c61565b604080516001600160801b039099168952600f9790970b602089015295870194909452606086019290925260060b60808501526001600160a01b031660a084015263ffffffff1660c0830152151560e082015261010001610137565b60007f00000000000000000000000000000000000000000000000000000000000000006001600160a01b0316630dfe16816040518163ffffffff1660e01b8152600401602060405180830381865afa15801561044e573d6000803e3d6000fd5b505050506040513d601f19601f820116820180604052508101906104729190610edb565b905090565b60007f00000000000000000000000000000000000000000000000000000000000000006001600160a01b0316631a6865026040518163ffffffff1660e01b8152600401602060405180830381865afa1580156104d7573d6000803e3d6000fd5b505050506040513d601f19601f820116820180604052508101906104729190610f14565b6000807f00000000000000000000000000000000000000000000000000000000000000006001600160a01b0316631ad8b03b6040518163ffffffff1660e01b81526004016040805180830381865afa15801561055b573d6000803e3d6000fd5b505050506040513d601f19601f8201168201806040525081019061057f9190610f2f565b915091509091565b6000806000807f00000000000000000000000000000000000000000000000000000000000000006001600160a01b031663252c09d7866040518263ffffffff1660e01b81526004016105db91815260200190565b608060405180830381865afa1580156105f8573d6000803e3d6000fd5b505050506040513d601f19601f8201168201806040525081019061061c9190610f96565b93509350935093509193509193565b60008060008060008060007f00000000000000000000000000000000000000000000000000000000000000006001600160a01b0316633850c7bd6040518163ffffffff1660e01b815260040160e060405180830381865afa158015610694573d6000803e3d6000fd5b505050506040513d601f19601f820116820180604052508101906106b89190611000565b959d949c50929a50909850965094509092509050565b60007f00000000000000000000000000000000000000000000000000000000000000006001600160a01b031663461413196040518163ffffffff1660e01b8152600401602060405180830381865afa15801561072e573d6000803e3d6000fd5b505050506040513d601f19601f820116820180604052508101906104729190611093565b60008060008060007f00000000000000000000000000000000000000000000000000000000000000006001600160a01b031663514ea4bf876040518263ffffffff1660e01b81526004016107a891815260200190565b60a060405180830381865afa1580156107c5573d6000803e3d6000fd5b505050506040513d601f19601f820116820180604052508101906107e991906110ac565b939a9299509097509550909350915050565b60405163299ce14b60e11b8152600182900b60048201526000907f00000000000000000000000000000000000000000000000000000000000000006001600160a01b031690635339c29690602401602060405180830381865afa158015610866573d6000803e3d6000fd5b505050506040513d601f19601f8201168201806040525081019061088a9190611093565b92915050565b60007f00000000000000000000000000000000000000000000000000000000000000006001600160a01b03166370cf754a6040518163ffffffff1660e01b8152600401602060405180830381865afa1580156104d7573d6000803e3d6000fd5b6060807f00000000000000000000000000000000000000000000000000000000000000006001600160a01b031663883bdbfd85856040518363ffffffff1660e01b8152600401610941929190611103565b600060405180830381865afa15801561095e573d6000803e3d6000fd5b505050506040513d6000823e601f3d908101601f191682016040526109869190810190611222565b915091509250929050565b6040516351c403f960e11b8152600283810b600483015282900b6024820152600090819081906001600160a01b037f0000000000000000000000000000000000000000000000000000000000000000169063a38807f290604401606060405180830381865afa158015610a08573d6000803e3d6000fd5b505050506040513d601f19601f82011682018060405250810190610a2c91906112e5565b9250925092509250925092565b60007f00000000000000000000000000000000000000000000000000000000000000006001600160a01b031663c45a01556040518163ffffffff1660e01b8152600401602060405180830381865afa15801561044e573d6000803e3d6000fd5b60007f00000000000000000000000000000000000000000000000000000000000000006001600160a01b031663d0c93a7c6040518163ffffffff1660e01b8152600401602060405180830381865afa158015610af9573d6000803e3d6000fd5b505050506040513d601f19601f82011682018060405250810190610472919061132f565b60007f00000000000000000000000000000000000000000000000000000000000000006001600160a01b031663d21220a76040518163ffffffff1660e01b8152600401602060405180830381865afa15801561044e573d6000803e3d6000fd5b60007f00000000000000000000000000000000000000000000000000000000000000006001600160a01b031663ddca3f436040518163ffffffff1660e01b8152600401602060405180830381865afa158015610bdd573d6000803e3d6000fd5b505050506040513d601f19601f82011682018060405250810190610472919061134c565b60007f00000000000000000000000000000000000000000000000000000000000000006001600160a01b031663f30583996040518163ffffffff1660e01b8152600401602060405180830381865afa15801561072e573d6000803e3d6000fd5b6000806000806000806000807f00000000000000000000000000000000000000000000000000000000000000006001600160a01b031663f30dba938a6040518263ffffffff1660e01b8152600401610cc2919060029190910b815260200190565b61010060405180830381865afa158015610ce0573d6000803e3d6000fd5b505050506040513d601f19601f82011682018060405250810190610d049190611371565b97509750975097509750975097509750919395975091939597565b600060208284031215610d3157600080fd5b5035919050565b600060208284031215610d4a57600080fd5b81358060010b8114610d5b57600080fd5b9392505050565b60008060208385031215610d7557600080fd5b823567ffffffffffffffff80821115610d8d57600080fd5b818501915085601f830112610da157600080fd5b813581811115610db057600080fd5b8660208260051b8501011115610dc557600080fd5b60209290920196919550909350505050565b604080825283519082018190526000906020906060840190828701845b82811015610e1357815160060b84529284019290840190600101610df4565b5050508381038285015284518082528583019183019060005b81811015610e515783516001600160a01b031683529284019291840191600101610e2c565b5090979650505050505050565b8060020b8114610e6d57600080fd5b50565b60008060408385031215610e8357600080fd5b8235610e8e81610e5e565b91506020830135610e9e81610e5e565b809150509250929050565b600060208284031215610ebb57600080fd5b8135610d5b81610e5e565b6001600160a01b0381168114610e6d57600080fd5b600060208284031215610eed57600080fd5b8151610d5b81610ec6565b80516001600160801b0381168114610f0f57600080fd5b919050565b600060208284031215610f2657600080fd5b610d5b82610ef8565b60008060408385031215610f4257600080fd5b610f4b83610ef8565b9150610f5960208401610ef8565b90509250929050565b63ffffffff81168114610e6d57600080fd5b8051600681900b8114610f0f57600080fd5b80518015158114610f0f57600080fd5b60008060008060808587031215610fac57600080fd5b8451610fb781610f62565b9350610fc560208601610f74565b92506040850151610fd581610ec6565b9150610fe360608601610f86565b905092959194509250565b805161ffff81168114610f0f57600080fd5b600080600080600080600060e0888a03121561101b57600080fd5b875161102681610ec6565b602089015190975061103781610e5e565b955061104560408901610fee565b945061105360608901610fee565b935061106160808901610fee565b925060a088015160ff8116811461107757600080fd5b915061108560c08901610f86565b905092959891949750929550565b6000602082840312156110a557600080fd5b5051919050565b600080600080600060a086880312156110c457600080fd5b6110cd86610ef8565b945060208601519350604086015192506110e960608701610ef8565b91506110f760808701610ef8565b90509295509295909350565b60208082528181018390526000908460408401835b8681101561114357823561112b81610f62565b63ffffffff1682529183019190830190600101611118565b509695505050505050565b634e487b7160e01b600052604160045260246000fd5b604051601f8201601f1916810167ffffffffffffffff8111828210171561118d5761118d61114e565b604052919050565b600067ffffffffffffffff8211156111af576111af61114e565b5060051b60200190565b600082601f8301126111ca57600080fd5b815160206111df6111da83611195565b611164565b82815260059290921b840181019181810190868411156111fe57600080fd5b8286015b8481101561114357805161121581610ec6565b8352918301918301611202565b6000806040838503121561123557600080fd5b825167ffffffffffffffff8082111561124d57600080fd5b818501915085601f83011261126157600080fd5b815160206112716111da83611195565b82815260059290921b8401810191818101908984111561129057600080fd5b948201945b838610156112b5576112a686610f74565b82529482019490820190611295565b918801519196509093505050808211156112ce57600080fd5b506112db858286016111b9565b9150509250929050565b6000806000606084860312156112fa57600080fd5b61130384610f74565b9250602084015161131381610ec6565b604085015190925061132481610f62565b809150509250925092565b60006020828403121561134157600080fd5b8151610d5b81610e5e565b60006020828403121561135e57600080fd5b815162ffffff81168114610d5b57600080fd5b600080600080600080600080610100898b03121561138e57600080fd5b61139789610ef8565b9750602089015180600f0b81146113ad57600080fd5b60408a015160608b0151919850965094506113ca60808a01610f74565b935060a08901516113da81610ec6565b60c08a01519093506113eb81610f62565b91506113f960e08a01610f86565b9050929598509295989093965056fea2646970667358221220c581be493eff26d16ba4be1c3b3939a0c879221fe9f0b3006f3d1351d1c6091a64736f6c63430008130033",
  "devdoc": {
    "kind": "dev",
    "methods": {
      "factory()": {
        "returns": {
          "_0": "The contract address"
        }
      },
      "fee()": {
        "returns": {
          "_0": "The fee"
        }
      },
      "feeGrowthGlobal0X128()": {
        "details": "This value can overflow the uint256"
      },
      "feeGrowthGlobal1X128()": {
        "details": "This value can overflow the uint256"
      },
      "liquidity()": {
        "details": "This value has no relationship to the total liquidity across all ticks",
        "returns": {
          "_0": "The liquidity at the current price of the pool"
        }
      },
      "maxLiquidityPerTick()": {
        "details": "This parameter is enforced per tick to prevent liquidity from overflowing a uint128 at any point, and also prevents out-of-range liquidity from being used to prevent adding in-range liquidity to a pool",
        "returns": {
          "_0": "The max amount of liquidity per tick"
        }
      },
      "observations(uint256)": {
        "details": "You most likely want to use #observe() instead of this method to get an observation as of some amount of time ago, rather than at a specific index in the array.",
        "params": {
          "index": "The element of the observations array to fetch"
        },
        "returns": {
          "blockTimestamp": "The timestamp of the observation,",
          "initialized": "whether the observation has been initialized and the values are safe to use",
          "secondsPerLiquidityCumulativeX128": "the seconds per in range liquidity for the life of the pool as of the observation timestamp,",
          "tickCumulative": "the tick multiplied by seconds elapsed for the life of the pool as of the observation timestamp,"
        }
      },
      "observe(uint32[])": {
        "details": "To get a time weighted average tick or liquidity-in-range, you must call this with two values, one representing the beginning of the period and another for the end of the period. E.g., to get the last hour time-weighted average tick, you must call it with secondsAgos = [3600, 0].The time weighted average tick represents the geometric time weighted average price of the pool, in log base sqrt(1.0001) of token1 / token0. The TickMath library can be used to go from a tick value to a ratio.",
        "params": {
          "secondsAgos": "From how long ago each cumulative tick and liquidity value should be returned"
        },
        "returns": {
          "secondsPerLiquidityCumulativeX128s": "Cumulative seconds per liquidity-in-range value as of each `secondsAgos` from the current block timestamp",
          "tickCumulatives": "Cumulative tick values as of each `secondsAgos` from the current block timestamp"
        }
      },
      "pool()": {
        "details": "Returns the address of actual amm contract (e.g. UniswapV3, PancakeV3...)",
        "returns": {
          "_0": "pool The address of the amm contract."
        }
      },
      "positions(bytes32)": {
        "params": {
          "key": "The position's key is a hash of a preimage composed by the owner, tickLower and tickUpper"
        },
        "returns": {
          "_liquidity": "The amount of liquidity in the position,",
          "feeGrowthInside0LastX128": "fee growth of token0 inside the tick range as of the last mint/burn/poke,",
          "feeGrowthInside1LastX128": "fee growth of token1 inside the tick range as of the last mint/burn/poke,",
          "tokensOwed0": "the computed amount of token0 owed to the position as of the last mint/burn/poke,",
          "tokensOwed1": "the computed amount of token1 owed to the position as of the last mint/burn/poke"
        }
      },
      "protocolFees()": {
        "details": "Protocol fees will never exceed uint128 max in either token"
      },
      "slot0()": {
        "returns": {
          "feeProtocol": "The protocol fee for both tokens of the pool. Encoded as two 4 bit values, where the protocol fee of token1 is shifted 4 bits and the protocol fee of token0 is the lower 4 bits. Used as the denominator of a fraction of the swap fee, e.g. 4 means 1/4th of the swap fee. unlocked Whether the pool is currently locked to reentrancy",
          "observationCardinality": "The current maximum number of observations stored in the pool,",
          "observationCardinalityNext": "The next maximum number of observations, to be updated when the observation.",
          "observationIndex": "The index of the last oracle observation that was written,",
          "sqrtPriceX96": "The current price of the pool as a sqrt(token1/token0) Q64.96 value",
          "tick": "The current tick of the pool, i.e. according to the last tick transition that was run. This value may not always be equal to SqrtTickMath.getTickAtSqrtRatio(sqrtPriceX96) if the price is on a tick boundary."
        }
      },
      "snapshotCumulativesInside(int24,int24)": {
        "details": "Snapshots must only be compared to other snapshots, taken over a period for which a position existed. I.e., snapshots cannot be compared if a position is not held for the entire period between when the first snapshot is taken and the second snapshot is taken.",
        "params": {
          "tickLower": "The lower tick of the range",
          "tickUpper": "The upper tick of the range"
        },
        "returns": {
          "secondsInside": "The snapshot of seconds per liquidity for the range",
          "secondsPerLiquidityInsideX128": "The snapshot of seconds per liquidity for the range",
          "tickCumulativeInside": "The snapshot of the tick accumulator for the range"
        }
      },
      "tickSpacing()": {
        "details": "Ticks can only be used at multiples of this value, minimum of 1 and always positive e.g.: a tickSpacing of 3 means ticks can be initialized every 3rd tick, i.e., ..., -6, -3, 0, 3, 6, ... This value is an int24 to avoid casting even though it is always positive.",
        "returns": {
          "_0": "The tick spacing"
        }
      },
      "ticks(int24)": {
        "params": {
          "tick": "The tick to look up"
        },
        "returns": {
          "feeGrowthOutside0X128": "the fee growth on the other side of the tick from the current tick in token0,",
          "feeGrowthOutside1X128": "the fee growth on the other side of the tick from the current tick in token1,",
          "initialized": "Set to true if the tick is initialized, i.e. liquidityGross is greater than 0, otherwise equal to false. Outside values can only be used if the tick is initialized, i.e. if liquidityGross is greater than 0. In addition, these values are only relative and must be used only in comparison to previous snapshots for a specific position.",
          "liquidityGross": "the total amount of position liquidity that uses the pool either as tick lower or tick upper",
          "liquidityNet": "how much liquidity changes when the pool price crosses the tick,",
          "secondsOutside": "the seconds spent on the other side of the tick from the current tick,",
          "secondsPerLiquidityOutsideX128": "the seconds spent per liquidity on the other side of the tick from the current tick,",
          "tickCumulativeOutside": "the cumulative tick value on the other side of the tick from the current tick"
        }
      },
      "token0()": {
        "returns": {
          "_0": "The token contract address"
        }
      },
      "token1()": {
        "returns": {
          "_0": "The token contract address"
        }
      }
    },
    "version": 1
  },
  "userdoc": {
    "kind": "user",
    "methods": {
      "factory()": {
        "notice": "The contract that deployed the pool, which must adhere to the IUniswapV3Factory interface"
      },
      "fee()": {
        "notice": "The pool's fee in hundredths of a bip, i.e. 1e-6"
      },
      "feeGrowthGlobal0X128()": {
        "notice": "The fee growth as a Q128.128 fees of token0 collected per unit of liquidity for the entire life of the pool"
      },
      "feeGrowthGlobal1X128()": {
        "notice": "The fee growth as a Q128.128 fees of token1 collected per unit of liquidity for the entire life of the pool"
      },
      "liquidity()": {
        "notice": "The currently in range liquidity available to the pool"
      },
      "maxLiquidityPerTick()": {
        "notice": "The maximum amount of position liquidity that can use any tick in the range"
      },
      "observations(uint256)": {
        "notice": "Returns data about a specific observation index"
      },
      "observe(uint32[])": {
        "notice": "Returns the cumulative tick and liquidity as of each timestamp `secondsAgo` from the current block timestamp"
      },
      "positions(bytes32)": {
        "notice": "Returns the information about a position by the position's key"
      },
      "protocolFees()": {
        "notice": "The amounts of token0 and token1 that are owed to the protocol"
      },
      "slot0()": {
        "notice": "The 0th storage slot in the pool stores many values, and is exposed as a single method to save gas when accessed externally."
      },
      "snapshotCumulativesInside(int24,int24)": {
        "notice": "Returns a snapshot of the tick cumulative, seconds per liquidity and seconds inside a tick range"
      },
      "tickBitmap(int16)": {
        "notice": "Returns 256 packed tick initialized boolean values. See TickBitmap for more information"
      },
      "tickSpacing()": {
        "notice": "The pool tick spacing"
      },
      "ticks(int24)": {
        "notice": "Look up information about a specific tick in the pool"
      },
      "token0()": {
        "notice": "The first of the two tokens of the pool, sorted by address"
      },
      "token1()": {
        "notice": "The second of the two tokens of the pool, sorted by address"
      }
    },
    "version": 1
  },
  "storageLayout": {
    "storage": [],
    "types": null
  }
}