{
  "address": "0x50eF0F57B2E878F0623EF993e574D4f8E13cE4AB",
  "abi": [
    {
      "inputs": [
        {
          "internalType": "contract IUniswapV3TWAPOracle",
          "name": "oracle_",
          "type": "address"
        }
      ],
      "stateMutability": "nonpayable",
      "type": "constructor"
    },
    {
      "inputs": [],
      "name": "T",
      "type": "error"
    },
    {
      "inputs": [],
      "name": "UniswapV3TWAPQuoter__NotAdmin",
      "type": "error"
    },
    {
      "inputs": [],
      "name": "UniswapV3TWAPQuoter__PairNotConfigured",
      "type": "error"
    },
    {
      "inputs": [
        {
          "components": [
            {
              "internalType": "address",
              "name": "baseToken",
              "type": "address"
            },
            {
              "internalType": "address",
              "name": "quoteToken",
              "type": "address"
            },
            {
              "internalType": "uint256",
              "name": "baseAmount",
              "type": "uint256"
            },
            {
              "internalType": "address",
              "name": "baseUsdFeed",
              "type": "address"
            },
            {
              "internalType": "address",
              "name": "quoteUsdFeed",
              "type": "address"
            }
          ],
          "internalType": "struct IOrangeQuoter.QuoteRequest",
          "name": "req",
          "type": "tuple"
        }
      ],
      "name": "getQuote",
      "outputs": [
        {
          "internalType": "uint256",
          "name": "quote",
          "type": "uint256"
        }
      ],
      "stateMutability": "view",
      "type": "function"
    },
    {
      "inputs": [
        {
          "internalType": "address",
          "name": "user",
          "type": "address"
        }
      ],
      "name": "isAdmin",
      "outputs": [
        {
          "internalType": "bool",
          "name": "",
          "type": "bool"
        }
      ],
      "stateMutability": "view",
      "type": "function"
    },
    {
      "inputs": [],
      "name": "oracle",
      "outputs": [
        {
          "internalType": "contract IUniswapV3TWAPOracle",
          "name": "",
          "type": "address"
        }
      ],
      "stateMutability": "view",
      "type": "function"
    },
    {
      "inputs": [
        {
          "internalType": "address",
          "name": "tokenA",
          "type": "address"
        },
        {
          "internalType": "address",
          "name": "tokenB",
          "type": "address"
        }
      ],
      "name": "pairId",
      "outputs": [
        {
          "internalType": "bytes32",
          "name": "",
          "type": "bytes32"
        }
      ],
      "stateMutability": "pure",
      "type": "function"
    },
    {
      "inputs": [
        {
          "internalType": "bytes32",
          "name": "pairId_",
          "type": "bytes32"
        },
        {
          "components": [
            {
              "internalType": "address",
              "name": "pool",
              "type": "address"
            },
            {
              "internalType": "uint32",
              "name": "duration",
              "type": "uint32"
            }
          ],
          "internalType": "struct UniswapV3TWAPQuoter.TWAPConfig",
          "name": "config",
          "type": "tuple"
        }
      ],
      "name": "setTWAPConfig",
      "outputs": [],
      "stateMutability": "nonpayable",
      "type": "function"
    },
    {
      "inputs": [
        {
          "internalType": "bytes32",
          "name": "pairId",
          "type": "bytes32"
        }
      ],
      "name": "twapConfigs",
      "outputs": [
        {
          "internalType": "address",
          "name": "pool",
          "type": "address"
        },
        {
          "internalType": "uint32",
          "name": "duration",
          "type": "uint32"
        }
      ],
      "stateMutability": "view",
      "type": "function"
    }
  ],
  "transactionHash": "0xe399c849e00921b90f620ab6e3432e7b35611115a6e063b2f855408c5bfc3d7c",
  "args": [
    "0x4487d08B77530AAdEb11459f1BC19b479f90d8F9"
  ],
  "numDeployments": 1,
  "solcInputHash": "b13c157a45086c1d6a9c56cbd08bab8f",
  "bytecode": "0x60a060405234801561001057600080fd5b50604051610b5a380380610b5a83398101604081905261002f9161005d565b6001600160a01b0316608052336000908152600160208190526040909120805460ff1916909117905561008d565b60006020828403121561006f57600080fd5b81516001600160a01b038116811461008657600080fd5b9392505050565b608051610aab6100af6000396000818161012101526103050152610aab6000f3fe608060405234801561001057600080fd5b50600436106100625760003560e01c80631799d61414610067578063210082c1146100c857806324d7806c146100e95780637dc0d1d01461011c578063b28cd2601461015b578063b524aa2a14610170575b600080fd5b61009f61007536600461086b565b6000602081905290815260409020546001600160a01b03811690600160a01b900463ffffffff1682565b604080516001600160a01b03909316835263ffffffff9091166020830152015b60405180910390f35b6100db6100d63660046108a0565b610183565b6040519081526020016100bf565b61010c6100f73660046108d3565b60016020526000908152604090205460ff1681565b60405190151581526020016100bf565b6101437f000000000000000000000000000000000000000000000000000000000000000081565b6040516001600160a01b0390911681526020016100bf565b61016e6101693660046108ee565b6101e2565b005b6100db61017e366004610982565b610259565b6000816001600160a01b0316836001600160a01b031610156101a3579091905b604080516001600160a01b0380861660208301528416918101919091526060016040516020818303038152906040528051906020012090505b92915050565b3360009081526001602052604090205460ff166102125760405163c7423ea760e01b815260040160405180910390fd5b60009182526020828152604090922081518154939092015163ffffffff16600160a01b026001600160c01b03199093166001600160a01b0390921691909117919091179055565b60008060008061027185600001518660200151610183565b815260208082019290925260409081016000208151808301909252546001600160a01b038116808352600160a01b90910463ffffffff169282019290925291506102ce5760405163b2af9ba560e01b815260040160405180910390fd5b805160208201516040516332cfc59160e01b81526001600160a01b03928316600482015263ffffffff9091166024820152610381917f000000000000000000000000000000000000000000000000000000000000000016906332cfc59190604401602060405180830381865afa15801561034c573d6000803e3d6000fd5b505050506040513d601f19601f820116820180604052508101906103709190610a17565b604085015185516020870151610388565b9392505050565b60008061039486610496565b90506001600160801b036001600160a01b0382161161041a5760006103c26001600160a01b03831680610a3a565b9050836001600160a01b0316856001600160a01b0316106103fa576103f5600160c01b876001600160801b0316836107b9565b610412565b61041281876001600160801b0316600160c01b6107b9565b92505061048d565b60006104396001600160a01b03831680680100000000000000006107b9565b9050836001600160a01b0316856001600160a01b0316106104715761046c600160801b876001600160801b0316836107b9565b610489565b61048981876001600160801b0316600160801b6107b9565b9250505b50949350505050565b60008060008360020b126104ad578260020b6104b5565b8260020b6000035b9050620d89e88111156104db576040516315e4079d60e11b815260040160405180910390fd5b6000816001166000036104f257600160801b610504565b6ffffcb933bd6fad37aa2d162d1a5940015b70ffffffffffffffffffffffffffffffffff1690506002821615610538576ffff97272373d413259a46990580e213a0260801c5b6004821615610557576ffff2e50f5f656932ef12357cf3c7fdcc0260801c5b6008821615610576576fffe5caca7e10e4e61c3624eaa0941cd00260801c5b6010821615610595576fffcb9843d60f6159c9db58835c9266440260801c5b60208216156105b4576fff973b41fa98c081472e6896dfb254c00260801c5b60408216156105d3576fff2ea16466c96a3843ec78b326b528610260801c5b60808216156105f2576ffe5dee046a99a2a811c461f1969c30530260801c5b610100821615610612576ffcbe86c7900a88aedcffc83b479aa3a40260801c5b610200821615610632576ff987a7253ac413176f2b074cf7815e540260801c5b610400821615610652576ff3392b0822b70005940c7a398e4b70f30260801c5b610800821615610672576fe7159475a2c29b7443b29c7fa6e889d90260801c5b611000821615610692576fd097f3bdfd2022b8845ad8f792aa58250260801c5b6120008216156106b2576fa9f746462d870fdf8a65dc1f90e061e50260801c5b6140008216156106d2576f70d869a156d2a1b890bb3df62baf32f70260801c5b6180008216156106f2576f31be135f97d08fd981231505542fcfa60260801c5b62010000821615610713576f09aa508b5b7a84e1c677de54f3e99bc90260801c5b62020000821615610733576e5d6af8dedb81196699c329225ee6040260801c5b62040000821615610752576d2216e584f5fa1ea926041bedfe980260801c5b6208000082161561076f576b048a170391f7dc42444e8fa20260801c5b60008460020b131561079057806000198161078c5761078c610a5f565b0490505b6401000000008106156107a45760016107a7565b60005b60ff16602082901c0192505050919050565b60008080600019858709858702925082811083820303915050806000036107f257600084116107e757600080fd5b508290049050610381565b8084116107fe57600080fd5b6000848688096000868103871696879004966002600389028118808a02820302808a02820302808a02820302808a02820302808a02820302808a02909103029181900381900460010186841190950394909402919094039290920491909117919091029150509392505050565b60006020828403121561087d57600080fd5b5035919050565b80356001600160a01b038116811461089b57600080fd5b919050565b600080604083850312156108b357600080fd5b6108bc83610884565b91506108ca60208401610884565b90509250929050565b6000602082840312156108e557600080fd5b61038182610884565b600080828403606081121561090257600080fd5b833592506040601f198201121561091857600080fd5b506040516040810181811067ffffffffffffffff8211171561094a57634e487b7160e01b600052604160045260246000fd5b60405261095960208501610884565b8152604084013563ffffffff8116811461097257600080fd5b6020820152919491935090915050565b600060a0828403121561099457600080fd5b60405160a0810181811067ffffffffffffffff821117156109c557634e487b7160e01b600052604160045260246000fd5b6040526109d183610884565b81526109df60208401610884565b6020820152604083013560408201526109fa60608401610884565b6060820152610a0b60808401610884565b60808201529392505050565b600060208284031215610a2957600080fd5b81518060020b811461038157600080fd5b80820281158282048414176101dc57634e487b7160e01b600052601160045260246000fd5b634e487b7160e01b600052601260045260246000fdfea264697066735822122050629ea31c04b8d941c0b0b28f8c4c53ec0f4b19e02aff4f821eb90eb74866ef64736f6c63430008130033",
  "devdoc": {
    "kind": "dev",
    "methods": {},
    "version": 1
  },
  "userdoc": {
    "kind": "user",
    "methods": {},
    "version": 1
  },
  "storageLayout": {
    "storage": [
      {
        "astId": 8509,
        "contract": "contracts/UniswapV3TWAPQuoter.sol:UniswapV3TWAPQuoter",
        "label": "twapConfigs",
        "offset": 0,
        "slot": "0",
        "type": "t_mapping(t_bytes32,t_struct(TWAPConfig)8501_storage)"
      },
      {
        "astId": 8513,
        "contract": "contracts/UniswapV3TWAPQuoter.sol:UniswapV3TWAPQuoter",
        "label": "isAdmin",
        "offset": 0,
        "slot": "1",
        "type": "t_mapping(t_address,t_bool)"
      }
    ],
    "types": {
      "t_address": {
        "encoding": "inplace",
        "label": "address",
        "numberOfBytes": "20"
      },
      "t_bool": {
        "encoding": "inplace",
        "label": "bool",
        "numberOfBytes": "1"
      },
      "t_bytes32": {
        "encoding": "inplace",
        "label": "bytes32",
        "numberOfBytes": "32"
      },
      "t_mapping(t_address,t_bool)": {
        "encoding": "mapping",
        "key": "t_address",
        "label": "mapping(address => bool)",
        "numberOfBytes": "32",
        "value": "t_bool"
      },
      "t_mapping(t_bytes32,t_struct(TWAPConfig)8501_storage)": {
        "encoding": "mapping",
        "key": "t_bytes32",
        "label": "mapping(bytes32 => struct UniswapV3TWAPQuoter.TWAPConfig)",
        "numberOfBytes": "32",
        "value": "t_struct(TWAPConfig)8501_storage"
      },
      "t_struct(TWAPConfig)8501_storage": {
        "encoding": "inplace",
        "label": "struct UniswapV3TWAPQuoter.TWAPConfig",
        "members": [
          {
            "astId": 8498,
            "contract": "contracts/UniswapV3TWAPQuoter.sol:UniswapV3TWAPQuoter",
            "label": "pool",
            "offset": 0,
            "slot": "0",
            "type": "t_address"
          },
          {
            "astId": 8500,
            "contract": "contracts/UniswapV3TWAPQuoter.sol:UniswapV3TWAPQuoter",
            "label": "duration",
            "offset": 20,
            "slot": "0",
            "type": "t_uint32"
          }
        ],
        "numberOfBytes": "32"
      },
      "t_uint32": {
        "encoding": "inplace",
        "label": "uint32",
        "numberOfBytes": "4"
      }
    }
  }
}