{
  "address": "0x548fEdffD5ba4D70D45FafABfF319003b2F2e309",
  "abi": [
    {
      "inputs": [],
      "stateMutability": "nonpayable",
      "type": "constructor"
    },
    {
      "inputs": [],
      "name": "AddressZero",
      "type": "error"
    },
    {
      "inputs": [],
      "name": "AmountZero",
      "type": "error"
    },
    {
      "inputs": [],
      "name": "DepositCapExceeded",
      "type": "error"
    },
    {
      "inputs": [],
      "name": "DepositTooSmall",
      "type": "error"
    },
    {
      "inputs": [],
      "name": "FeePipsTooHigh",
      "type": "error"
    },
    {
      "inputs": [],
      "name": "InvalidRebalanceParams",
      "type": "error"
    },
    {
      "inputs": [],
      "name": "MaxTicksReached",
      "type": "error"
    },
    {
      "inputs": [
        {
          "internalType": "uint256",
          "name": "minAssets",
          "type": "uint256"
        },
        {
          "internalType": "uint256",
          "name": "actualAssets",
          "type": "uint256"
        }
      ],
      "name": "MinAssetsRequired",
      "type": "error"
    },
    {
      "inputs": [],
      "name": "MinDepositAssetsTooSmall",
      "type": "error"
    },
    {
      "inputs": [],
      "name": "OnlyOwner",
      "type": "error"
    },
    {
      "inputs": [],
      "name": "SharesTooSmall",
      "type": "error"
    },
    {
      "inputs": [],
      "name": "T",
      "type": "error"
    },
    {
      "inputs": [],
      "name": "TokenAddressMismatch",
      "type": "error"
    },
    {
      "inputs": [],
      "name": "TokenNotPermitted",
      "type": "error"
    },
    {
      "inputs": [],
      "name": "UnsupportedDecimals",
      "type": "error"
    },
    {
      "anonymous": false,
      "inputs": [
        {
          "indexed": false,
          "internalType": "address",
          "name": "previousAdmin",
          "type": "address"
        },
        {
          "indexed": false,
          "internalType": "address",
          "name": "newAdmin",
          "type": "address"
        }
      ],
      "name": "AdminChanged",
      "type": "event"
    },
    {
      "anonymous": false,
      "inputs": [
        {
          "indexed": true,
          "internalType": "address",
          "name": "owner",
          "type": "address"
        },
        {
          "indexed": true,
          "internalType": "address",
          "name": "spender",
          "type": "address"
        },
        {
          "indexed": false,
          "internalType": "uint256",
          "name": "value",
          "type": "uint256"
        }
      ],
      "name": "Approval",
      "type": "event"
    },
    {
      "anonymous": false,
      "inputs": [
        {
          "indexed": true,
          "internalType": "address",
          "name": "beacon",
          "type": "address"
        }
      ],
      "name": "BeaconUpgraded",
      "type": "event"
    },
    {
      "anonymous": false,
      "inputs": [
        {
          "indexed": true,
          "internalType": "address",
          "name": "sender",
          "type": "address"
        },
        {
          "indexed": false,
          "internalType": "uint256",
          "name": "assets",
          "type": "uint256"
        },
        {
          "indexed": false,
          "internalType": "uint256",
          "name": "sharesMinted",
          "type": "uint256"
        }
      ],
      "name": "Deposit",
      "type": "event"
    },
    {
      "anonymous": false,
      "inputs": [
        {
          "indexed": false,
          "internalType": "uint256",
          "name": "depositCap",
          "type": "uint256"
        }
      ],
      "name": "DepositCapSet",
      "type": "event"
    },
    {
      "anonymous": false,
      "inputs": [
        {
          "indexed": false,
          "internalType": "uint24",
          "name": "depositFeePips",
          "type": "uint24"
        }
      ],
      "name": "DepositFeePipsSet",
      "type": "event"
    },
    {
      "anonymous": false,
      "inputs": [
        {
          "indexed": false,
          "internalType": "uint8",
          "name": "version",
          "type": "uint8"
        }
      ],
      "name": "Initialized",
      "type": "event"
    },
    {
      "anonymous": false,
      "inputs": [
        {
          "indexed": true,
          "internalType": "address",
          "name": "sender",
          "type": "address"
        },
        {
          "components": [
            {
              "internalType": "int24",
              "name": "tick",
              "type": "int24"
            },
            {
              "internalType": "uint128",
              "name": "liquidity",
              "type": "uint128"
            }
          ],
          "indexed": false,
          "internalType": "struct IOrangeStrykeLPAutomatorState.RebalanceTickInfo[]",
          "name": "ticksMint",
          "type": "tuple[]"
        },
        {
          "components": [
            {
              "internalType": "int24",
              "name": "tick",
              "type": "int24"
            },
            {
              "internalType": "uint128",
              "name": "liquidity",
              "type": "uint128"
            }
          ],
          "indexed": false,
          "internalType": "struct IOrangeStrykeLPAutomatorState.RebalanceTickInfo[]",
          "name": "ticksBurn",
          "type": "tuple[]"
        }
      ],
      "name": "Rebalance",
      "type": "event"
    },
    {
      "anonymous": false,
      "inputs": [
        {
          "indexed": true,
          "internalType": "address",
          "name": "sender",
          "type": "address"
        },
        {
          "indexed": false,
          "internalType": "uint256",
          "name": "shares",
          "type": "uint256"
        },
        {
          "indexed": false,
          "internalType": "uint256",
          "name": "assetsWithdrawn",
          "type": "uint256"
        }
      ],
      "name": "Redeem",
      "type": "event"
    },
    {
      "anonymous": false,
      "inputs": [
        {
          "indexed": false,
          "internalType": "address",
          "name": "user",
          "type": "address"
        },
        {
          "indexed": false,
          "internalType": "bool",
          "name": "approved",
          "type": "bool"
        }
      ],
      "name": "SetOwner",
      "type": "event"
    },
    {
      "anonymous": false,
      "inputs": [
        {
          "indexed": false,
          "internalType": "address",
          "name": "user",
          "type": "address"
        },
        {
          "indexed": false,
          "internalType": "bool",
          "name": "approved",
          "type": "bool"
        }
      ],
      "name": "SetStrategist",
      "type": "event"
    },
    {
      "anonymous": false,
      "inputs": [
        {
          "indexed": true,
          "internalType": "address",
          "name": "from",
          "type": "address"
        },
        {
          "indexed": true,
          "internalType": "address",
          "name": "to",
          "type": "address"
        },
        {
          "indexed": false,
          "internalType": "uint256",
          "name": "value",
          "type": "uint256"
        }
      ],
      "name": "Transfer",
      "type": "event"
    },
    {
      "anonymous": false,
      "inputs": [
        {
          "indexed": true,
          "internalType": "address",
          "name": "implementation",
          "type": "address"
        }
      ],
      "name": "Upgraded",
      "type": "event"
    },
    {
      "inputs": [
        {
          "internalType": "address",
          "name": "owner",
          "type": "address"
        },
        {
          "internalType": "address",
          "name": "spender",
          "type": "address"
        }
      ],
      "name": "allowance",
      "outputs": [
        {
          "internalType": "uint256",
          "name": "",
          "type": "uint256"
        }
      ],
      "stateMutability": "view",
      "type": "function"
    },
    {
      "inputs": [
        {
          "internalType": "address",
          "name": "spender",
          "type": "address"
        },
        {
          "internalType": "uint256",
          "name": "amount",
          "type": "uint256"
        }
      ],
      "name": "approve",
      "outputs": [
        {
          "internalType": "bool",
          "name": "",
          "type": "bool"
        }
      ],
      "stateMutability": "nonpayable",
      "type": "function"
    },
    {
      "inputs": [],
      "name": "asset",
      "outputs": [
        {
          "internalType": "contract IERC20",
          "name": "",
          "type": "address"
        }
      ],
      "stateMutability": "view",
      "type": "function"
    },
    {
      "inputs": [],
      "name": "assetUsdFeed",
      "outputs": [
        {
          "internalType": "address",
          "name": "",
          "type": "address"
        }
      ],
      "stateMutability": "view",
      "type": "function"
    },
    {
      "inputs": [
        {
          "internalType": "address",
          "name": "account",
          "type": "address"
        }
      ],
      "name": "balanceOf",
      "outputs": [
        {
          "internalType": "uint256",
          "name": "",
          "type": "uint256"
        }
      ],
      "stateMutability": "view",
      "type": "function"
    },
    {
      "inputs": [
        {
          "internalType": "uint256",
          "name": "shares",
          "type": "uint256"
        }
      ],
      "name": "convertToAssets",
      "outputs": [
        {
          "internalType": "uint256",
          "name": "",
          "type": "uint256"
        }
      ],
      "stateMutability": "view",
      "type": "function"
    },
    {
      "inputs": [
        {
          "internalType": "uint256",
          "name": "assets",
          "type": "uint256"
        }
      ],
      "name": "convertToShares",
      "outputs": [
        {
          "internalType": "uint256",
          "name": "",
          "type": "uint256"
        }
      ],
      "stateMutability": "view",
      "type": "function"
    },
    {
      "inputs": [],
      "name": "counterAsset",
      "outputs": [
        {
          "internalType": "contract IERC20",
          "name": "",
          "type": "address"
        }
      ],
      "stateMutability": "view",
      "type": "function"
    },
    {
      "inputs": [],
      "name": "counterAssetUsdFeed",
      "outputs": [
        {
          "internalType": "address",
          "name": "",
          "type": "address"
        }
      ],
      "stateMutability": "view",
      "type": "function"
    },
    {
      "inputs": [],
      "name": "decimals",
      "outputs": [
        {
          "internalType": "uint8",
          "name": "",
          "type": "uint8"
        }
      ],
      "stateMutability": "view",
      "type": "function"
    },
    {
      "inputs": [
        {
          "internalType": "address",
          "name": "spender",
          "type": "address"
        },
        {
          "internalType": "uint256",
          "name": "subtractedValue",
          "type": "uint256"
        }
      ],
      "name": "decreaseAllowance",
      "outputs": [
        {
          "internalType": "bool",
          "name": "",
          "type": "bool"
        }
      ],
      "stateMutability": "nonpayable",
      "type": "function"
    },
    {
      "inputs": [
        {
          "internalType": "uint256",
          "name": "assets",
          "type": "uint256"
        }
      ],
      "name": "deposit",
      "outputs": [
        {
          "internalType": "uint256",
          "name": "shares",
          "type": "uint256"
        }
      ],
      "stateMutability": "nonpayable",
      "type": "function"
    },
    {
      "inputs": [],
      "name": "depositCap",
      "outputs": [
        {
          "internalType": "uint256",
          "name": "",
          "type": "uint256"
        }
      ],
      "stateMutability": "view",
      "type": "function"
    },
    {
      "inputs": [],
      "name": "depositFeePips",
      "outputs": [
        {
          "internalType": "uint24",
          "name": "",
          "type": "uint24"
        }
      ],
      "stateMutability": "view",
      "type": "function"
    },
    {
      "inputs": [],
      "name": "depositFeeRecipient",
      "outputs": [
        {
          "internalType": "address",
          "name": "",
          "type": "address"
        }
      ],
      "stateMutability": "view",
      "type": "function"
    },
    {
      "inputs": [],
      "name": "getActiveTicks",
      "outputs": [
        {
          "internalType": "int24[]",
          "name": "",
          "type": "int24[]"
        }
      ],
      "stateMutability": "view",
      "type": "function"
    },
    {
      "inputs": [],
      "name": "handler",
      "outputs": [
        {
          "internalType": "contract IUniswapV3SingleTickLiquidityHandlerV2",
          "name": "",
          "type": "address"
        }
      ],
      "stateMutability": "view",
      "type": "function"
    },
    {
      "inputs": [],
      "name": "handlerHook",
      "outputs": [
        {
          "internalType": "address",
          "name": "",
          "type": "address"
        }
      ],
      "stateMutability": "view",
      "type": "function"
    },
    {
      "inputs": [
        {
          "internalType": "address",
          "name": "spender",
          "type": "address"
        },
        {
          "internalType": "uint256",
          "name": "addedValue",
          "type": "uint256"
        }
      ],
      "name": "increaseAllowance",
      "outputs": [
        {
          "internalType": "bool",
          "name": "",
          "type": "bool"
        }
      ],
      "stateMutability": "nonpayable",
      "type": "function"
    },
    {
      "inputs": [
        {
          "components": [
            {
              "internalType": "string",
              "name": "name",
              "type": "string"
            },
            {
              "internalType": "string",
              "name": "symbol",
              "type": "string"
            },
            {
              "internalType": "address",
              "name": "admin",
              "type": "address"
            },
            {
              "internalType": "contract IDopexV2PositionManager",
              "name": "manager",
              "type": "address"
            },
            {
              "internalType": "contract IUniswapV3SingleTickLiquidityHandlerV2",
              "name": "handler",
              "type": "address"
            },
            {
              "internalType": "address",
              "name": "handlerHook",
              "type": "address"
            },
            {
              "internalType": "contract ISwapRouter",
              "name": "router",
              "type": "address"
            },
            {
              "internalType": "contract IUniswapV3Pool",
              "name": "pool",
              "type": "address"
            },
            {
              "internalType": "contract IERC20",
              "name": "asset",
              "type": "address"
            },
            {
              "internalType": "contract ChainlinkQuoter",
              "name": "quoter",
              "type": "address"
            },
            {
              "internalType": "address",
              "name": "assetUsdFeed",
              "type": "address"
            },
            {
              "internalType": "address",
              "name": "counterAssetUsdFeed",
              "type": "address"
            },
            {
              "internalType": "uint256",
              "name": "minDepositAssets",
              "type": "uint256"
            }
          ],
          "internalType": "struct OrangeStrykeLPAutomatorV1_1.InitArgs",
          "name": "args",
          "type": "tuple"
        }
      ],
      "name": "initialize",
      "outputs": [],
      "stateMutability": "nonpayable",
      "type": "function"
    },
    {
      "inputs": [
        {
          "internalType": "address",
          "name": "",
          "type": "address"
        }
      ],
      "name": "isOwner",
      "outputs": [
        {
          "internalType": "bool",
          "name": "",
          "type": "bool"
        }
      ],
      "stateMutability": "view",
      "type": "function"
    },
    {
      "inputs": [
        {
          "internalType": "address",
          "name": "",
          "type": "address"
        }
      ],
      "name": "isStrategist",
      "outputs": [
        {
          "internalType": "bool",
          "name": "",
          "type": "bool"
        }
      ],
      "stateMutability": "view",
      "type": "function"
    },
    {
      "inputs": [],
      "name": "manager",
      "outputs": [
        {
          "internalType": "contract IDopexV2PositionManager",
          "name": "",
          "type": "address"
        }
      ],
      "stateMutability": "view",
      "type": "function"
    },
    {
      "inputs": [],
      "name": "minDepositAssets",
      "outputs": [
        {
          "internalType": "uint256",
          "name": "",
          "type": "uint256"
        }
      ],
      "stateMutability": "view",
      "type": "function"
    },
    {
      "inputs": [],
      "name": "name",
      "outputs": [
        {
          "internalType": "string",
          "name": "",
          "type": "string"
        }
      ],
      "stateMutability": "view",
      "type": "function"
    },
    {
      "inputs": [],
      "name": "pool",
      "outputs": [
        {
          "internalType": "contract IUniswapV3Pool",
          "name": "",
          "type": "address"
        }
      ],
      "stateMutability": "view",
      "type": "function"
    },
    {
      "inputs": [],
      "name": "poolTickSpacing",
      "outputs": [
        {
          "internalType": "int24",
          "name": "",
          "type": "int24"
        }
      ],
      "stateMutability": "view",
      "type": "function"
    },
    {
      "inputs": [],
      "name": "proxiableUUID",
      "outputs": [
        {
          "internalType": "bytes32",
          "name": "",
          "type": "bytes32"
        }
      ],
      "stateMutability": "view",
      "type": "function"
    },
    {
      "inputs": [],
      "name": "quoter",
      "outputs": [
        {
          "internalType": "contract ChainlinkQuoter",
          "name": "",
          "type": "address"
        }
      ],
      "stateMutability": "view",
      "type": "function"
    },
    {
      "inputs": [
        {
          "components": [
            {
              "internalType": "int24",
              "name": "tick",
              "type": "int24"
            },
            {
              "internalType": "uint128",
              "name": "liquidity",
              "type": "uint128"
            }
          ],
          "internalType": "struct IOrangeStrykeLPAutomatorState.RebalanceTickInfo[]",
          "name": "ticksMint",
          "type": "tuple[]"
        },
        {
          "components": [
            {
              "internalType": "int24",
              "name": "tick",
              "type": "int24"
            },
            {
              "internalType": "uint128",
              "name": "liquidity",
              "type": "uint128"
            }
          ],
          "internalType": "struct IOrangeStrykeLPAutomatorState.RebalanceTickInfo[]",
          "name": "ticksBurn",
          "type": "tuple[]"
        },
        {
          "components": [
            {
              "internalType": "uint256",
              "name": "assetsShortage",
              "type": "uint256"
            },
            {
              "internalType": "uint256",
              "name": "counterAssetsShortage",
              "type": "uint256"
            },
            {
              "internalType": "uint256",
              "name": "maxCounterAssetsUseForSwap",
              "type": "uint256"
            },
            {
              "internalType": "uint256",
              "name": "maxAssetsUseForSwap",
              "type": "uint256"
            }
          ],
          "internalType": "struct IOrangeStrykeLPAutomatorV1_1.RebalanceSwapParams",
          "name": "swapParams",
          "type": "tuple"
        }
      ],
      "name": "rebalance",
      "outputs": [],
      "stateMutability": "nonpayable",
      "type": "function"
    },
    {
      "inputs": [
        {
          "internalType": "uint256",
          "name": "shares",
          "type": "uint256"
        },
        {
          "internalType": "uint256",
          "name": "minAssets",
          "type": "uint256"
        }
      ],
      "name": "redeem",
      "outputs": [
        {
          "internalType": "uint256",
          "name": "assets",
          "type": "uint256"
        },
        {
          "components": [
            {
              "internalType": "uint256",
              "name": "tokenId",
              "type": "uint256"
            },
            {
              "internalType": "uint256",
              "name": "shares",
              "type": "uint256"
            }
          ],
          "internalType": "struct IOrangeStrykeLPAutomatorV1_1.LockedDopexShares[]",
          "name": "lockedDopexShares",
          "type": "tuple[]"
        }
      ],
      "stateMutability": "nonpayable",
      "type": "function"
    },
    {
      "inputs": [],
      "name": "router",
      "outputs": [
        {
          "internalType": "contract ISwapRouter",
          "name": "",
          "type": "address"
        }
      ],
      "stateMutability": "view",
      "type": "function"
    },
    {
      "inputs": [
        {
          "internalType": "uint256",
          "name": "_depositCap",
          "type": "uint256"
        }
      ],
      "name": "setDepositCap",
      "outputs": [],
      "stateMutability": "nonpayable",
      "type": "function"
    },
    {
      "inputs": [
        {
          "internalType": "address",
          "name": "recipient",
          "type": "address"
        },
        {
          "internalType": "uint24",
          "name": "pips",
          "type": "uint24"
        }
      ],
      "name": "setDepositFeePips",
      "outputs": [],
      "stateMutability": "nonpayable",
      "type": "function"
    },
    {
      "inputs": [
        {
          "internalType": "address",
          "name": "user",
          "type": "address"
        },
        {
          "internalType": "bool",
          "name": "approved",
          "type": "bool"
        }
      ],
      "name": "setOwner",
      "outputs": [],
      "stateMutability": "nonpayable",
      "type": "function"
    },
    {
      "inputs": [
        {
          "internalType": "address",
          "name": "user",
          "type": "address"
        },
        {
          "internalType": "bool",
          "name": "approved",
          "type": "bool"
        }
      ],
      "name": "setStrategist",
      "outputs": [],
      "stateMutability": "nonpayable",
      "type": "function"
    },
    {
      "inputs": [],
      "name": "symbol",
      "outputs": [
        {
          "internalType": "string",
          "name": "",
          "type": "string"
        }
      ],
      "stateMutability": "view",
      "type": "function"
    },
    {
      "inputs": [],
      "name": "totalAssets",
      "outputs": [
        {
          "internalType": "uint256",
          "name": "",
          "type": "uint256"
        }
      ],
      "stateMutability": "view",
      "type": "function"
    },
    {
      "inputs": [],
      "name": "totalSupply",
      "outputs": [
        {
          "internalType": "uint256",
          "name": "",
          "type": "uint256"
        }
      ],
      "stateMutability": "view",
      "type": "function"
    },
    {
      "inputs": [
        {
          "internalType": "address",
          "name": "to",
          "type": "address"
        },
        {
          "internalType": "uint256",
          "name": "amount",
          "type": "uint256"
        }
      ],
      "name": "transfer",
      "outputs": [
        {
          "internalType": "bool",
          "name": "",
          "type": "bool"
        }
      ],
      "stateMutability": "nonpayable",
      "type": "function"
    },
    {
      "inputs": [
        {
          "internalType": "address",
          "name": "from",
          "type": "address"
        },
        {
          "internalType": "address",
          "name": "to",
          "type": "address"
        },
        {
          "internalType": "uint256",
          "name": "amount",
          "type": "uint256"
        }
      ],
      "name": "transferFrom",
      "outputs": [
        {
          "internalType": "bool",
          "name": "",
          "type": "bool"
        }
      ],
      "stateMutability": "nonpayable",
      "type": "function"
    },
    {
      "inputs": [
        {
          "internalType": "address",
          "name": "newImplementation",
          "type": "address"
        }
      ],
      "name": "upgradeTo",
      "outputs": [],
      "stateMutability": "nonpayable",
      "type": "function"
    },
    {
      "inputs": [
        {
          "internalType": "address",
          "name": "newImplementation",
          "type": "address"
        },
        {
          "internalType": "bytes",
          "name": "data",
          "type": "bytes"
        }
      ],
      "name": "upgradeToAndCall",
      "outputs": [],
      "stateMutability": "payable",
      "type": "function"
    },
    {
      "inputs": [
        {
          "internalType": "contract IERC20",
          "name": "token",
          "type": "address"
        }
      ],
      "name": "withdraw",
      "outputs": [],
      "stateMutability": "nonpayable",
      "type": "function"
    }
  ],
  "transactionHash": "0x85826f0388a620a1ad53eef6197535633ae0fc6647506cfc847a6007365c85bd",
  "args": [],
  "numDeployments": 1,
  "solcInputHash": "64169439e7cf868f94dedb4f0f726aa5",
  "bytecode": "0x60a0604052306080523480156200001557600080fd5b506200002062000026565b620000e7565b600054610100900460ff1615620000935760405162461bcd60e51b815260206004820152602760248201527f496e697469616c697a61626c653a20636f6e747261637420697320696e697469604482015266616c697a696e6760c81b606482015260840160405180910390fd5b60005460ff90811614620000e5576000805460ff191660ff9081179091556040519081527f7f26b83ff96e1f2b6a682f133852f6798a09c465da95921460cefb38474024989060200160405180910390a15b565b608051615b506200011f60003960008181610ed101528181610f1a015281816110360152818161107601526113590152615b506000f3fe6080604052600436106102675760003560e01c80636734faee11610144578063bc94b7c2116100b6578063dbd5edc71161007a578063dbd5edc7146107a0578063dd62ed3e146107b6578063eba08b2a146107d6578063f86bd27a146107f6578063f887ea4014610816578063f93514af1461083657600080fd5b8063bc94b7c2146106f0578063c05e215614610720578063c6bbd5a714610740578063c6e6f59214610760578063c80916d41461078057600080fd5b8063863776e511610108578063863776e51461063b578063866512031461065b57806395d89b411461067b578063a457c2d714610690578063a9059cbb146106b0578063b6b55f25146106d057600080fd5b80636734faee1461054c57806370a082311461057c5780637164cf9b146105b2578063781faf64146105e65780637cbc23731461060d57600080fd5b80633659cfe6116101dd5780634f1ef286116101a15780634f1ef286146104a45780634f3f6c92146104b75780634fbed3a7146104d7578063516c731c146104f757806351cff8d91461051757806352d1902d1461053757600080fd5b80633659cfe6146103fd57806338d52e0f1461041f578063395093511461043f578063481c6a751461045f5780634c341e131461048457600080fd5b806318160ddd1161022f57806318160ddd1461033e57806323b872dd146103535780632687a183146103735780632f54bf6e14610389578063313ce567146103b9578063346ac01f146103db57600080fd5b806301e1d1141461026c57806306fdde031461029457806307a2d13a146102b6578063095ea7b3146102d657806316f0115b14610306575b600080fd5b34801561027857600080fd5b50610281610856565b6040519081526020015b60405180910390f35b3480156102a057600080fd5b506102a9610d0a565b60405161028b9190614a70565b3480156102c257600080fd5b506102816102d1366004614a83565b610d9c565b3480156102e257600080fd5b506102f66102f1366004614ac1565b610dd1565b604051901515815260200161028b565b34801561031257600080fd5b5060a654610326906001600160a01b031681565b6040516001600160a01b03909116815260200161028b565b34801561034a57600080fd5b50606754610281565b34801561035f57600080fd5b506102f661036e366004614aed565b610de8565b34801561037f57600080fd5b5061028160995481565b34801561039557600080fd5b506102f66103a4366004614b2e565b609c6020526000908152604090205460ff1681565b3480156103c557600080fd5b5060a05460405160ff909116815260200161028b565b3480156103e757600080fd5b506103f0610e0a565b60405161028b9190614b4b565b34801561040957600080fd5b5061041d610418366004614b2e565b610ec7565b005b34801561042b57600080fd5b50609754610326906001600160a01b031681565b34801561044b57600080fd5b506102f661045a366004614ac1565b610faf565b34801561046b57600080fd5b5060a0546103269061010090046001600160a01b031681565b34801561049057600080fd5b5061041d61049f366004614ba0565b610fd1565b61041d6104b2366004614cad565b61102c565b3480156104c357600080fd5b5060a454610326906001600160a01b031681565b3480156104e357600080fd5b5061041d6104f2366004614d21565b6110fc565b34801561050357600080fd5b5061041d610512366004614ba0565b6111e4565b34801561052357600080fd5b5061041d610532366004614b2e565b61123f565b34801561054357600080fd5b5061028161134c565b34801561055857600080fd5b506102f6610567366004614b2e565b609d6020526000908152604090205460ff1681565b34801561058857600080fd5b50610281610597366004614b2e565b6001600160a01b031660009081526065602052604090205490565b3480156105be57600080fd5b5060a7546105d390600160a01b900460020b81565b60405160029190910b815260200161028b565b3480156105f257600080fd5b50609b5461032690630100000090046001600160a01b031681565b34801561061957600080fd5b5061062d610628366004614d4f565b6113ff565b60405161028b929190614d71565b34801561064757600080fd5b5060a554610326906001600160a01b031681565b34801561066757600080fd5b5061041d610676366004614a83565b611bd9565b34801561068757600080fd5b506102a9611c44565b34801561069c57600080fd5b506102f66106ab366004614ac1565b611c53565b3480156106bc57600080fd5b506102f66106cb366004614ac1565b611cd9565b3480156106dc57600080fd5b506102816106eb366004614a83565b611ce6565b3480156106fc57600080fd5b50609b5461070c9062ffffff1681565b60405162ffffff909116815260200161028b565b34801561072c57600080fd5b5060a254610326906001600160a01b031681565b34801561074c57600080fd5b5060a354610326906001600160a01b031681565b34801561076c57600080fd5b5061028161077b366004614a83565b611e7a565b34801561078c57600080fd5b5060a154610326906001600160a01b031681565b3480156107ac57600080fd5b50610281609a5481565b3480156107c257600080fd5b506102816107d1366004614dc9565b611e98565b3480156107e257600080fd5b50609854610326906001600160a01b031681565b34801561080257600080fd5b5061041d610811366004614e42565b611ec3565b34801561082257600080fd5b5060a754610326906001600160a01b031681565b34801561084257600080fd5b5061041d610851366004614eed565b6120a7565b600080610863609e612835565b60a65460408051633850c7bd60e01b81529051929350600092839283928392839283928392839283926001600160a01b0390911691633850c7bd9160048082019260e0929091908290030181865afa1580156108c3573d6000803e3d6000fd5b505050506040513d601f19601f820116820180604052508101906108e79190615075565b505050505050905060005b8a811015610a8157610905609e8261283f565b60a75490985061091f90600160a01b900460020b8961511a565b60a65460a25460a154929950610946926001600160a01b0390811692811691168b8b61284b565b60a154604051627eeac760e11b815230600482015260248101839052919b506001600160a01b0316906328daa117906109c990839062fdd58e90604401602060405180830381865afa1580156109a0573d6000803e3d6000fd5b505050506040513d601f19601f820116820180604052508101906109c4919061513f565b6128a2565b6040516001600160e01b031960e084901b1681526001600160801b039091166004820152602481018d9052604401602060405180830381865afa158015610a14573d6000803e3d6000fd5b505050506040513d601f19601f82011682018060405250810190610a389190615178565b9850610a5c82610a4a8a60020b61290f565b610a568a60020b61290f565b8c612c32565b9094509250610a6b8487615195565b9550610a778386615195565b94506001016108f2565b506098546040516370a0823160e01b815230600482015260009182916001600160a01b03909116906370a0823190602401602060405180830381865afa158015610acf573d6000803e3d6000fd5b505050506040513d601f19601f82011682018060405250810190610af3919061513f565b6097546040516370a0823160e01b81523060048201526001600160a01b03909116906370a0823190602401602060405180830381865afa158015610b3b573d6000803e3d6000fd5b505050506040513d601f19601f82011682018060405250810190610b5f919061513f565b9150915060a660009054906101000a90046001600160a01b03166001600160a01b0316630dfe16816040518163ffffffff1660e01b8152600401602060405180830381865afa158015610bb6573d6000803e3d6000fd5b505050506040513d601f19601f82011682018060405250810190610bda91906151b3565b6097546001600160a01b03918216911603610c0c57610bf98683615195565b9150610c058782615195565b9050610c25565b610c168783615195565b9150610c228682615195565b90505b60a3546040805160a0810182526098546001600160a01b03908116825260975481166020830190815282840187815260a55483166060850190815260a480548516608087019081529651635a92551560e11b81529551851660048701529251841660248601529051604485015251821660648401529251811660848301529092169163b524aa2a9101602060405180830381865afa158015610ccb573d6000803e3d6000fd5b505050506040513d601f19601f82011682018060405250810190610cef919061513f565b610cf99082615195565b9c5050505050505050505050505090565b606060688054610d19906151d0565b80601f0160208091040260200160405190810160405280929190818152602001828054610d45906151d0565b8015610d925780601f10610d6757610100808354040283529160200191610d92565b820191906000526020600020905b815481529060010190602001808311610d7557829003601f168201915b5050505050905090565b600080610da860675490565b90508015610dc857610dc3610dbb610856565b849083612cce565b610dca565b825b9392505050565b6000610dde338484612d80565b5060015b92915050565b6000610df5843384612ea5565b610e00848484612f1f565b5060019392505050565b60606000610e18609e6130cb565b9050600081516001600160401b03811115610e3557610e35614bd9565b604051908082528060200260200182016040528015610e5e578160200160208202803683370190505b50905060005b8251811015610ec057828181518110610e7f57610e7f61520a565b6020026020010151828281518110610e9957610e9961520a565b602002602001019060020b908160020b815250508080610eb890615220565b915050610e64565b5092915050565b6001600160a01b037f0000000000000000000000000000000000000000000000000000000000000000163003610f185760405162461bcd60e51b8152600401610f0f90615239565b60405180910390fd5b7f00000000000000000000000000000000000000000000000000000000000000006001600160a01b0316610f61600080516020615ad4833981519152546001600160a01b031690565b6001600160a01b031614610f875760405162461bcd60e51b8152600401610f0f90615285565b610f90816130d8565b60408051600080825260208201909252610fac91839190613108565b50565b600033610e00818585610fc28383611e98565b610fcc9190615195565b612d80565b336000908152609c602052604090205460ff1661100157604051635fc483c560e01b815260040160405180910390fd5b6001600160a01b03919091166000908152609d60205260409020805460ff1916911515919091179055565b6001600160a01b037f00000000000000000000000000000000000000000000000000000000000000001630036110745760405162461bcd60e51b8152600401610f0f90615239565b7f00000000000000000000000000000000000000000000000000000000000000006001600160a01b03166110bd600080516020615ad4833981519152546001600160a01b031690565b6001600160a01b0316146110e35760405162461bcd60e51b8152600401610f0f90615285565b6110ec826130d8565b6110f882826001613108565b5050565b336000908152609c602052604090205460ff1661112c57604051635fc483c560e01b815260040160405180910390fd5b6001600160a01b03821661115357604051639fabe1c160e01b815260040160405180910390fd5b61271062ffffff8216111561117b5760405163d512085f60e01b815260040160405180910390fd5b609b80546001600160b81b03191663010000006001600160a01b0385160262ffffff19161762ffffff83169081179091556040519081527f441f852c079e8491a6e14ffc70f287f46d0c32b7d72d3839a9f2ab65c5261807906020015b60405180910390a15050565b336000908152609c602052604090205460ff1661121457604051635fc483c560e01b815260040160405180910390fd5b6001600160a01b03919091166000908152609c60205260409020805460ff1916911515919091179055565b336000908152609c602052604090205460ff1661126f57604051635fc483c560e01b815260040160405180910390fd5b6097546001600160a01b039081169082160361129e57604051630dd6624560e21b815260040160405180910390fd5b6098546001600160a01b03908116908216036112cd57604051630dd6624560e21b815260040160405180910390fd5b6040516370a0823160e01b8152306004820152610fac9033906001600160a01b038416906370a0823190602401602060405180830381865afa158015611317573d6000803e3d6000fd5b505050506040513d601f19601f8201168201806040525081019061133b919061513f565b6001600160a01b0384169190613278565b6000306001600160a01b037f000000000000000000000000000000000000000000000000000000000000000016146113ec5760405162461bcd60e51b815260206004820152603860248201527f555550535570677261646561626c653a206d757374206e6f742062652063616c60448201527f6c6564207468726f7567682064656c656761746563616c6c00000000000000006064820152608401610f0f565b50600080516020615ad483398151915290565b6000606083600003611424576040516365e52d5160e11b815260040160405180910390fd5b61142d84610d9c565b60000361144d576040516311a97cf760e11b815260040160405180910390fd5b600061145860675490565b905061146433866132db565b6098546040516370a0823160e01b81523060048201526000916001600160a01b0316906370a0823190602401602060405180830381865afa1580156114ad573d6000803e3d6000fd5b505050506040513d601f19601f820116820180604052508101906114d1919061513f565b6097546040516370a0823160e01b81523060048201529192506000916001600160a01b03909116906370a0823190602401602060405180830381865afa15801561151f573d6000803e3d6000fd5b505050506040513d601f19601f82011682018060405250810190611543919061513f565b905061157a6040518060a00160405280600060020b8152602001600081526020016000815260200160008152602001600081525090565b6000611586609e612835565b90506000816001600160401b038111156115a2576115a2614bd9565b6040519080825280602002602001820160405280156115e757816020015b60408051808201909152600080825260208201528152602001906001900390816115c05790505b50905060005b8281101561196c57611600609e8261283f565b600290810b80865260a65460a25460a75461164e946001600160a01b0393841694929093169261163991600160a01b9004900b8261511a565b60a1546001600160a01b03169392919061284b565b6020850181905260a1546000918291611674916001600160a01b03909116903090613407565b505060a15460208a0151604051637da68a6560e01b81526001600160801b0385166004820152602481019190915292955090935061171692508f918c916001600160a01b031690637da68a65906044015b602060405180830381865afa1580156116e2573d6000803e3d6000fd5b505050506040513d601f19601f820116820180604052508101906117069190615178565b6001600160801b03169190612cce565b606087015260a1546020870151604051637da68a6560e01b81526001600160801b03841660048201526024810191909152611767918f918c916001600160a01b031690637da68a65906044016116c5565b604087018190521561183357604051806040016040528087602001518152602001876040015181525084876080018051809190600101815250815181106117b0576117b061520a565b60209081029190910181019190915260a1549087015160408089015190516304ade6db60e11b8152336004820152602481019290925260448201526001600160a01b039091169063095bcdb690606401600060405180830381600087803b15801561181a57600080fd5b505af115801561182e573d6000803e3d6000fd5b505050505b6060860151156119625760a160009054906101000a90046001600160a01b03166001600160a01b0316635c975abb6040518163ffffffff1660e01b8152600401602060405180830381865afa158015611890573d6000803e3d6000fd5b505050506040513d601f19601f820116820180604052508101906118b491906152d1565b156119325760a154602087015160608801516040516304ade6db60e11b8152336004820152602481019290925260448201526001600160a01b039091169063095bcdb690606401600060405180830381600087803b15801561191557600080fd5b505af1158015611929573d6000803e3d6000fd5b50505050611962565b855160a754611962919061195090600160a01b900460020b8261511a565b61195d89606001516128a2565b6136b5565b50506001016115ed565b5082608001516001600160401b0381111561198957611989614bd9565b6040519080825280602002602001820160405280156119ce57816020015b60408051808201909152600080825260208201528152602001906001900390816119a75790505b50965060005b8360800151811015611a1f578181815181106119f2576119f261520a565b6020026020010151888281518110611a0c57611a0c61520a565b60209081029190910101526001016119d4565b506098546040516370a0823160e01b815230600482015260009187916001600160a01b03909116906370a0823190602401602060405180830381865afa158015611a6d573d6000803e3d6000fd5b505050506040513d601f19601f82011682018060405250810190611a91919061513f565b611a9c8d898b612cce565b611aa69190615195565b611ab091906152ee565b90508015611ac157611ac181613792565b6097546040516370a0823160e01b815230600482015286916001600160a01b0316906370a0823190602401602060405180830381865afa158015611b09573d6000803e3d6000fd5b505050506040513d601f19601f82011682018060405250810190611b2d919061513f565b611b388d888b612cce565b611b429190615195565b611b4c91906152ee565b985089891015611b795760405163982ed0cf60e01b8152600481018b9052602481018a9052604401610f0f565b609754611b90906001600160a01b0316338b613278565b604080518c8152602081018b905233917fe5b754fb1abb7f01b499791d0b820ae3b6af3424ac1c59768edb53f4ec31a929910160405180910390a2505050505050509250929050565b336000908152609c602052604090205460ff16611c0957604051635fc483c560e01b815260040160405180910390fd5b609a8190556040518181527f50e5341d7a4ad030a1a03c7b2bccfa67438c0bdf5c398a3b1d7a64babfbf97fe9060200160405180910390a150565b606060698054610d19906151d0565b60003381611c618286611e98565b905083811015611cc15760405162461bcd60e51b815260206004820152602560248201527f45524332303a2064656372656173656420616c6c6f77616e63652062656c6f77604482015264207a65726f60d81b6064820152608401610f0f565b611cce8286868403612d80565b506001949350505050565b6000610dde338484612f1f565b600081600003611d09576040516365e52d5160e11b815260040160405180910390fd5b609954821015611d2c57604051636ba4a1c760e01b815260040160405180910390fd5b609a54611d37610856565b611d419084615195565b1115611d60576040516324d758c360e21b815260040160405180910390fd5b6000611d6a610856565b609754909150611d85906001600160a01b03163330866138c3565b606754600003611db25760a0546103e860ff909116600a0a04611da96000826138fb565b83039150611dc1565b611dbe610dbb60675490565b91505b609b54600090611ddb90849062ffffff16620f4240612cce565b90508015611e0d57609b54611e0090630100000090046001600160a01b0316826138fb565b611e0a81846152ee565b92505b82600003611e2e57604051636ba4a1c760e01b815260040160405180910390fd5b611e3833846138fb565b604080518581526020810185905233917f90890809c654f11d6e72a28fa60149770a0d11ec6c92319d6ceb2bb0a4ea1a15910160405180910390a25050919050565b6000610de2611e8860675490565b611e90610856565b849190612cce565b6001600160a01b03918216600090815260666020908152604080832093909416825291909152205490565b336000908152609d602052604090205460ff16611ef357604051635fc483c560e01b815260040160405180910390fd5b6096611eff609e612835565b611f099086615195565b1115611f2857604051639e72942960e01b815260040160405180910390fd5b6000611f348484613966565b805190915015611fbb5760a054604051631592ca1b60e31b81526101009091046001600160a01b03169063ac9650d890611f72908490600401615317565b6000604051808303816000875af1158015611f91573d6000803e3d6000fd5b505050506040513d6000823e601f3d908101601f19168201604052611fb99190810190615379565b505b611fc482613bc0565b6000611fd08787613e00565b8051909150156120575760a054604051631592ca1b60e31b81526101009091046001600160a01b03169063ac9650d89061200e908490600401615317565b6000604051808303816000875af115801561202d573d6000803e3d6000fd5b505050506040513d6000823e601f3d908101601f191682016040526120559190810190615379565b505b336001600160a01b03167f1dd1286e7e35885a7d296f5a3fc8a2e7ace2ea4c879bbc4e2a422999039856138888888860405161209694939291906154d7565b60405180910390a250505050505050565b600054610100900460ff16158080156120c75750600054600160ff909116105b806120e15750303b1580156120e1575060005460ff166001145b6121445760405162461bcd60e51b815260206004820152602e60248201527f496e697469616c697a61626c653a20636f6e747261637420697320616c72656160448201526d191e481a5b9a5d1a585b1a5e995960921b6064820152608401610f0f565b6000805460ff191660011790558015612167576000805461ff0019166101001790555b8160e001516001600160a01b0316630dfe16816040518163ffffffff1660e01b8152600401602060405180830381865afa1580156121a9573d6000803e3d6000fd5b505050506040513d601f19601f820116820180604052508101906121cd91906151b3565b6001600160a01b03168261010001516001600160a01b03161415801561226f57508160e001516001600160a01b031663d21220a76040518163ffffffff1660e01b8152600401602060405180830381865afa158015612230573d6000803e3d6000fd5b505050506040513d601f19601f8201168201806040525081019061225491906151b3565b6001600160a01b03168261010001516001600160a01b031614155b1561228d57604051631438b5c960e11b815260040160405180910390fd5b6101408201516001600160a01b031615806122b457506101608201516001600160a01b0316155b156122d257604051639fabe1c160e01b815260040160405180910390fd5b6122e482600001518360200151613fdf565b8161010001516001600160a01b031663313ce5676040518163ffffffff1660e01b8152600401602060405180830381865afa158015612327573d6000803e3d6000fd5b505050506040513d601f19601f8201168201806040525081019061234b91906154fe565b60a0805461012085015160a380546001600160a01b03199081166001600160a01b039384161790915561014087015160a48054831691841691909117905561016087015160a580548316918416919091179055606087015160ff959095166001600160a81b0319909316929092176101009482168502178355608086015160a1805484169183169190911790559185015160a28054831691841691909117905560c085015160a78054831691841691909117905560e085015160a680548316918416918217905592850151609780549092169216918217905560408051630dfe168160e01b81529051919291630dfe1681916004818101926020929091908290030181865afa158015612462573d6000803e3d6000fd5b505050506040513d601f19601f8201168201806040525081019061248691906151b3565b6001600160a01b0316146124ff578160e001516001600160a01b0316630dfe16816040518163ffffffff1660e01b8152600401602060405180830381865afa1580156124d6573d6000803e3d6000fd5b505050506040513d601f19601f820116820180604052508101906124fa91906151b3565b612565565b8160e001516001600160a01b031663d21220a76040518163ffffffff1660e01b8152600401602060405180830381865afa158015612541573d6000803e3d6000fd5b505050506040513d601f19601f8201168201806040525081019061256591906151b3565b609860006101000a8154816001600160a01b0302191690836001600160a01b031602179055508160e001516001600160a01b031663d0c93a7c6040518163ffffffff1660e01b8152600401602060405180830381865afa1580156125cd573d6000803e3d6000fd5b505050506040513d601f19601f820116820180604052508101906125f19190615519565b60a7805462ffffff92909216600160a01b0262ffffff60a01b1990921691909117905560a054600360ff909116101561263d57604051636a78e98160e11b815260040160405180910390fd5b6098546040805163313ce56760e01b815290516003926001600160a01b03169163313ce5679160048083019260209291908290030181865afa158015612687573d6000803e3d6000fd5b505050506040513d601f19601f820116820180604052508101906126ab91906154fe565b60ff1610156126cd57604051636a78e98160e11b815260040160405180910390fd5b60a0546103e8906126e29060ff16600a61561a565b6126ec9190615629565b826101800151116127105760405163cd3de28d60e01b815260040160405180910390fd5b620f424082610180015110156127395760405163cd3de28d60e01b815260040160405180910390fd5b6101808201516099556060820151610100830151612765916001600160a01b0390911690600019614010565b61278e8260c001516000198461010001516001600160a01b03166140109092919063ffffffff16565b60608201516098546127ae916001600160a01b0390911690600019614010565b60c08201516098546127ce916001600160a01b0390911690600019614010565b6040808301516001600160a01b03166000908152609c60205220805460ff1916600117905580156110f8576000805461ff0019169055604051600181527f7f26b83ff96e1f2b6a682f133852f6798a09c465da95921460cefb3847402498906020016111d8565b6000610de2825490565b6000610dca83836140bd565b604080516001600160a01b0396871660208083019190915295871681830152939095166060840152600291820b6080840152900b60a0808301919091528351808303909101815260c0909101909252815191012090565b60006001600160801b0382111561290b5760405162461bcd60e51b815260206004820152602760248201527f53616665436173743a2076616c756520646f65736e27742066697420696e20316044820152663238206269747360c81b6064820152608401610f0f565b5090565b60008060008360020b12612926578260020b61292e565b8260020b6000035b9050620d89e8811115612954576040516315e4079d60e11b815260040160405180910390fd5b60008160011660000361296b57600160801b61297d565b6ffffcb933bd6fad37aa2d162d1a5940015b70ffffffffffffffffffffffffffffffffff16905060028216156129b1576ffff97272373d413259a46990580e213a0260801c5b60048216156129d0576ffff2e50f5f656932ef12357cf3c7fdcc0260801c5b60088216156129ef576fffe5caca7e10e4e61c3624eaa0941cd00260801c5b6010821615612a0e576fffcb9843d60f6159c9db58835c9266440260801c5b6020821615612a2d576fff973b41fa98c081472e6896dfb254c00260801c5b6040821615612a4c576fff2ea16466c96a3843ec78b326b528610260801c5b6080821615612a6b576ffe5dee046a99a2a811c461f1969c30530260801c5b610100821615612a8b576ffcbe86c7900a88aedcffc83b479aa3a40260801c5b610200821615612aab576ff987a7253ac413176f2b074cf7815e540260801c5b610400821615612acb576ff3392b0822b70005940c7a398e4b70f30260801c5b610800821615612aeb576fe7159475a2c29b7443b29c7fa6e889d90260801c5b611000821615612b0b576fd097f3bdfd2022b8845ad8f792aa58250260801c5b612000821615612b2b576fa9f746462d870fdf8a65dc1f90e061e50260801c5b614000821615612b4b576f70d869a156d2a1b890bb3df62baf32f70260801c5b618000821615612b6b576f31be135f97d08fd981231505542fcfa60260801c5b62010000821615612b8c576f09aa508b5b7a84e1c677de54f3e99bc90260801c5b62020000821615612bac576e5d6af8dedb81196699c329225ee6040260801c5b62040000821615612bcb576d2216e584f5fa1ea926041bedfe980260801c5b62080000821615612be8576b048a170391f7dc42444e8fa20260801c5b60008460020b1315612c09578060001981612c0557612c05615301565b0490505b640100000000810615612c1d576001612c20565b60005b60ff16602082901c0192505050919050565b600080836001600160a01b0316856001600160a01b03161115612c53579293925b846001600160a01b0316866001600160a01b031611612c7e57612c778585856140e7565b9150612cc5565b836001600160a01b0316866001600160a01b03161015612cb757612ca38685856140e7565b9150612cb0858785614156565b9050612cc5565b612cc2858585614156565b90505b94509492505050565b6000808060001985870985870292508281108382030391505080600003612d075760008411612cfc57600080fd5b508290049050610dca565b808411612d1357600080fd5b6000848688096000868103871696879004966002600389028118808a02820302808a02820302808a02820302808a02820302808a02820302808a02909103029181900381900460010186841190950394909402919094039290920491909117919091029150509392505050565b6001600160a01b038316612de25760405162461bcd60e51b8152602060048201526024808201527f45524332303a20617070726f76652066726f6d20746865207a65726f206164646044820152637265737360e01b6064820152608401610f0f565b6001600160a01b038216612e435760405162461bcd60e51b815260206004820152602260248201527f45524332303a20617070726f766520746f20746865207a65726f206164647265604482015261737360f01b6064820152608401610f0f565b6001600160a01b0383811660008181526066602090815260408083209487168084529482529182902085905590518481527f8c5be1e5ebec7d5bd14f71427d1e84f3dd0314c0f7b2291e5b200ac8c7c3b92591015b60405180910390a3505050565b6000612eb18484611e98565b90506000198114612f195781811015612f0c5760405162461bcd60e51b815260206004820152601d60248201527f45524332303a20696e73756666696369656e7420616c6c6f77616e63650000006044820152606401610f0f565b612f198484848403612d80565b50505050565b6001600160a01b038316612f835760405162461bcd60e51b815260206004820152602560248201527f45524332303a207472616e736665722066726f6d20746865207a65726f206164604482015264647265737360d81b6064820152608401610f0f565b6001600160a01b038216612fe55760405162461bcd60e51b815260206004820152602360248201527f45524332303a207472616e7366657220746f20746865207a65726f206164647260448201526265737360e81b6064820152608401610f0f565b6001600160a01b0383166000908152606560205260409020548181101561305d5760405162461bcd60e51b815260206004820152602660248201527f45524332303a207472616e7366657220616d6f756e7420657863656564732062604482015265616c616e636560d01b6064820152608401610f0f565b6001600160a01b0380851660008181526065602052604080822086860390559286168082529083902080548601905591517fddf252ad1be2c89b69c2b068fc378daa952ba7f163c4a11628f55a4df523b3ef906130bd9086815260200190565b60405180910390a350505050565b60606000610dca836141a1565b336000908152609c602052604090205460ff16610fac57604051635fc483c560e01b815260040160405180910390fd5b7f4910fdfa16fed3260ed0e7147f7cc6da11a60208b5b9406d12a635614ffd91435460ff16156131405761313b836141fd565b505050565b826001600160a01b03166352d1902d6040518163ffffffff1660e01b8152600401602060405180830381865afa92505050801561319a575060408051601f3d908101601f191682019092526131979181019061513f565b60015b6131fd5760405162461bcd60e51b815260206004820152602e60248201527f45524331393637557067726164653a206e657720696d706c656d656e7461746960448201526d6f6e206973206e6f74205555505360901b6064820152608401610f0f565b600080516020615ad4833981519152811461326c5760405162461bcd60e51b815260206004820152602960248201527f45524331393637557067726164653a20756e737570706f727465642070726f786044820152681a58589b195555525160ba1b6064820152608401610f0f565b5061313b838383614299565b6040516001600160a01b03831660248201526044810182905261313b90849063a9059cbb60e01b906064015b60408051601f198184030181529190526020810180516001600160e01b03166001600160e01b0319909316929092179091526142be565b6001600160a01b03821661333b5760405162461bcd60e51b815260206004820152602160248201527f45524332303a206275726e2066726f6d20746865207a65726f206164647265736044820152607360f81b6064820152608401610f0f565b6001600160a01b038216600090815260656020526040902054818110156133af5760405162461bcd60e51b815260206004820152602260248201527f45524332303a206275726e20616d6f756e7420657863656564732062616c616e604482015261636560f01b6064820152608401610f0f565b6001600160a01b03831660008181526065602090815260408083208686039055606780548790039055518581529192917fddf252ad1be2c89b69c2b068fc378daa952ba7f163c4a11628f55a4df523b3ef9101612e98565b604051627eeac760e11b81526001600160a01b03838116600483015260248201839052600091829182918291829182918a169062fdd58e90604401602060405180830381865afa15801561345f573d6000803e3d6000fd5b505050506040513d601f19601f82011682018060405250810190613483919061513f565b9050806000036134a557600080600080600095509550955095509550506136aa565b604051636ac3bc6b60e11b8152600481018890526000906001600160a01b038b169063d58778d6906024016101a060405180830381865afa1580156134ee573d6000803e3d6000fd5b505050506040513d601f19601f82011682018060405250810190613512919061565f565b6040516328daa11760e01b81526001600160801b0384166004820152602481018a90529091506001600160a01b038b16906328daa11790604401602060405180830381865afa158015613569573d6000803e3d6000fd5b505050506040513d601f19601f8201168201806040525081019061358d9190615178565b9650600081604001516001600160801b031682600001516001600160801b0316106135c857604082015182516135c3919061574f565b6135cb565b60005b905081600001516001600160801b0316886001600160801b03161180156135fb57506000816001600160801b0316115b1561360e5761360b60018261574f565b90505b806001600160801b0316886001600160801b03161161362e576000613638565b613638818961574f565b9550613644868961574f565b96506136748260a001516001600160801b0316886001600160801b031684600001516001600160801b0316612cce565b94506136a48260c001516001600160801b0316886001600160801b031684600001516001600160801b0316612cce565b93505050505b939792965093509350565b60a0805460a15460408051938401815260a6546001600160a01b03908116855260a2548116602080870191909152600289810b8785015288900b60608701526001600160801b0387166080870152915161010090940481169463e54b89b3949390911692613723920161576f565b6040516020818303038152906040526040518363ffffffff1660e01b815260040161374f9291906157c3565b6020604051808303816000875af115801561376e573d6000803e3d6000fd5b505050506040513d601f19601f82011682018060405250810190612f19919061513f565b60a75460408051610100810182526098546001600160a01b039081168252609754811660208084019190915260a654845163ddca3f4360e01b815285519684169663414bf38996860194929092169263ddca3f43926004808401938290030181865afa158015613806573d6000803e3d6000fd5b505050506040513d601f19601f8201168201806040525081019061382a91906157e7565b62ffffff168152602001306001600160a01b031681526020014281526020018481526020016000815260200160006001600160a01b03168152506040518263ffffffff1660e01b81526004016138809190615804565b6020604051808303816000875af115801561389f573d6000803e3d6000fd5b505050506040513d601f19601f820116820180604052508101906110f8919061513f565b6040516001600160a01b0380851660248301528316604482015260648101829052612f199085906323b872dd60e01b906084016132a4565b806067600082825461390d9190615195565b90915550506001600160a01b0382166000818152606560209081526040808320805486019055518481527fddf252ad1be2c89b69c2b068fc378daa952ba7f163c4a11628f55a4df523b3ef910160405180910390a35050565b6060600080808085806001600160401b0381111561398657613986614bd9565b6040519080825280602002602001820160405280156139b957816020015b60608152602001906001900390816139a45790505b50955060005b81811015613bb4578888828181106139d9576139d961520a565b6139ef926020604090920201908101915061586e565b60a754909650613a0990600160a01b900460020b8761511a565b60a65460a25460a154929750613a30926001600160a01b039081169281169116898961284b565b60a1549094506001600160a01b0316637da68a658a8a84818110613a5657613a5661520a565b9050604002016020016020810190613a6e919061588b565b6040516001600160e01b031960e084901b1681526001600160801b03909116600482015260248101879052604401602060405180830381865afa158015613ab9573d6000803e3d6000fd5b505050506040513d601f19601f82011682018060405250810190613add9190615178565b6001600160801b03169250613afb8686613af6866128a2565b614393565b878281518110613b0d57613b0d61520a565b602090810291909101015260a154604051627eeac760e11b81523060048201526024810186905284916001600160a01b03169062fdd58e90604401602060405180830381865afa158015613b65573d6000803e3d6000fd5b505050506040513d601f19601f82011682018060405250810190613b89919061513f565b613b9391906152ee565b600003613bac57613baa609e62ffffff8816614457565b505b6001016139bf565b50505050505092915050565b803515613d015760a75460408051610100810182526098546001600160a01b039081168252609754811660208084019190915260a654845163ddca3f4360e01b815285519684169663db3e219896860194929092169263ddca3f43926004808401938290030181865afa158015613c3b573d6000803e3d6000fd5b505050506040513d601f19601f82011682018060405250810190613c5f91906157e7565b62ffffff168152602001306001600160a01b03168152602001428152602001846000013581526020018460400135815260200160006001600160a01b03168152506040518263ffffffff1660e01b8152600401613cbc9190615804565b6020604051808303816000875af1158015613cdb573d6000803e3d6000fd5b505050506040513d601f19601f82011682018060405250810190613cff919061513f565b505b602081013515610fac5760a75460408051610100810182526097546001600160a01b039081168252609854811660208084019190915260a654845163ddca3f4360e01b815285519684169663db3e219896860194929092169263ddca3f43926004808401938290030181865afa158015613d7f573d6000803e3d6000fd5b505050506040513d601f19601f82011682018060405250810190613da391906157e7565b62ffffff168152602001306001600160a01b03168152602001428152602001846020013581526020018460600135815260200160006001600160a01b03168152506040518263ffffffff1660e01b81526004016138809190615804565b6060600080613e0f8585614463565b91509150816001600160401b03811115613e2b57613e2b614bd9565b604051908082528060200260200182016040528015613e5e57816020015b6060815260200190600190039081613e495790505b50925060008060008060005b88811015613fd257858103613e8157600101613e6a565b898982818110613e9357613e9361520a565b613ea9926020604090920201908101915061586e565b60a754909550613ec390600160a01b900460020b8661511a565b9350613ef985858c8c85818110613edc57613edc61520a565b9050604002016020016020810190613ef4919061588b565b6145c2565b888381518110613f0b57613f0b61520a565b602090810291909101015260a65460a25460a154613f3b926001600160a01b03918216929082169116888861284b565b60a154604051627eeac760e11b8152306004820152602481018390529194506001600160a01b03169062fdd58e90604401602060405180830381865afa158015613f89573d6000803e3d6000fd5b505050506040513d601f19601f82011682018060405250810190613fad919061513f565b600003613fc657613fc4609e62ffffff871661462d565b505b60019182019101613e6a565b5050505050505092915050565b600054610100900460ff166140065760405162461bcd60e51b8152600401610f0f906158a8565b6110f88282614639565b604051636eb1769f60e11b81523060048201526001600160a01b0383811660248301526000919085169063dd62ed3e90604401602060405180830381865afa158015614060573d6000803e3d6000fd5b505050506040513d601f19601f82011682018060405250810190614084919061513f565b9050612f198463095ea7b360e01b8561409d8686615195565b6040516001600160a01b03909216602483015260448201526064016132a4565b60008260000182815481106140d4576140d461520a565b9060005260206000200154905092915050565b6000826001600160a01b0316846001600160a01b03161115614107579192915b836001600160a01b0316614140606060ff16846001600160801b0316901b8686036001600160a01b0316866001600160a01b0316612cce565b8161414d5761414d615301565b04949350505050565b6000826001600160a01b0316846001600160a01b03161115614176579192915b614199826001600160801b03168585036001600160a01b0316600160601b612cce565b949350505050565b6060816000018054806020026020016040519081016040528092919081815260200182805480156141f157602002820191906000526020600020905b8154815260200190600101908083116141dd575b50505050509050919050565b6001600160a01b0381163b61426a5760405162461bcd60e51b815260206004820152602d60248201527f455243313936373a206e657720696d706c656d656e746174696f6e206973206e60448201526c1bdd08184818dbdb9d1c9858dd609a1b6064820152608401610f0f565b600080516020615ad483398151915280546001600160a01b0319166001600160a01b0392909216919091179055565b6142a283614679565b6000825111806142af5750805b1561313b57612f1983836146b9565b6000614313826040518060400160405280602081526020017f5361666545524332303a206c6f772d6c6576656c2063616c6c206661696c6564815250856001600160a01b03166146de9092919063ffffffff16565b905080516000148061433457508080602001905181019061433491906152d1565b61313b5760405162461bcd60e51b815260206004820152602a60248201527f5361666545524332303a204552433230206f7065726174696f6e20646964206e6044820152691bdd081cdd58d8d9595960b21b6064820152608401610f0f565b60a1546040805160a08101825260a6546001600160a01b03908116825260a2548116602080840191909152600288810b8486015287900b6060848101919091526001600160801b03871660808501529351939463e54b89b360e01b949216926143fe9290910161576f565b60408051601f198184030181529082905261441c92916024016157c3565b60408051601f198184030181529190526020810180516001600160e01b03166001600160e01b03199093169290921790915290509392505050565b6000610dca83836146ed565b60a65460408051633850c7bd60e01b815290518392600092849284926001600160a01b031691633850c7bd9160048083019260e09291908290030181865afa1580156144b3573d6000803e3d6000fd5b505050506040513d601f19601f820116820180604052508101906144d79190615075565b5050505050915050600060a760149054906101000a900460020b90506000808360020b128015614512575061450c82846158f3565b60020b15155b61453057816145218185615915565b61452b919061594f565b614551565b81600161453d8286615915565b614547919061596f565b614551919061594f565b905060005b848110156145a9578160020b8989838181106145745761457461520a565b61458a926020604090920201908101915061586e565b60020b036145a157600019909601959450846145a9565b600101614556565b508386036145b75760001994505b505050509250929050565b60a1546040805160a08101825260a6546001600160a01b03908116825260a2548116602080840191909152600288810b8486015287900b6060848101919091526001600160801b038716608085015293519394633e58089b60e21b949216926143fe9290910161576f565b6000610dca83836147e0565b600054610100900460ff166146605760405162461bcd60e51b8152600401610f0f906158a8565b606861466c83826159e2565b50606961313b82826159e2565b614682816141fd565b6040516001600160a01b038216907fbc7cd75a20ee27fd9adebab32041f755214dbc6bffa90cc0225b39da2e5c2d3b90600090a250565b6060610dca8383604051806060016040528060278152602001615af46027913961482f565b606061419984846000856148a7565b600081815260018301602052604081205480156147d65760006147116001836152ee565b8554909150600090614725906001906152ee565b905081811461478a5760008660000182815481106147455761474561520a565b90600052602060002001549050808760000184815481106147685761476861520a565b6000918252602080832090910192909255918252600188019052604090208390555b855486908061479b5761479b615aa1565b600190038181906000526020600020016000905590558560010160008681526020019081526020016000206000905560019350505050610de2565b6000915050610de2565b600081815260018301602052604081205461482757508154600181810184556000848152602080822090930184905584548482528286019093526040902091909155610de2565b506000610de2565b6060600080856001600160a01b03168560405161484c9190615ab7565b600060405180830381855af49150503d8060008114614887576040519150601f19603f3d011682016040523d82523d6000602084013e61488c565b606091505b509150915061489d86838387614982565b9695505050505050565b6060824710156149085760405162461bcd60e51b815260206004820152602660248201527f416464726573733a20696e73756666696369656e742062616c616e636520666f6044820152651c8818d85b1b60d21b6064820152608401610f0f565b600080866001600160a01b031685876040516149249190615ab7565b60006040518083038185875af1925050503d8060008114614961576040519150601f19603f3d011682016040523d82523d6000602084013e614966565b606091505b509150915061497787838387614982565b979650505050505050565b606083156149f15782516000036149ea576001600160a01b0385163b6149ea5760405162461bcd60e51b815260206004820152601d60248201527f416464726573733a2063616c6c20746f206e6f6e2d636f6e74726163740000006044820152606401610f0f565b5081614199565b6141998383815115614a065781518083602001fd5b8060405162461bcd60e51b8152600401610f0f9190614a70565b60005b83811015614a3b578181015183820152602001614a23565b50506000910152565b60008151808452614a5c816020860160208601614a20565b601f01601f19169290920160200192915050565b602081526000610dca6020830184614a44565b600060208284031215614a9557600080fd5b5035919050565b6001600160a01b0381168114610fac57600080fd5b8035614abc81614a9c565b919050565b60008060408385031215614ad457600080fd5b8235614adf81614a9c565b946020939093013593505050565b600080600060608486031215614b0257600080fd5b8335614b0d81614a9c565b92506020840135614b1d81614a9c565b929592945050506040919091013590565b600060208284031215614b4057600080fd5b8135610dca81614a9c565b6020808252825182820181905260009190848201906040850190845b81811015614b8657835160020b83529284019291840191600101614b67565b50909695505050505050565b8015158114610fac57600080fd5b60008060408385031215614bb357600080fd5b8235614bbe81614a9c565b91506020830135614bce81614b92565b809150509250929050565b634e487b7160e01b600052604160045260246000fd5b6040516101a081016001600160401b0381118282101715614c1257614c12614bd9565b60405290565b604051601f8201601f191681016001600160401b0381118282101715614c4057614c40614bd9565b604052919050565b60006001600160401b03821115614c6157614c61614bd9565b50601f01601f191660200190565b6000614c82614c7d84614c48565b614c18565b9050828152838383011115614c9657600080fd5b828260208301376000602084830101529392505050565b60008060408385031215614cc057600080fd5b8235614ccb81614a9c565b915060208301356001600160401b03811115614ce657600080fd5b8301601f81018513614cf757600080fd5b614d0685823560208401614c6f565b9150509250929050565b62ffffff81168114610fac57600080fd5b60008060408385031215614d3457600080fd5b8235614d3f81614a9c565b91506020830135614bce81614d10565b60008060408385031215614d6257600080fd5b50508035926020909101359150565b6000604080830185845260208281860152818651808452606087019150828801935060005b81811015614dbb57845180518452840151848401529383019391850191600101614d96565b509098975050505050505050565b60008060408385031215614ddc57600080fd5b8235614de781614a9c565b91506020830135614bce81614a9c565b60008083601f840112614e0957600080fd5b5081356001600160401b03811115614e2057600080fd5b6020830191508360208260061b8501011115614e3b57600080fd5b9250929050565b600080600080600085870360c0811215614e5b57600080fd5b86356001600160401b0380821115614e7257600080fd5b614e7e8a838b01614df7565b90985096506020890135915080821115614e9757600080fd5b50614ea489828a01614df7565b9095509350506080603f1982011215614ebc57600080fd5b506040860190509295509295909350565b600082601f830112614ede57600080fd5b610dca83833560208501614c6f565b600060208284031215614eff57600080fd5b81356001600160401b0380821115614f1657600080fd5b908301906101a08286031215614f2b57600080fd5b614f33614bef565b823582811115614f4257600080fd5b614f4e87828601614ecd565b825250602083013582811115614f6357600080fd5b614f6f87828601614ecd565b602083015250614f8160408401614ab1565b6040820152614f9260608401614ab1565b6060820152614fa360808401614ab1565b6080820152614fb460a08401614ab1565b60a0820152614fc560c08401614ab1565b60c0820152614fd660e08401614ab1565b60e08201526101009150614feb828401614ab1565b828201526101209150614fff828401614ab1565b828201526101409150615013828401614ab1565b828201526101609150615027828401614ab1565b9181019190915261018091820135918101919091529392505050565b8060020b8114610fac57600080fd5b805161ffff81168114614abc57600080fd5b805160ff81168114614abc57600080fd5b600080600080600080600060e0888a03121561509057600080fd5b875161509b81614a9c565b60208901519097506150ac81615043565b95506150ba60408901615052565b94506150c860608901615052565b93506150d660808901615052565b92506150e460a08901615064565b915060c08801516150f481614b92565b8091505092959891949750929550565b634e487b7160e01b600052601160045260246000fd5b600281810b9083900b01627fffff8113627fffff1982121715610de257610de2615104565b60006020828403121561515157600080fd5b5051919050565b6001600160801b0381168114610fac57600080fd5b8051614abc81615158565b60006020828403121561518a57600080fd5b8151610dca81615158565b80820180821115610de257610de2615104565b8051614abc81614a9c565b6000602082840312156151c557600080fd5b8151610dca81614a9c565b600181811c908216806151e457607f821691505b60208210810361520457634e487b7160e01b600052602260045260246000fd5b50919050565b634e487b7160e01b600052603260045260246000fd5b60006001820161523257615232615104565b5060010190565b6020808252602c908201527f46756e6374696f6e206d7573742062652063616c6c6564207468726f7567682060408201526b19195b1959d85d1958d85b1b60a21b606082015260800190565b6020808252602c908201527f46756e6374696f6e206d7573742062652063616c6c6564207468726f7567682060408201526b6163746976652070726f787960a01b606082015260800190565b6000602082840312156152e357600080fd5b8151610dca81614b92565b81810381811115610de257610de2615104565b634e487b7160e01b600052601260045260246000fd5b6000602080830181845280855180835260408601915060408160051b870101925083870160005b8281101561536c57603f1988860301845261535a858351614a44565b9450928501929085019060010161533e565b5092979650505050505050565b6000602080838503121561538c57600080fd5b82516001600160401b03808211156153a357600080fd5b818501915085601f8301126153b757600080fd5b8151818111156153c9576153c9614bd9565b8060051b6153d8858201614c18565b91825283810185019185810190898411156153f257600080fd5b86860192505b8383101561546a578251858111156154105760008081fd5b8601603f81018b136154225760008081fd5b878101516040615434614c7d83614c48565b8281528d828486010111156154495760008081fd5b615458838c8301848701614a20565b855250505091860191908601906153f8565b9998505050505050505050565b8183526000602080850194508260005b858110156154cc57813561549a81615043565b60020b8752818301356154ac81615158565b6001600160801b0316878401526040968701969190910190600101615487565b509495945050505050565b6040815260006154eb604083018688615477565b8281036020840152614977818587615477565b60006020828403121561551057600080fd5b610dca82615064565b60006020828403121561552b57600080fd5b8151610dca81615043565b600181815b8085111561557157816000190482111561555757615557615104565b8085161561556457918102915b93841c939080029061553b565b509250929050565b60008261558857506001610de2565b8161559557506000610de2565b81600181146155ab57600281146155b5576155d1565b6001915050610de2565b60ff8411156155c6576155c6615104565b50506001821b610de2565b5060208310610133831016604e8410600b84101617156155f4575081810a610de2565b6155fe8383615536565b806000190482111561561257615612615104565b029392505050565b6000610dca60ff841683615579565b60008261563857615638615301565b500490565b80516001600160401b0381168114614abc57600080fd5b8051614abc81614d10565b60006101a0828403121561567257600080fd5b61567a614bef565b6156838361516d565b81526156916020840161516d565b60208201526156a26040840161516d565b604082015260608301516060820152608083015160808201526156c760a0840161516d565b60a08201526156d860c0840161516d565b60c08201526156e960e0840161563d565b60e08201526101006156fc81850161516d565b9082015261012061570e8482016151a8565b908201526101406157208482016151a8565b90820152610160615732848201615654565b9082015261018061574484820161516d565b908201529392505050565b6001600160801b03828116828216039080821115610ec057610ec0615104565b60a08101610de2828460018060a01b0380825116835280602083015116602084015250604081015160020b6040830152606081015160020b60608301526001600160801b0360808201511660808301525050565b6001600160a01b038316815260406020820181905260009061419990830184614a44565b6000602082840312156157f957600080fd5b8151610dca81614d10565b6101008101610de2828480516001600160a01b03908116835260208083015182169084015260408083015162ffffff16908401526060808301518216908401526080808301519084015260a0828101519084015260c0808301519084015260e09182015116910152565b60006020828403121561588057600080fd5b8135610dca81615043565b60006020828403121561589d57600080fd5b8135610dca81615158565b6020808252602b908201527f496e697469616c697a61626c653a20636f6e7472616374206973206e6f74206960408201526a6e697469616c697a696e6760a81b606082015260800190565b60008260020b8061590657615906615301565b808360020b0791505092915050565b60008160020b8360020b8061592c5761592c615301565b627fffff1982146000198214161561594657615946615104565b90059392505050565b60008260020b8260020b028060020b9150808214610ec057610ec0615104565b600282810b9082900b03627fffff198112627fffff82131715610de257610de2615104565b601f82111561313b57600081815260208120601f850160051c810160208610156159bb5750805b601f850160051c820191505b818110156159da578281556001016159c7565b505050505050565b81516001600160401b038111156159fb576159fb614bd9565b615a0f81615a0984546151d0565b84615994565b602080601f831160018114615a445760008415615a2c5750858301515b600019600386901b1c1916600185901b1785556159da565b600085815260208120601f198616915b82811015615a7357888601518255948401946001909101908401615a54565b5085821015615a915787850151600019600388901b60f8161c191681555b5050505050600190811b01905550565b634e487b7160e01b600052603160045260246000fd5b60008251615ac9818460208701614a20565b919091019291505056fe360894a13ba1a3210667c828492db98dca3e2076cc3735a920a3ca505d382bbc416464726573733a206c6f772d6c6576656c2064656c65676174652063616c6c206661696c6564a26469706673582212200141ea08a3f0b46a7dbdcbd7ccaf09df73f9b45a1474aa03fc0239bc7505348864736f6c63430008130033",
  "devdoc": {
    "author": "Orange Finance",
    "details": "Automate liquidity provision of Stryke CLAMM",
    "events": {
      "AdminChanged(address,address)": {
        "details": "Emitted when the admin account has changed."
      },
      "Approval(address,address,uint256)": {
        "details": "Emitted when the allowance of a `spender` for an `owner` is set by a call to {approve}. `value` is the new allowance."
      },
      "BeaconUpgraded(address)": {
        "details": "Emitted when the beacon is changed."
      },
      "Initialized(uint8)": {
        "details": "Triggered when the contract has been initialized or reinitialized."
      },
      "Transfer(address,address,uint256)": {
        "details": "Emitted when `value` tokens are moved from one account (`from`) to another (`to`). Note that `value` may be zero."
      },
      "Upgraded(address)": {
        "details": "Emitted when the implementation is upgraded."
      }
    },
    "kind": "dev",
    "methods": {
      "allowance(address,address)": {
        "details": "See {IERC20-allowance}."
      },
      "approve(address,uint256)": {
        "details": "See {IERC20-approve}. NOTE: If `amount` is the maximum `uint256`, the allowance is not updated on `transferFrom`. This is semantically equivalent to an infinite approval. Requirements: - `spender` cannot be the zero address."
      },
      "balanceOf(address)": {
        "details": "See {IERC20-balanceOf}."
      },
      "constructor": {
        "custom:oz-upgrades-unsafe-allow": "constructor"
      },
      "convertToAssets(uint256)": {
        "details": "Converts the given amount of shares to assets based on the total supply and total assets.",
        "params": {
          "shares": "The amount of shares to convert to assets."
        },
        "returns": {
          "_0": "The converted amount of assets."
        }
      },
      "convertToShares(uint256)": {
        "details": "Converts the given amount of assets to shares based on the total supply and total assets.",
        "params": {
          "assets": "The amount of assets to convert to shares."
        },
        "returns": {
          "_0": "The converted amount of shares."
        }
      },
      "decimals()": {
        "details": "Returns the number of decimals used to get its user representation. For example, if `decimals` equals `2`, a balance of `505` tokens should be displayed to a user as `5.05` (`505 / 10 ** 2`). Tokens usually opt for a value of 18, imitating the relationship between Ether and Wei. This is the default value returned by this function, unless it's overridden. NOTE: This information is only used for _display_ purposes: it in no way affects any of the arithmetic of the contract, including {IERC20-balanceOf} and {IERC20-transfer}."
      },
      "decreaseAllowance(address,uint256)": {
        "details": "Atomically decreases the allowance granted to `spender` by the caller. This is an alternative to {approve} that can be used as a mitigation for problems described in {IERC20-approve}. Emits an {Approval} event indicating the updated allowance. Requirements: - `spender` cannot be the zero address. - `spender` must have allowance for the caller of at least `subtractedValue`."
      },
      "deposit(uint256)": {
        "details": "Deposits the specified amount of assets into the contract and returns the corresponding number of shares.",
        "params": {
          "assets": "The amount of assets to deposit."
        },
        "returns": {
          "shares": "The number of shares received after the deposit."
        }
      },
      "getActiveTicks()": {
        "details": "Retrieves the active ticks as an array of int24 values.",
        "returns": {
          "_0": "An array of int24 values representing the active ticks."
        }
      },
      "increaseAllowance(address,uint256)": {
        "details": "Atomically increases the allowance granted to `spender` by the caller. This is an alternative to {approve} that can be used as a mitigation for problems described in {IERC20-approve}. Emits an {Approval} event indicating the updated allowance. Requirements: - `spender` cannot be the zero address."
      },
      "name()": {
        "details": "Returns the name of the token."
      },
      "proxiableUUID()": {
        "details": "Implementation of the ERC1822 {proxiableUUID} function. This returns the storage slot used by the implementation. It is used to validate the implementation's compatibility when performing an upgrade. IMPORTANT: A proxy pointing at a proxiable contract should not be considered proxiable itself, because this risks bricking a proxy that upgrades to it, by delegating to itself until out of gas. Thus it is critical that this function revert if invoked through a proxy. This is guaranteed by the `notDelegated` modifier."
      },
      "rebalance((int24,uint128)[],(int24,uint128)[],(uint256,uint256,uint256,uint256))": {
        "details": "Rebalance the liquidity positions in the OrangeDopexV2LPAutomatorV1 contract. Only the address with the STRATEGIST_ROLE can call this function.",
        "params": {
          "swapParams": "A RebalanceSwapParams struct representing the swap parameters for rebalancing.",
          "ticksBurn": "An array of RebalanceTickInfo structs representing the ticks to be burned.",
          "ticksMint": "An array of RebalanceTickInfo structs representing the ticks to be minted."
        }
      },
      "redeem(uint256,uint256)": {
        "details": "Redeems a specified number of shares and returns the redeemed assets along with the locked Dopex shares.",
        "params": {
          "minAssets": "The minimum required assets to be redeemed.",
          "shares": "The number of shares to redeem."
        },
        "returns": {
          "assets": "The redeemed assets.",
          "lockedDopexShares": "An array of locked Dopex shares."
        }
      },
      "setDepositCap(uint256)": {
        "details": "Sets the deposit cap for the automator.",
        "params": {
          "_depositCap": "The new deposit cap value. Requirements: - Caller must have the DEFAULT_ADMIN_ROLE."
        }
      },
      "setDepositFeePips(address,uint24)": {
        "details": "Sets the deposit fee pips for a recipient.",
        "params": {
          "pips": "The new deposit fee pips value. Requirements: - Caller must have the DEFAULT_ADMIN_ROLE. - Recipient address must not be zero. - deposit fee pips must not exceed MAX_PERF_FEE_PIPS.",
          "recipient": "The address of the recipient."
        }
      },
      "symbol()": {
        "details": "Returns the symbol of the token, usually a shorter version of the name."
      },
      "totalAssets()": {
        "details": "Calculates the total assets in the automator contract. It includes the assets in the Dopex pools and the automator contract itself.",
        "returns": {
          "_0": "The total assets in the automator contract."
        }
      },
      "totalSupply()": {
        "details": "See {IERC20-totalSupply}."
      },
      "transfer(address,uint256)": {
        "details": "See {IERC20-transfer}. Requirements: - `to` cannot be the zero address. - the caller must have a balance of at least `amount`."
      },
      "transferFrom(address,address,uint256)": {
        "details": "See {IERC20-transferFrom}. Emits an {Approval} event indicating the updated allowance. This is not required by the EIP. See the note at the beginning of {ERC20}. NOTE: Does not update the allowance if the current allowance is the maximum `uint256`. Requirements: - `from` and `to` cannot be the zero address. - `from` must have a balance of at least `amount`. - the caller must have allowance for ``from``'s tokens of at least `amount`."
      },
      "upgradeTo(address)": {
        "custom:oz-upgrades-unsafe-allow-reachable": "delegatecall",
        "details": "Upgrade the implementation of the proxy to `newImplementation`. Calls {_authorizeUpgrade}. Emits an {Upgraded} event."
      },
      "upgradeToAndCall(address,bytes)": {
        "custom:oz-upgrades-unsafe-allow-reachable": "delegatecall",
        "details": "Upgrade the implementation of the proxy to `newImplementation`, and subsequently execute the function call encoded in `data`. Calls {_authorizeUpgrade}. Emits an {Upgraded} event."
      },
      "withdraw(address)": {
        "details": "withdraw pooled assets from the automator. This is used when the automator is rewarded by protocols with another token to prevent lock up.",
        "params": {
          "token": "The address of the ERC20 token to withdraw."
        }
      }
    },
    "stateVariables": {
      "asset": {
        "details": "Returns the deposit asset token contract."
      },
      "assetUsdFeed": {
        "details": "Returns the address of the asset USD feed."
      },
      "counterAsset": {
        "details": "Returns the counter asset token contract."
      },
      "counterAssetUsdFeed": {
        "details": "Returns the address of the counter asset USD feed."
      },
      "depositCap": {
        "details": "Returns the deposit cap."
      },
      "handler": {
        "details": "Returns the liquidity handler contract."
      },
      "handlerHook": {
        "details": "Returns the handler hook contract."
      },
      "manager": {
        "details": "Returns the position manager contract."
      },
      "minDepositAssets": {
        "details": "Returns the minimum deposit of assets."
      },
      "pool": {
        "details": "Returns the Uniswap V3 pool contract."
      },
      "poolTickSpacing": {
        "details": "Returns the tick spacing of the pool."
      },
      "quoter": {
        "details": "Returns the Chainlink quoter contract."
      },
      "router": {
        "details": "Returns the swap router contract."
      }
    },
    "title": "OrangeStrykeLPAutomatorV1",
    "version": 1
  },
  "userdoc": {
    "kind": "user",
    "methods": {
      "deposit(uint256)": {
        "notice": "This function allows users to deposit assets into the contract. It performs various checks such as ensuring the amount is not zero, not below the minimum deposit assets, and not exceeding the deposit cap. If the total supply of shares is zero, a small portion is minted to the zero address, and the remaining shares are assigned to the depositor. If there is a performance fee, it is deducted from the shares and minted to the performance fee recipient. Finally, the shares are minted to the depositor's address and the assets are transferred from the depositor to the contract."
      },
      "depositFeePips()": {
        "notice": "deposit fee percentage, hundredths of a bip (1 pip = 0.0001%)"
      }
    },
    "version": 1
  },
  "storageLayout": {
    "storage": [
      {
        "astId": 424,
        "contract": "contracts/dopex-v2-lp-automator/contracts/v1_1/OrangeStrykeLPAutomatorV1_1.sol:OrangeStrykeLPAutomatorV1_1",
        "label": "_initialized",
        "offset": 0,
        "slot": "0",
        "type": "t_uint8"
      },
      {
        "astId": 427,
        "contract": "contracts/dopex-v2-lp-automator/contracts/v1_1/OrangeStrykeLPAutomatorV1_1.sol:OrangeStrykeLPAutomatorV1_1",
        "label": "_initializing",
        "offset": 1,
        "slot": "0",
        "type": "t_bool"
      },
      {
        "astId": 406,
        "contract": "contracts/dopex-v2-lp-automator/contracts/v1_1/OrangeStrykeLPAutomatorV1_1.sol:OrangeStrykeLPAutomatorV1_1",
        "label": "__gap",
        "offset": 0,
        "slot": "1",
        "type": "t_array(t_uint256)50_storage"
      },
      {
        "astId": 722,
        "contract": "contracts/dopex-v2-lp-automator/contracts/v1_1/OrangeStrykeLPAutomatorV1_1.sol:OrangeStrykeLPAutomatorV1_1",
        "label": "__gap",
        "offset": 0,
        "slot": "51",
        "type": "t_array(t_uint256)50_storage"
      },
      {
        "astId": 7358,
        "contract": "contracts/dopex-v2-lp-automator/contracts/v1_1/OrangeStrykeLPAutomatorV1_1.sol:OrangeStrykeLPAutomatorV1_1",
        "label": "_balances",
        "offset": 0,
        "slot": "101",
        "type": "t_mapping(t_address,t_uint256)"
      },
      {
        "astId": 7364,
        "contract": "contracts/dopex-v2-lp-automator/contracts/v1_1/OrangeStrykeLPAutomatorV1_1.sol:OrangeStrykeLPAutomatorV1_1",
        "label": "_allowances",
        "offset": 0,
        "slot": "102",
        "type": "t_mapping(t_address,t_mapping(t_address,t_uint256))"
      },
      {
        "astId": 7366,
        "contract": "contracts/dopex-v2-lp-automator/contracts/v1_1/OrangeStrykeLPAutomatorV1_1.sol:OrangeStrykeLPAutomatorV1_1",
        "label": "_totalSupply",
        "offset": 0,
        "slot": "103",
        "type": "t_uint256"
      },
      {
        "astId": 7368,
        "contract": "contracts/dopex-v2-lp-automator/contracts/v1_1/OrangeStrykeLPAutomatorV1_1.sol:OrangeStrykeLPAutomatorV1_1",
        "label": "_name",
        "offset": 0,
        "slot": "104",
        "type": "t_string_storage"
      },
      {
        "astId": 7370,
        "contract": "contracts/dopex-v2-lp-automator/contracts/v1_1/OrangeStrykeLPAutomatorV1_1.sol:OrangeStrykeLPAutomatorV1_1",
        "label": "_symbol",
        "offset": 0,
        "slot": "105",
        "type": "t_string_storage"
      },
      {
        "astId": 7858,
        "contract": "contracts/dopex-v2-lp-automator/contracts/v1_1/OrangeStrykeLPAutomatorV1_1.sol:OrangeStrykeLPAutomatorV1_1",
        "label": "__gap",
        "offset": 0,
        "slot": "106",
        "type": "t_array(t_uint256)45_storage"
      },
      {
        "astId": 9624,
        "contract": "contracts/dopex-v2-lp-automator/contracts/v1_1/OrangeStrykeLPAutomatorV1_1.sol:OrangeStrykeLPAutomatorV1_1",
        "label": "asset",
        "offset": 0,
        "slot": "151",
        "type": "t_contract(IERC20)1460"
      },
      {
        "astId": 9627,
        "contract": "contracts/dopex-v2-lp-automator/contracts/v1_1/OrangeStrykeLPAutomatorV1_1.sol:OrangeStrykeLPAutomatorV1_1",
        "label": "counterAsset",
        "offset": 0,
        "slot": "152",
        "type": "t_contract(IERC20)1460"
      },
      {
        "astId": 9629,
        "contract": "contracts/dopex-v2-lp-automator/contracts/v1_1/OrangeStrykeLPAutomatorV1_1.sol:OrangeStrykeLPAutomatorV1_1",
        "label": "minDepositAssets",
        "offset": 0,
        "slot": "153",
        "type": "t_uint256"
      },
      {
        "astId": 9631,
        "contract": "contracts/dopex-v2-lp-automator/contracts/v1_1/OrangeStrykeLPAutomatorV1_1.sol:OrangeStrykeLPAutomatorV1_1",
        "label": "depositCap",
        "offset": 0,
        "slot": "154",
        "type": "t_uint256"
      },
      {
        "astId": 9634,
        "contract": "contracts/dopex-v2-lp-automator/contracts/v1_1/OrangeStrykeLPAutomatorV1_1.sol:OrangeStrykeLPAutomatorV1_1",
        "label": "depositFeePips",
        "offset": 0,
        "slot": "155",
        "type": "t_uint24"
      },
      {
        "astId": 9636,
        "contract": "contracts/dopex-v2-lp-automator/contracts/v1_1/OrangeStrykeLPAutomatorV1_1.sol:OrangeStrykeLPAutomatorV1_1",
        "label": "depositFeeRecipient",
        "offset": 3,
        "slot": "155",
        "type": "t_address"
      },
      {
        "astId": 9640,
        "contract": "contracts/dopex-v2-lp-automator/contracts/v1_1/OrangeStrykeLPAutomatorV1_1.sol:OrangeStrykeLPAutomatorV1_1",
        "label": "isOwner",
        "offset": 0,
        "slot": "156",
        "type": "t_mapping(t_address,t_bool)"
      },
      {
        "astId": 9644,
        "contract": "contracts/dopex-v2-lp-automator/contracts/v1_1/OrangeStrykeLPAutomatorV1_1.sol:OrangeStrykeLPAutomatorV1_1",
        "label": "isStrategist",
        "offset": 0,
        "slot": "157",
        "type": "t_mapping(t_address,t_bool)"
      },
      {
        "astId": 9647,
        "contract": "contracts/dopex-v2-lp-automator/contracts/v1_1/OrangeStrykeLPAutomatorV1_1.sol:OrangeStrykeLPAutomatorV1_1",
        "label": "_activeTicks",
        "offset": 0,
        "slot": "158",
        "type": "t_struct(UintSet)5169_storage"
      },
      {
        "astId": 9649,
        "contract": "contracts/dopex-v2-lp-automator/contracts/v1_1/OrangeStrykeLPAutomatorV1_1.sol:OrangeStrykeLPAutomatorV1_1",
        "label": "_decimals",
        "offset": 0,
        "slot": "160",
        "type": "t_uint8"
      },
      {
        "astId": 9652,
        "contract": "contracts/dopex-v2-lp-automator/contracts/v1_1/OrangeStrykeLPAutomatorV1_1.sol:OrangeStrykeLPAutomatorV1_1",
        "label": "manager",
        "offset": 1,
        "slot": "160",
        "type": "t_contract(IDopexV2PositionManager)12322"
      },
      {
        "astId": 9655,
        "contract": "contracts/dopex-v2-lp-automator/contracts/v1_1/OrangeStrykeLPAutomatorV1_1.sol:OrangeStrykeLPAutomatorV1_1",
        "label": "handler",
        "offset": 0,
        "slot": "161",
        "type": "t_contract(IUniswapV3SingleTickLiquidityHandlerV2)12602"
      },
      {
        "astId": 9657,
        "contract": "contracts/dopex-v2-lp-automator/contracts/v1_1/OrangeStrykeLPAutomatorV1_1.sol:OrangeStrykeLPAutomatorV1_1",
        "label": "handlerHook",
        "offset": 0,
        "slot": "162",
        "type": "t_address"
      },
      {
        "astId": 9660,
        "contract": "contracts/dopex-v2-lp-automator/contracts/v1_1/OrangeStrykeLPAutomatorV1_1.sol:OrangeStrykeLPAutomatorV1_1",
        "label": "quoter",
        "offset": 0,
        "slot": "163",
        "type": "t_contract(ChainlinkQuoter)7339"
      },
      {
        "astId": 9662,
        "contract": "contracts/dopex-v2-lp-automator/contracts/v1_1/OrangeStrykeLPAutomatorV1_1.sol:OrangeStrykeLPAutomatorV1_1",
        "label": "assetUsdFeed",
        "offset": 0,
        "slot": "164",
        "type": "t_address"
      },
      {
        "astId": 9664,
        "contract": "contracts/dopex-v2-lp-automator/contracts/v1_1/OrangeStrykeLPAutomatorV1_1.sol:OrangeStrykeLPAutomatorV1_1",
        "label": "counterAssetUsdFeed",
        "offset": 0,
        "slot": "165",
        "type": "t_address"
      },
      {
        "astId": 9667,
        "contract": "contracts/dopex-v2-lp-automator/contracts/v1_1/OrangeStrykeLPAutomatorV1_1.sol:OrangeStrykeLPAutomatorV1_1",
        "label": "pool",
        "offset": 0,
        "slot": "166",
        "type": "t_contract(IUniswapV3Pool)5331"
      },
      {
        "astId": 9670,
        "contract": "contracts/dopex-v2-lp-automator/contracts/v1_1/OrangeStrykeLPAutomatorV1_1.sol:OrangeStrykeLPAutomatorV1_1",
        "label": "router",
        "offset": 0,
        "slot": "167",
        "type": "t_contract(ISwapRouter)6626"
      },
      {
        "astId": 9672,
        "contract": "contracts/dopex-v2-lp-automator/contracts/v1_1/OrangeStrykeLPAutomatorV1_1.sol:OrangeStrykeLPAutomatorV1_1",
        "label": "poolTickSpacing",
        "offset": 20,
        "slot": "167",
        "type": "t_int24"
      }
    ],
    "types": {
      "t_address": {
        "encoding": "inplace",
        "label": "address",
        "numberOfBytes": "20"
      },
      "t_array(t_bytes32)dyn_storage": {
        "base": "t_bytes32",
        "encoding": "dynamic_array",
        "label": "bytes32[]",
        "numberOfBytes": "32"
      },
      "t_array(t_uint256)45_storage": {
        "base": "t_uint256",
        "encoding": "inplace",
        "label": "uint256[45]",
        "numberOfBytes": "1440"
      },
      "t_array(t_uint256)50_storage": {
        "base": "t_uint256",
        "encoding": "inplace",
        "label": "uint256[50]",
        "numberOfBytes": "1600"
      },
      "t_bool": {
        "encoding": "inplace",
        "label": "bool",
        "numberOfBytes": "1"
      },
      "t_bytes32": {
        "encoding": "inplace",
        "label": "bytes32",
        "numberOfBytes": "32"
      },
      "t_contract(ChainlinkQuoter)7339": {
        "encoding": "inplace",
        "label": "contract ChainlinkQuoter",
        "numberOfBytes": "20"
      },
      "t_contract(IDopexV2PositionManager)12322": {
        "encoding": "inplace",
        "label": "contract IDopexV2PositionManager",
        "numberOfBytes": "20"
      },
      "t_contract(IERC20)1460": {
        "encoding": "inplace",
        "label": "contract IERC20",
        "numberOfBytes": "20"
      },
      "t_contract(ISwapRouter)6626": {
        "encoding": "inplace",
        "label": "contract ISwapRouter",
        "numberOfBytes": "20"
      },
      "t_contract(IUniswapV3Pool)5331": {
        "encoding": "inplace",
        "label": "contract IUniswapV3Pool",
        "numberOfBytes": "20"
      },
      "t_contract(IUniswapV3SingleTickLiquidityHandlerV2)12602": {
        "encoding": "inplace",
        "label": "contract IUniswapV3SingleTickLiquidityHandlerV2",
        "numberOfBytes": "20"
      },
      "t_int24": {
        "encoding": "inplace",
        "label": "int24",
        "numberOfBytes": "3"
      },
      "t_mapping(t_address,t_bool)": {
        "encoding": "mapping",
        "key": "t_address",
        "label": "mapping(address => bool)",
        "numberOfBytes": "32",
        "value": "t_bool"
      },
      "t_mapping(t_address,t_mapping(t_address,t_uint256))": {
        "encoding": "mapping",
        "key": "t_address",
        "label": "mapping(address => mapping(address => uint256))",
        "numberOfBytes": "32",
        "value": "t_mapping(t_address,t_uint256)"
      },
      "t_mapping(t_address,t_uint256)": {
        "encoding": "mapping",
        "key": "t_address",
        "label": "mapping(address => uint256)",
        "numberOfBytes": "32",
        "value": "t_uint256"
      },
      "t_mapping(t_bytes32,t_uint256)": {
        "encoding": "mapping",
        "key": "t_bytes32",
        "label": "mapping(bytes32 => uint256)",
        "numberOfBytes": "32",
        "value": "t_uint256"
      },
      "t_string_storage": {
        "encoding": "bytes",
        "label": "string",
        "numberOfBytes": "32"
      },
      "t_struct(Set)4697_storage": {
        "encoding": "inplace",
        "label": "struct EnumerableSet.Set",
        "members": [
          {
            "astId": 4692,
            "contract": "contracts/dopex-v2-lp-automator/contracts/v1_1/OrangeStrykeLPAutomatorV1_1.sol:OrangeStrykeLPAutomatorV1_1",
            "label": "_values",
            "offset": 0,
            "slot": "0",
            "type": "t_array(t_bytes32)dyn_storage"
          },
          {
            "astId": 4696,
            "contract": "contracts/dopex-v2-lp-automator/contracts/v1_1/OrangeStrykeLPAutomatorV1_1.sol:OrangeStrykeLPAutomatorV1_1",
            "label": "_indexes",
            "offset": 0,
            "slot": "1",
            "type": "t_mapping(t_bytes32,t_uint256)"
          }
        ],
        "numberOfBytes": "64"
      },
      "t_struct(UintSet)5169_storage": {
        "encoding": "inplace",
        "label": "struct EnumerableSet.UintSet",
        "members": [
          {
            "astId": 5168,
            "contract": "contracts/dopex-v2-lp-automator/contracts/v1_1/OrangeStrykeLPAutomatorV1_1.sol:OrangeStrykeLPAutomatorV1_1",
            "label": "_inner",
            "offset": 0,
            "slot": "0",
            "type": "t_struct(Set)4697_storage"
          }
        ],
        "numberOfBytes": "64"
      },
      "t_uint24": {
        "encoding": "inplace",
        "label": "uint24",
        "numberOfBytes": "3"
      },
      "t_uint256": {
        "encoding": "inplace",
        "label": "uint256",
        "numberOfBytes": "32"
      },
      "t_uint8": {
        "encoding": "inplace",
        "label": "uint8",
        "numberOfBytes": "1"
      }
    }
  }
}